:400000000080002011000000650400006504000080B500AF024A034B1B68136000F02CFABC760040FA46004010B5054C237833B9044B13B10448AFF300800123237010BD1F
:400040009081FF1F00000000902F0000084B10B51BB108480849AFF300800848036803B910BD074B002BFBD0BDE81040184700BF00000000902F00009481FF1F0881FF1FB3
:400080000000000090B583B000AF0023FB8001F0EDFA01F045FB00F061F900F017FD01F021FC01F081F902F023FD02F037FD01F09BFC62B602F032FD0020002100F016FD6E
:4000C000454800F049FD0120002100F00FFD434800F042FD012002F027FD0346002B41D0002002F039FD03469BB201339AB23C4B1A803B4B1B88184601F0F0FD384B1B887F
:400100009B089BB2184601F0F9FD032002F024FD03465B129BB29BB201339BB2184600F045F9022002F018FD03469AB22D4B1A802C4B1B88DBB2184602F0C8FE294B1B8853
:400140001B0A9BB2DBB2184602F0B0FE012002F003FD03469BB2184600F04CF803461A46214B1A80204B1A88204B1A80012001F0D7F90346002B13D001F0F2F903469AB2DC
:400180001B4B1A801A4B1B88DBB2184601F0DCFC174B1B881B0A9BB2DBB2184601F0E4FC01F0F2FC03461B029CB201F0F9FC03469BB2224613439BB2BB800C4B1A88BB88BF
:4001C00013409BB26FEA03536FEA13539BB2184601F046FC7EE700BF942F00009C2F0000BC81FF1FAE81FF1FAC81FF1FB081FF1FBA81FF1F80B485B000AF0346FB80FB8867
:40020000DB099BB27B737B7B1F2B00F2988001A252F823F0950200009D020000A5020000AD020000B5020000BD020000C5020000CD020000D5020000DD020000E502000020
:40024000ED020000F5020000FD020000050300000D03000013030000190300003F0300003F0300003F0300003F0300003F0300003F0300003F0300003F0300003F030000FD
:400280001F030000250300002B03000031030000370300004FF6FF73FB8153E04FF6FE73FB814FE04FF6FC73FB814BE04FF6F873FB8147E04FF6F073FB8143E04FF6E07304
:4002C000FB813FE04FF47D63FB813BE04FF47C63FB8137E04FF47B63FB8133E04FF47A63FB812FE04FF47963FB812BE04FF47863FB8127E04FF47763FB8123E04FF476639A
:40030000FB811FE04FF47563FB811BE04FF47463FB814FF47063FB814FF46063FB814FF45063FB814FF44063FB814FF43063FB814FF42063FB814FF40063FB8102E04FF655
:40034000FF73FB81FB896FEA03536FEA13539BB218461437BD465DF8047B704780B500AF01F098FC02F0C4F902F086FA02F03CF801F0F2FD01F076FF01F0B0FE02F0F6F8A4
:4003800001F028FD01F018FC02F066F902F026FA01F0DEFF01F094FD01F016FF01F052FE02F098F801F0CAFC00BF80BD80B584B000AF0346FB80FB885B08FB81FB88DBB2A5
:4003C000184602F0C3F9FB88DBB2184602F082FAFB88DBB2184602F035F8FB88DBB2184601F0E8FDFB88DBB2184601F069FFFB88DBB2184601F0A0FEFB88DBB2184602F020
:40040000E3F8FB88DBB2184601F012FDFB89DBB2184602F0ABF9FB89DBB2184602F06AFAFB89DBB2184602F01DF8FB89DBB2184601F0D0FDFB89DBB2184601F051FFFB89D2
:40044000DBB2184601F088FEFB89DBB2184602F0CBF8FB89DBB2184601F0FAFC00BF1037BD4680BD80B500AF02F052FD03461B680C2B00D1FEE7FEE780B586B000AF224B10
:400480007B61224B3B61204B7B6135E03B691B68FB603B695B68BB603B699B683B6000237B600CE0FB681A68BB681A60BB680433BB60FB680433FB607B6804337B607A6808
:4004C0003B689A42EED13B69DB683B6000237B6008E0BB6800221A60BB680433BB607B6804337B607A683B689A42F2D13B6910333B617B69013B7B617B69002BC6D102F0F2
:400500000DFDFFF7BFFDFEE7010000008836000080B582B000AF184B184A1A60184A184B1B6843F40073136000237B600FE07B68032B04D8134A7B6852F8233000E0124BAD
:4005400012497A6841F822307B6801337B607B682F2BECD90E4B1B78DAB20E4B1A700E4B0A4A1A6000F094F900F090FC0B4B00221A600837BD4680BD0CED00E00004FA05F7
:4005800014ED00E000000000650400000080FF1FBC7600400481FF1F08ED00E00081FF1F80B582B000AF78603960786800213A6802F0E5FC0837BD4680BD00BF80B584B026
:4005C00000AFF860B9607A60F868B9687A6802F0CBFC1037BD4680BD80B483B000AF0346FB71FEE780B487B000AF7860396000233B6100237B6127E07B699B007A681344A6
:400600001B68BB60BB68FB73BB6823F0FF03BB6014E03B695B003A6813441B781A46BB68134419463B695B003A6813445B780B703B6901333B61FB7B013BFB73FB7B002B05
:40064000E7D17B6901337B617B692A2BD4D91C37BD465DF8047B704780B582B000AF364B01221A80354B18221A70354B03221A80344B18221A70344B1D221A80334B1822DD
:400680001A70334B02221A704FF0402308221A70304B04221A70304B304A1278D2B21A702F4B4FF471621A802E4B41F251221A800023FB7019237B6014E0FB785B00DAB2A0
:4006C000294B1B78DBB203F00103DBB21343DBB203F00303FB704FF4F07002F009FC7B68013B7B607B68002B02D0FB78032BE4D17B68002B02D10320FFF76EFF1B4B4FF4C1
:4007000080721A80194B07221A70194B00221A70184B48221A70154B00221A70164B02221A70164A154B1B78DBB243F00703DBB213700837BD4680BD8040004082400040E6
:400740008440004086400040884000408A4000400043004000420040A14600408901004922420040204200402542004004400040064000400840004001400040A243004039
:4007800080B582B000AF2D4B1B78FB712C4B1B78BB712C4B1B787B712B4AFB7903F00703DBB21370294AFB791B09DBB21370244ABB7943F00303DBB21370224A7B7943F0F1
:4007C0000303DBB21370224B02221A70214B40221A70214B48F20A521A80204B40221A701F4B40221A701F4B80221A701E4B80221A701E4B20221A701D4B50221A701D4BFB
:4008000021221A701C4B40221A701C4B20221A701B4B1C4A1A601C4B80221A700A2000F075FD084A7B791370054ABB791370174B44221A700837BD4680BD00BFCF01004988
:40084000F8460040F94600406E5800406F5800400D5100403D5100404C510040015900400359004009590040935A0040945A0040205B0040235B0040285B00402B5B0040F0
:40088000405B004009010401585B00407658004080B586B000AF72B60023FB7513E0FA7D13465B0013445B004C4A13443B613B691A683B699B889BB210461946FFF770FECC
:4008C000FB7D0133FB75FB7D072BE8D90023FB751CE0FA7D13469B0013445B00404A1344FB60FB681B68BB60FB685B687B60FB681A7A5B7A1B0213437B807B88B868796849
:400900001A46FFF75BFEFB7D0133FB75FB7D002BDFD04FF090403349FFF764FE32480421FFF73EFE314832490422FFF747FE314A304B1B78DBB243F00203DBB213702E4ABB
:400940002D4B1B78DBB243F00203DBB213702B4A2A4B1B78DBB243F04003DBB21370284A274B1B78DBB243F01003DBB21370254825490A22FFF722FE244825490A22FFF794
:400980001DFE244824490822FFF718FE234824490822FFF713FE234823490822FFF70EFE224A224B1B78DBB243F00803DBB213701F4B01221A70FFF74FFE1D4BC1221A708B
:4009C0001C4B01221A70FFF7DBFE1B480B490E22FFF7F4FD1837BD4680BD00BFA42F0000D42F0000AC0000480076004008760040500E00480350014013500140A0430040B9
:400A0000C243004000510040200E0048C05100402C0E004812510040380E004822510040400E004842510040480E0048224300400048004004000840B043004080B500AF1C
:400A4000282000F041FC032000F0CEF9052000F03BFC032000F0C8F90F2000F035FC032000F0C2F9012000F02FFC022000F0BCF9052000F029FC062000F0A4F80E2000F0DC
:400A8000A1F82C2000F09EF8082000F09BF8012000F098F80C2000F095F8032000F092F8052000F011FC024800F0CEF980BD00BFE02F000080B500AF0C2000F083F8024B43
:400AC00001221A7080BD00BFBE81FF1F80B500AF054B1B78002B04D1FFF7B0FF024B01221A70FFF7E7FF80BDBF81FF1F80B582B000AF03460A46FB711346BB71FB79032BD1
:400B000026D801A252F823F0190B0000270B0000350B0000430B0000BB79803BDBB2184600F050F815E0BB79403BDBB2184600F049F80EE0BB796C3BDBB2184600F042F823
:400B400007E0BB792C3BDBB2184600F03BF800E000BF0837BD4680BD80B584B000AF78600123FB737B681B78BB730BE0BB7B184600F00EF8FB7B7A6813441B78BB73FB7B46
:400B80000133FB73BB7B002BF0D11037BD4680BD80B584B000AF0346FB7100F02DF8FB791B09FB73FB7B184600F0E2F8FB7903F00F03FB73FB7B184600F0DAF81037BD469D
:400BC00080BD00BF80B584B000AF0346FB7100F013F8FB791B09FB73FB7B184600F004F9FB7903F00F03FB73FB7B184600F0FCF81037BD4680BD00BF80B582B000AF4FF42C
:400C0000CA737B60554A554B1B78DBB223F07F03DBB21370524B1B78DBB223F00F03FB704F4AFB7843F00F03DBB213704D4B1B78DBB223F00F03FB704A4AFB7813704A4B83
:400C40001B78DBB223F00F03FB70474AFB781370424A424B1B78DBB223F02003DBB213703E4A3E4B1B78DBB243F04003DBB21370002000F04BFB394A384B1B78DBB243F058
:400C80001003DBB21370012000F040FB374B1B78FB70324A314B1B78DBB223F01003DBB21370002000F032FBFB7803F00803FB702A4A2A4B1B78DBB243F01003DBB213707F
:400CC000012000F023FB254A244B1B78DBB223F01003DBB21370FB78002B02D10A2000F015FB7B68013B7B60FB78002B02D07B68002BBDD1194A194B1B78DBB223F04003B3
:400D0000DBB21370154A154B1B78DBB223F07F03DBB21370124A124B1B78DBB223F00F03DBB213700F4B1B78DBB223F00F03FB700C4AFB7843F00F03DBB213700A4B1B7801
:400D4000DBB223F00F03FB70074AFB7843F00F03DBB213700837BD4680BD00BF205100402251004023510040245100402151004080B582B000AF0346FB711A4A194B1B785A
:400D8000DBB243F02003DBB21370164A154B1B78DBB223F04003DBB21370002000F0B6FA104A104B1B78DBB223F00F03DBB213700C490C4B1B78DAB2FB791343DBB243F0DB
:400DC0001003DBB20B70012000F0A0FA054A054B1B78DBB223F01003DBB213700837BD4680BD00BF2051004080B582B000AF0346FB71144A134B1B78DBB223F06003DBB29F
:400E00001370104A0F4B1B78DBB223F00F03DBB213700C490B4B1B78DAB2FB791343DBB243F01003DBB20B70012000F06FFA054A044B1B78DBB223F01003DBB2137008370A
:400E4000BD4680BD2051004080B584B000AF7860FFF7D2FE4020FFF7B5FE0023FB7309E0FB7B7A6813441B781846FFF791FEFB7B0133FB73FB7B3F2BF2D9FFF7BDFE80200F
:400E8000FFF7A0FE1037BD4680BD00BF80B483B000AF134B7F221A70124B80221A707F23FB710CE0FB79DB0003F1804303F5F043FA79013AD2B21A70FB79013BFB71FB79B9
:400EC000002BEFD1FB79DB0003F1804303F5F04300221A700C37BD465DF8047B704700BF0D81FF1F0C81FF1F80B485B000AF03460A46FB711346BB710123FB60FB79172B6C
:400F00002FD8BB79002B0ED0FB791A01184B1344FA791101164A0A441278D2B242F02002D2B21A700DE0FB791A01114B1344FA7911010F4A0A441278D2B222F02002D2B260
:400F40001A70FB791A010A4B1344FA791101084A0A441278D2B242F00102D2B21A700023FB60FB6818461437BD465DF8047B70471070004080B485B000AF0346FB7101236D
:400F8000FB60FB79172B1DD8FB791A01114B1344FA7911010F4A0A441279D2B242F00402D2B21A71FB791A010A4B1344FA791101084A0A441278D2B242F00102D2B21A70B6
:400FC0000023FB60FB6818461437BD465DF8047B704700BF1070004080B485B000AF03460A46FB711346BB710123FB60FB79172B18D8FB791A010F4B13441B78DBB223F020
:401000000E03FB72FB791A010A4B1344BA7902F00702D2B25200D1B2FA7A0A43D2B21A700023FB60FB6818461437BD465DF8047B704700BF1070004080B485B000AF0346A9
:40104000FB710B46BB8013467B800123FB60BB8841F6FF72934202D14FF40053BB807B8841F6FF72934202D14FF400537B80FB79172B17D8FB79DB0003F1804303F5EC438B
:401080000433BB60BB68BA881A80FB79DB0003F1804303F5EC430633BB60BB687A881A800023FB60FB6818461437BD465DF8047B704700BF80B485B000AF03460A46FB71AB
:4010C0001346BB710123FB60FB79172B07D8FB791A01064B1344BA795A720023FB60FB6818461437BD465DF8047B70471070004090B484B000AF0446084611461A4623466A
:40110000FB710346BB710B467B7113463B710123FB60FB79172B34D8FB79DB0003F1804303F5EC43BA7902F07F02D1B27A79D201D2B20A43D2B21A70FB79DB0003F180434A
:4011400003F5EC433A7E1201D1B23A7902F00F02D2B20A43D2B25A70FB79DB0003F1804303F5EC433A7F02F00F02D2B29A70FB79DB0003F1804303F5EC430022DA700023F2
:40118000FB60FB6818461037BD4690BC704700BF80B582B000AFFF23FB7101F0B1FE0346BB71104B1B78182B12D90F4B1B78FB710C4B1B78013BDAB20A4B1A70FB79DB00F9
:4011C00003F1804303F5F0431B78DAB2064B1A70BB79184601F098FEFB7918460837BD4680BD00BF0C81FF1F0D81FF1F90B484B000AF0446084611461A462346FB710346FF
:40120000BB800B46BB711346FB700123FB60FB795BB2002B23DBBB8823F47F6323F00F039BB2002B1BD1FB79DB0003F1804303F5F043BB60BB68BA881A80FB79DB0003F1B6
:40124000804303F5F043BA799A70FB79DB0003F1804303F5F043FA78DA700023FB60FB6818461037BD4690BC704700BF80B485B000AF0346FB710B46BB8013467B8001233A
:40128000FB60FB795BB2002B17DBFB79DB0003F1804303F5F0430433BB60BB68BA881A80FB79DB0003F1804303F5F0430633BB60BB687A881A800023FB60FB6818461437E5
:4012C000BD465DF8047B704780B582B000AF786008E00C4B1B68184601F00AFE7B68A3F500437B607B68B3F5004FF2D8064B1B687A6802FB03F3184601F0FAFD0837BD46EB
:4013000080BD00BF2081FF1F1881FF1F80B582B000AF0346FB80FB88044A127802FB03F3184601F0E5FD0837BD4680BD1C81FF1F80B485B000AF03463960FB710D4B1B6867
:40134000FB60FB7903F01F0310339B00FA6813441B68BB60FB7903F01F0310339B00FA6813443A681A60BB6818461437BD465DF8047B704708ED00E080B483B000AF03468A
:401380000A46FB711346BB71FB7903F01F0303F1604303F56443BA795201D2B21A700C37BD465DF8047B704780B500AF054B1B78002B04D100F008F8024B01221A7000F027
:4013C00023F880BDC081FF1F80B500AF00200721FFF7D2FF00200949FFF7AAFF084A084B1B78DBB243F00603DBB213700C2000F071F8044B00221A8080BD00BF0D16000072
:4014000009590040EC81FF1F80B582B000AF01F077FD0346FB71264A254B1B78DBB243F00203DBB21370234A224B1B78DBB243F00203DBB21370204B1B78BB71BB7943F034
:401440000203BB71BB7943F00103BB711A4ABB7913701A4B18221A70194A194B1B78DBB243F04003DBB21370154A154B1B78DBB223F00303DBB21370124BCE221A70124BB7
:4014800002221A70114A114B1B78DBB243F00803DBB213700A20FFF739FF0D4B01221A60FB79184601F030FD0837BD4680BD00BFAB430040BB4300400B5900400E59004027
:4014C0000D59004008590040164600402F5B004080E200E080B584B000AF0346FB71FB790A2B07D00C2B02D0082B06D008E0C223FB7308E08223FB7305E04223FB7302E0CE
:40150000C223FB7300BF054AFB7B1370FB79184600F040F81037BD4680BD00BF0A59004080B584B000AF0346FB710C4B1B78DBB203F00103FB73FB7B012B02D0FB79002BB2
:40154000F3D0FB7B012B04D10120FFF7DFFE034B1B78FB7B18461037BD4680BD0959004080B483B000AF094B1B88FB80084B1B889BB29BB2FA88D31A9BB29BB21BB2184613
:401580000C37BD465DF8047B704700BFA25B0040E681FF1F80B485B000AF0346FB71FB790A2B08D00C2B02D0082B08D00BE04FF48053FB600AE04FF48063FB6006E04FF487
:4015C0008073FB6002E00023FB6000BF0C4B00221A80FB6842F2107202FB03F303F58063002B01DA03F2FF73DB121A46054B1A60054B00221A801437BD465DF8047B70471B
:40160000E481FF1FE881FF1FE681FF1F80B400AFBD465DF8047B704780B500AF032000F035F880BD80B400AF0D4A0D4B1B78DBB243F06003DBB213700A4A0A4B1B78DBB228
:4016400043F00403DBB21370074A074B1B78DBB243F00403DBB21370BD465DF8047B704777580040A4430040B443004080B500AF054B1B78002B04D1034B01221A70FFF760
:40168000CBFFFFF7CFFF80BDC181FF1F80B483B000AF0346FB710C4A0B4B1B78DBB223F00303DBB213700849074B1B78DAB2FB7903F00303DBB21343DBB20B700C37BD46DF
:4016C0005DF8047B704700BF5C58004080B500AF032000F035F880BD80B400AF0D4A0D4B1B78DBB243F06003DBB213700A4A0A4B1B78DBB243F00203DBB21370074A074B3F
:401700001B78DBB243F00203DBB21370BD465DF8047B704777580040A4430040B443004080B500AF054B1B78002B04D1034B01221A70FFF7CBFFFFF7CFFF80BDC281FF1F62
:4017400080B483B000AF0346FB710C4A0B4B1B78DBB223F00303DBB213700849074B1B78DAB2FB7903F00303DBB21343DBB20B700C37BD465DF8047B704700BF5A5800400D
:40178000F8B500AF354A354B1B78DBB243F01003DBB21370324A324B1B78DBB223F00103DBB213702F4B3F221A702F4B3F221A702E4A2F4B11461A464FF4807308461146CA
:4017C0001A4601F0D1FB2B4A294B11461A464FF48073084611461A4601F0C6FB264A274B11461A464FF48073084611461A4601F0BBFB234A234B11461A464FF4007308462E
:4018000011461A4601F0B0FB1F4A204B11461A464FF40073084611461A4601F0A5FB1C4B1C4A14461E4604F1400E35462346186859689A68DB680FC5103410367445F4D16A
:40184000094B00221A70032000F05CF8002000F06DF8114BF8221A70F8BD00BFA643004080C7004088C700408CC7004000C400402030000000C5004000C600406035000052
:4018800000C000402031000000C200402033000000C700402035000084C7004080B400AF0D4A0D4B1B78DBB243F01003DBB213700A4A0A4B1B78DBB243F01003DBB2137074
:4018C000074A074B1B78DBB243F00103DBB21370BD465DF8047B7047A6430040B643004080C7004080B500AF054B1B78002B04D1FFF746FF024B01221A70FFF7CFFF80BD6A
:40190000C381FF1F80B483B000AF0346FB71FB7903F01F03FB71044AFB7913700C37BD465DF8047B704700BF98C7004080B483B000AF0346FB71FB7903F00F03FB71044A13
:40194000FB7913700C37BD465DF8047B704700BF9CC7004080B500AF074B1F221A7000F099F800F05DF800F06BF8044B08221A70034B00221A7080BD8D6400408C64004088
:401980008E64004080B582B000AF01F0B9FA0346FB71124A114B1B78DBB243F02003DBB213700F4A0E4B1B78DBB243F01003DBB213700C4A0B4B1B78DBB243F01003DBB281
:4019C0001370FB79184601F09FFA00F0A3F800F01BF800F01FF80837BD4680BD9D6400409C6400409E64004080B500AF054B1B78002B04D1FFF7AEFF024B01221A70FFF7D7
:401A0000C1FF80BDC481FF1F80B400AFBD465DF8047B704780B400AFBD465DF8047B704780B483B000AF054B1B78FB71FB7918460C37BD465DF8047B704700BF6C6400408D
:401A400080B483B000AF054B1B78FB71FB7918460C37BD465DF8047B704700BF6E64004080B483B000AF0346FB8000BF074B1B78DBB203F00403002BF8D0054AFB88138030
:401A80000C37BD465DF8047B704700BF6C6400404C64004080B582B000AF01E0194B1B88194B1B78DBB203F02003002BF6D101F027FA0346FB71154A144B1B78DBB243F034
:401AC0000103DBB21370114A104B1B78DBB223F00103DBB213700E4A0D4B1B78DBB243F00103DBB213700A4A094B1B78DBB223F00103DBB21370FB79184601F005FA0837CE
:401B0000BD4680BD5C6400406E6400409C6400409D64004080B400AF094A094B1B78DBB243F00103DBB21370064A064B1B78DBB243F00103DBB21370BD465DF8047B70474B
:401B4000A2430040B243004080B483B000AF0346FB71044AFB7913700C37BD465DF8047B704700BF7765004080B483B000AF0346FB71044AFB7913700C37BD465DF8047B25
:401B8000704700BF7B65004080B400AF034B1B78DBB21846BD465DF8047B70476964004080B400AF034B1B78DBB21846BD465DF8047B70476465004080B500AF054B1B7838
:401BC000002B04D100F008F8024B01221A7000F061F880BDC581FF1F80B582B000AF284A274B1B78DBB243F00203DBB21370254B1B78DBB223F07003FB71224AFB7943F01A
:401C00002003DBB21370204A1F4B1B78DBB223F03003DBB213701C4A1B4B1B78DBB243F03003DBB21370184A174B1B78DBB223F00F03DBB21370144A134B1B78DBB243F09D
:401C40000F03DBB21370012000F048F8002000F055F8002000F062F80C4A0C4B1B78DBB243F00103DBB21370094A094B1B78DBB243F00103DBB213700837BD4680BD00BFCA
:401C8000004F0040024F00400B4F0040A3430040014F004080B400AF0D4A0D4B1B78DBB243F00103DBB213700A4A0A4B1B78DBB243F00103DBB21370074A074B1B78DBB2E8
:401CC00043F00103DBB21370BD465DF8047B7047A3430040B3430040004F004080B483B000AF0346FB80044AFB8813800C37BD465DF8047B704700BF044F004080B483B05C
:401D000000AF0346FB80044AFB8813800C37BD465DF8047B704700BF064F004080B483B000AF0346FB71044AFB7913700C37BD465DF8047B704700BF034F004080B500AF91
:401D4000054B1B78002B04D100F008F8024B01221A7000F03FF880BDC681FF1F80B582B000AF1A4B1B78DBB223F03F03FB71174AFB7943F00A03DBB21370154A144B1B78FB
:401D8000DBB243F00103DBB21370012000F032F8012000F04DF8002000F05AF8002000F067F801F0ADF80346BB71094A084B1B78DBB243F01003DBB21370BB79184601F043
:401DC000A3F800F027F80837BD4680BD7A6500409A65004080B400AF054A054B1B78DBB263F07F03DBB21370BD465DF8047B70477A65004080B483B000AF0346FB71044A0F
:401E0000FB7913700C37BD465DF8047B704700BF0A65004080B500AF01E000F045F800F037F8034603F01003002BF6D180BD00BF80B483B000AF0346FB71044AFB7913700E
:401E40000C37BD465DF8047B704700BF4A65004080B483B000AF0346FB71044AFB7913700C37BD465DF8047B704700BF2A65004080B483B000AF0346FB71044AFB79137064
:401E80000C37BD465DF8047B704700BF8A65004080B400AF034B1B78DBB21846BD465DF8047B70476A65004080B400AF034B1B78DBB21846BD465DF8047B70475A650040DB
:401EC00080B500AF054B1B78002B04D100F008F8024B01221A7000F03FF880BDC781FF1F80B582B000AF1A4B1B78DBB223F03F03FB71174AFB7943F00A03DBB21370154A87
:401F0000144B1B78DBB243F00103DBB21370012000F032F8012000F04DF8002000F05AF8002000F067F800F0EBFF0346BB71094A084B1B78DBB243F01003DBB21370BB79DA
:401F4000184600F0E1FF00F027F80837BD4680BD706400409064004080B400AF054A054B1B78DBB263F07F03DBB21370BD465DF8047B70477064004080B483B000AF0346D5
:401F8000FB71044AFB7913700C37BD465DF8047B704700BF0064004080B500AF01E000F045F800F037F8034603F01003002BF6D180BD00BF80B483B000AF0346FB71044AD5
:401FC000FB7913700C37BD465DF8047B704700BF4064004080B483B000AF0346FB71044AFB7913700C37BD465DF8047B704700BF2064004080B483B000AF0346FB71044AF9
:40200000FB7913700C37BD465DF8047B704700BF8064004080B400AF034B1B78DBB21846BD465DF8047B70476064004080B400AF034B1B78DBB21846BD465DF8047B704777
:402040005064004080B500AF054B1B78002B04D100F008F8024B01221A7000F03FF880BDC881FF1F80B582B000AF1A4B1B78DBB223F03F03FB71174AFB7943F00C03DBB2F0
:402080001370154A144B1B78DBB243F00103DBB21370012000F032F8012000F04DF8002000F05AF8002000F067F800F029FF0346BB71094A084B1B78DBB243F01003DBB2F0
:4020C0001370BB79184600F01FFF00F027F80837BD4680BD7B6400409865004080B400AF054A054B1B78DBB263F07F03DBB21370BD465DF8047B70477B64004080B483B038
:4021000000AF0346FB71044AFB7913700C37BD465DF8047B704700BF0865004080B500AF01E000F045F800F037F8034603F01003002BF6D180BD00BF80B483B000AF03460C
:40214000FB71044AFB7913700C37BD465DF8047B704700BF4865004080B483B000AF0346FB71044AFB7913700C37BD465DF8047B704700BF2865004080B483B000AF034665
:40218000FB71044AFB7913700C37BD465DF8047B704700BF8865004080B400AF034B1B78DBB21846BD465DF8047B70476865004080B400AF034B1B78DBB21846BD465DF860
:4021C000047B70475865004080B500AF054B1B78002B04D100F008F8024B01221A7000F041F880BDC981FF1F80B582B000AF1A4B1B78DBB223F03F03FB71174AFB7943F0C9
:402200000C03DBB21370154A144B1B78DBB243F00103DBB21370012000F034F8012000F04FF8002000F05CF8002000F069F800F067FE0346BB710A4A094B1B78DBB243F02B
:402240001003DBB21370BB79184600F05DFE00F029F80837BD4680BD7A640040996400409A64004080B400AF054A054B1B78DBB263F07F03DBB21370BD465DF8047B704720
:402280007A64004080B483B000AF0346FB71044AFB7913700C37BD465DF8047B704700BF0964004080B500AF01E000F045F800F037F8034603F01003002BF6D180BD00BF65
:4022C00080B483B000AF0346FB71044AFB7913700C37BD465DF8047B704700BF4964004080B483B000AF0346FB71044AFB7913700C37BD465DF8047B704700BF29640040E4
:4023000080B483B000AF0346FB71044AFB7913700C37BD465DF8047B704700BF8A64004080B400AF034B1B78DBB21846BD465DF8047B70476A64004080B400AF034B1B78C0
:40234000DBB21846BD465DF8047B70475964004080B500AF054B1B78002B04D100F008F8024B01221A7000F03FF880BDCA81FF1F80B582B000AF1A4B1B78DBB223F03F0379
:40238000FB71174AFB7943F00A03DBB21370154A144B1B78DBB243F00103DBB21370012000F032F8012000F04DF8002000F05AF8002000F067F800F0A3FD0346BB71094AAD
:4023C000084B1B78DBB243F01003DBB21370BB79184600F099FD00F027F80837BD4680BD766400409664004080B400AF054A054B1B78DBB263F07F03DBB21370BD465DF83B
:40240000047B70477664004080B483B000AF0346FB71044AFB7913700C37BD465DF8047B704700BF0664004080B500AF01E000F045F800F037F8034603F01003002BF6D1B0
:4024400080BD00BF80B483B000AF0346FB71044AFB7913700C37BD465DF8047B704700BF4664004080B483B000AF0346FB71044AFB7913700C37BD465DF8047B704700BF36
:402480002664004080B483B000AF0346FB71044AFB7913700C37BD465DF8047B704700BF8664004080B400AF034B1B78DBB21846BD465DF8047B70476664004080B400AF5E
:4024C000034B1B78DBB21846BD465DF8047B70475664004080B500AF054B1B78002B04D100F008F8024B01221A7000F03FF880BDCB81FF1F80B582B000AF1A4B1B78DBB26E
:4025000023F03F03FB71174AFB7943F00A03DBB21370154A144B1B78DBB243F00103DBB21370012000F032F8012000F04DF8002000F05AF8002000F067F800F0E1FC034618
:40254000BB71094A084B1B78DBB243F01003DBB21370BB79184600F0D7FC00F027F80837BD4680BD796500409965004080B400AF054A054B1B78DBB263F07F03DBB213704D
:40258000BD465DF8047B70477965004080B483B000AF0346FB71044AFB7913700C37BD465DF8047B704700BF0965004080B500AF01E000F045F800F037F8034603F01003C1
:4025C000002BF6D180BD00BF80B483B000AF0346FB71044AFB7913700C37BD465DF8047B704700BF4965004080B483B000AF0346FB71044AFB7913700C37BD465DF8047B35
:40260000704700BF2965004080B483B000AF0346FB71044AFB7913700C37BD465DF8047B704700BF8965004080B400AF034B1B78DBB21846BD465DF8047B7047696500403D
:4026400080B400AF034B1B78DBB21846BD465DF8047B70475965004080B500AF054B1B78002B04D100F008F8024B01221A7000F03FF880BDCC81FF1F80B582B000AF1A4B24
:402680001B78DBB223F03F03FB71174AFB7943F00A03DBB21370154A144B1B78DBB243F00103DBB21370012000F032F8012000F04DF8002000F05AF8002000F067F800F09D
:4026C0001FFC0346BB71094A084B1B78DBB243F01003DBB21370BB79184600F015FC00F027F80837BD4680BD756500409565004080B400AF054A054B1B78DBB263F07F0342
:40270000DBB21370BD465DF8047B70477565004080B483B000AF0346FB71044AFB7913700C37BD465DF8047B704700BF0565004080B500AF01E000F045F800F037F803463D
:4027400003F01003002BF6D180BD00BF80B483B000AF0346FB71044AFB7913700C37BD465DF8047B704700BF4565004080B483B000AF0346FB71044AFB7913700C37BD4685
:402780005DF8047B704700BF2565004080B483B000AF0346FB71044AFB7913700C37BD465DF8047B704700BF8565004080B400AF034B1B78DBB21846BD465DF8047B7047FE
:4027C0006565004080B400AF034B1B78DBB21846BD465DF8047B70475565004080B500AF054B1B78002B04D100F008F8024B01221A7000F041F880BDCD81FF1F80B582B0AE
:4028000000AF1A4B1B78DBB223F03F03FB71174AFB7943F00A03DBB21370154A144B1B78DBB243F00103DBB21370012000F034F8012000F04FF8002000F05CF8002000F050
:4028400069F800F05DFB0346BB710A4A094B1B78DBB243F01003DBB21370BB79184600F053FB00F029F80837BD4680BD72640040956400409264004080B400AF054A054BB5
:402880001B78DBB263F07F03DBB21370BD465DF8047B70477264004080B483B000AF0346FB71044AFB7913700C37BD465DF8047B704700BF0564004080B500AF01E000F071
:4028C00045F800F037F8034603F01003002BF6D180BD00BF80B483B000AF0346FB71044AFB7913700C37BD465DF8047B704700BF4564004080B483B000AF0346FB71044A9D
:40290000FB7913700C37BD465DF8047B704700BF2564004080B483B000AF0346FB71044AFB7913700C37BD465DF8047B704700BF8264004080B400AF034B1B78DBB21846D2
:40294000BD465DF8047B70476264004080B400AF034B1B78DBB21846BD465DF8047B70475564004080B500AF022001214FF4804241F6FF7300F00EFA03461A460A4B1A7037
:402980000820012141F6FF7241F6FF7300F036FA03461A46054B1A70054800F063FA012000F072FA80BD00BFD481FF1FD581FF1F952B000080B582B000AF444B1B78184689
:4029C000FEF7D8FA424B1B781846FEF7D3FA414B1B78FF2B05D1FEF7DBFB03461A463D4B1A703C4B1A783B4B1B78104608211A460623FEF7FBFB374B1A78374B9BB21046CD
:402A000045F6A0311A46FEF731FC304B1A78314B1B7810461946FEF74DFB304B1B78FF2B05D1FEF7B5FB03461A462C4B1A702B4B1A782A4B1B78104608211A460723FEF78F
:402A4000D5FB264B1978244B9AB2254B9BB2084611461A46FEF70AFC1D4B1A781F4B1B7810461946FEF726FB184B1B7818460121FEF73AFA164B1B7818460121FEF734FA14
:402A800000F03EFA0346FB71164A164B1B78DBB243F02003DBB21370FB79184600F034FA114A114B1B78DBB243F00103DBB213700D4A0D4B1B78DBB243F00203DBB21370CD
:402AC0000A4B02221A600837BD4680BDD481FF1FD581FF1F2481FF1FD881FF1F2581FF1FF081FF1F936400407564004080E200E080B500AF074B1B68002B04D1FFF732FF7E
:402B0000044B01221A60FFF755FF00F049F8024B1B7880BDD081FF1F6764004080B500AF00F0EAF880BD00BF80B485B000AF0346FB71084B1B78FB73FB7B002B02D1FB79DC
:402B4000002BF6D0FB7B18461437BD465DF8047B704700BF6764004080B483B000AF0346FB80FB88C3F10303084A32F813309AB2074B1B889BB29BB2D31A9BB29BB21BB2E8
:402B800018460C37BD465DF8047B7047F081FF1F0082FF1F80B400AFBD465DF8047B704780B500AF054B1B78002B04D100F008F8024B01221A7000F019F880BDE081FF1FD8
:402BC00080B500AF074A074B1B78DBB243F00603DBB213700C2000F069F8034B00221A8080BD00BF01590040F881FF1F80B582B000AF00F085F90346FB71244A234B1B7886
:402C0000DBB243F00103DBB21370214A204B1B78DBB243F00103DBB213701E4B1B78BB71BB7943F00203BB71BB7943F00103BB71184ABB791370184B18221A70174A174B29
:402C40001B78DBB243F04003DBB21370134A134B1B78DBB223F00303DBB21370104BC8221A70104B02221A700F4A0F4B1B78DBB243F00803DBB213700A20FEF747FBFB79DC
:402C8000184600F041F90837BD4680BDAB430040BB4300400359004006590040055900400059004014460040275B004080B584B000AF0346FB71FB790A2B07D00C2B02D07D
:402CC000082B06D008E0C223FB7308E08223FB7305E04223FB7302E0C223FB7300BF054AFB7B1370FB79184600F016F81037BD4680BD00BF0259004080B400AF054A054B6E
:402D00001B78DBB243F00103DBB21370BD465DF8047B70470059004080B485B000AF0346FB71FB790A2B08D00C2B02D0082B08D00BE04FF48053FB600AE04FF48063FB60DC
:402D400006E04FF48073FB6002E00023FB6000BF0C4B00221A80FB6842F2107202FB03F303F6C413084A82FB0312D212DB17D31A064A1360064B00221A801437BD465DF8B4
:402D8000047B7047FA81FF1FAD8BDB68FC81FF1F0082FF1F90B585B002AF0446084611461A462346FB710346BB710B46BB8013467B80114B01221A700F4B1878F979BA7952
:402DC00000230093002301930123FEF791F90A4B1978BA887B88084611461A46FEF72CF9054B1B7818460221FEF7F6F8024B1B7818460C37BD4690BD2681FF1F90B585B022
:402E000002AF0446084611461A462346FB710346BB710B46BB8013467B80114B00221A700F4B1878F979BA7900230093002301930023FEF75DF90A4B1978BA887B8808467D
:402E400011461A46FEF7F8F8054B1B7818460221FEF7C2F8024B1B7818460C37BD4690BD2781FF1F80B485B000AF7860054B1B68FB60FB6844337A681A601437BD465DF815
:402E8000047B704708ED00E080B483B000AF0346FB71054AFB795B01DBB213700C37BD465DF8047B704700BF01E400E080B483B000AF0346FB71044AFB7913700C37BD4662
:402EC0005DF8047B704700BF7964004080B483B000AF0346FB71044AFB7913700C37BD465DF8047B704700BF74640040000000000230800803D000BF01380046FCD1704764
:402F0000EFF3108072B6704780F31088704700BF014B1868704700BF8881FF1F0E4B70B51E460E4C0025E41AA410A54204D056F8253098470135F8E700F094FB084B094CCA
:402F40001E46E41AA4100025A54204D056F8253098470135F8E770BD7036000070360000703600007836000010B5431E0A44914204D011F8014B03F8014FF8E710BD034647
:402F80000244934202D003F8011BFAE7704700000000000041444331200000004144433220000000004F00400C00505100402000F05100401000000001400010001401406F
:402FC000000800400140000A004C0140000210500140100000500140100E00481000000000000000000000001F000000000000001F1F0000000000001F1F1F00000000003D
:403000001F1F1F1F000000001F1F1F1F1F0000001F1F1F1F1F1F00001F1F1F1F1F1F1F002013002561178026010080260100802601008026E00E8026C20C802602008006EB
:403040006587186D6409183E00008026032080262102187FE60E8026C80C8026000080066B87186D6A09183E00008026012080262102187F000000000000000000000000F2
:403080000000000000000000000000000000000000000000000000000000000000000000000000000000000000000000000000000000000000000000000000000000000010
:4030C00000000000000000000000000000000000000000000000000000000000000000000000000000000000000000000000000000000000000000000000000000000000D0
:40310000000000000000000000000000000000000000000000000000000000000000000000000000000000000000000000000000000000000000000000000000000000008F
:40314000000000000000000000000000000000000000000000000000000000000000000000000000000000000000000000000000000000000000000000000000000000004F
:40318000000000000000000000000000000000000000000000000000000000000000000000000000000000000000000000000000000000000000000000000000000000000F
:4031C00000000000000000000000000000000000000000000000000000000000000000000000000000000000000000000000000000000000000000000000000000000000CF
:40320000000000000000000000000000000000000000000000000000000000000000000000000000000000000000000000000000000000000000000000000000000000008E
:40324000000000000000000000000000000000000000000000000000000000000000000000000000000000000000000000000000000000000000000000000000000000004E
:40328000000000000000000000000000000000000000000000000000000000000000000000000000000000000000000000000000000000000000000000000000000000000E
:4032C00000000000000000000000000000000000000000000000000000000000000000000000000000000000000000000000000000000000000000000000000000000000CE
:403300000000000000000000000000000000000000000000000000000000000000000000000000000000000000000000000000000300000007000000FBFFFF00DCFFFF00B0
:40334000E8FFFF0070000000EC000000C5FFFF00F8FCFF0012FDFF00D00400003D0D00004603000082E3FF00DDD5FF00ED0A0000C15E0000764400003B6EFF00E4A1FE00D0
:403380004B56FF0070C001006C690300650701002DFCFA00638CF700268DFE00A51811000CC3250082D12E000CC32500A5181100268DFE00638CF7002DFCFA006507010011
:4033C0006C69030070C001004B56FF00E4A1FE003B6EFF0076440000C15E0000ED0A0000DDD5FF0082E3FF00460300003D0D0000D004000012FDFF00F8FCFF00C5FFFF00E9
:40340000EC00000070000000E8FFFF00DCFFFF00FBFFFF0007000000030000000000000000000000000000000000000000000000FFFFFF00F5FFFF00140000008A000000DF
:403440001BFFFF007FFBFF007B050000681C000001ECFF002F68FF0009DEFF005FDA01007A51010086D6FA008805F800F07F0900D8B32A004B503C00D8B32A00F07F09003C
:403480008805F80086D6FA007A5101005FDA010009DEFF002F68FF0001ECFF00681C00007B0500007FFBFF001BFFFF008A00000014000000F5FFFF00FFFFFF00000000009F
:4034C00000000000000000000000000000000000000000000000000000000000000000000000000000000000000000000000000000000000000000000000000000000000CC
:403500000000000000000000000000000000000000000000000000000000000000000000422100000000000000000000E7330000C3210000C3210000000000000000000046
:40354000000000000000000000000000000000000000000000000000000000000000000021F8050144F80B4067F81B8081F80501A6F81901C2F807018561922109F92901ED
:4035800021F9050188A2A2210000000000000000000000000000000000000000000000000000000000000000000000000000000000000000000000000000000000000000FE
:4035C00000000000000000000000000000000000000000000000000000000000000000000000000000000000000000000000000000000000000000000000000000000000CB
:40360000000000000000000000000000000000000000000000000000000000000000000000000000000000000000000000000000000000000000000000000000000000008A
:40364000000000000000000000000000000000000000000000000000000000000000000043000000F8B500BFF8BC08BC9E4670474D00000011050000F8B500BFF8BC08BC41
:403680009E46704729000000983600000881FF1F880000007800000000000000807F000003000000006CDC0280BB0000300000000000C05DFFFFFFFF000000000000000001
:4036C0000000000000000000000000000000000000000000000000006036000000000000000000000000000000000000000000000000000000000000000000000000000034
:403700000000000000000000000000000000000000000000000000002881FF1F000000000000000000000000000000000000000000000000000000000000000000000000C2
:403740000000000000000000000000000000000000000000000000000000000000000000000000000000000000000000000000000000000000000000000000000000000049
:403780000000000000000000000000000000000000000000000000000000000000000000000000000000000000000000000000000000000000000000000000000000000009
:4037C00000000000000000000000000000000000000000000000000000000000000000000000000000000000000000000000000000000000000000000000000000000000C9
:403800000000000000000000000000000000000000000000000000000000000000000000000000000000000000000000000000000000000000000000000000000000000088
:020000040003F7
:0200000480007A
:40000000024F004004520040025B004006640040046500404500014039010140200201404A0301403D040140510501403E0601404A0701404908014040090140410A0140DF
:40004000530B01405A0C01404B0D01403B0E01402E0F01403314014046150140231601404E170140551801404C1901403B1A0140521B014011400140084101400842014016
:400080000A4301400444014002450140094601400547014006480140014901400C4C0140054D0140065001400251014001200A4B200321066010614027842F84800D820DC8
:4000C0008303860D8A0D8D1F850D880D890D8A0D060307010B010C18122020042209240426123004320333013420361838023F044020410645D14620480F49FF4AFF4BFF1D
:400100004DA04F04501852805405580859045A085B085C295D995F01604062C06440654066C068C06AC06CC06EC08101830285038C028E01910392039403950398039E0372
:400140009F03A003A103A503AC03B201B402B502B701D804D904DC22DF010044048006020A400C010D080E040F0210A014801740184419401A201C201E08220426402704CE
:40018000288029802B212FA030013108320933C034013580360838A43C083E024004482049024B205090531059425A0872407A0188108A40C085C2F8C49CCACBCCDBCECE4B
:4001C000D004D204D60BDE08E220E68052805405580459045B095C225D905F018B018C019004920896089B029E02A204A801B00CB101B201B302B402B808BE05D602D73AAA
:40020000D804D904DB0CDC22DD20DF010301048007040A210B400C410D080E061044112014A0184019041A041B202109220B288129802B202D802FA0311833803480360A5D
:40024000388039023AA03E8058045D015E405F086104681269106B4071507201778079407F048410854089108D108F4092209480960698809D80A404A508A601A7A0AC8462
:40028000B604B704C0C1C27DC43ACADBCCDECE1DD6D2D802DE28E008E408EA40EC02EE10070109010B022A012F02300135033F1052FF5610580459045B045C225D905F0192
:4002C00084038F01940496129A189C049E09A701AE20B003B204B420B501B618B808BF10C020C105C5D0C612C82EC9FFCAFFCBFFCDA0CF04D018D203D302D809D904DA0911
:40030000DB04DC09DD29DF01E040E2C0E440E540E6C0E8C0EAC0ECC0EEC0000801080382050408040A040D200F22111812021780188019011B021D641E401F10200427089B
:4003400029482A012F103004310133A0382039803B083F8045204D014F805751684069046AA06DE0701073527F04814082028304840486408B018C208F809040911092068E
:4003800094809541964097489BC09C209D809F0DA202A320A404A510A601A780A908B002B224C02DC2E6C487CA4BCC0FCE1ED020D210DE20E001E208E640E81108030F0162
:4003C00016181B011C041E12240426092E203003322034043501361838203F104030410545D046024710482E49FF4AFF4BFF4DA04F04501852805405580A59045A0A5B0AC0
:400400005C295D995F01604062C06440654066C068C06AC06CC06EC08E01900192029A029F01B501B603BA30BE40D401D808D904DB0FDC29DD20DF01014005100A880E2049
:400440000F021620178019801A081D981E6020082110270829402B202C042FE2301433423540361239203B803C083F8045084D024F805620574158805D025E405F087780FA
:40048000780179407F10808085048740880189409044910492A29310970898049A419B42A040A140A202A3A2A404A601A984AA01B501C041C2AAC4A0CAFACCBFCE5CD040C5
:4004C000D210D6D8DE49E603EA04EE0402080308060409070E01150118011B041E02240426083104320C33083502360337013E04580459095C995F018101850487088B08A2
:400500008E018F1091109320972098049B04A007A303B004B102B201B30CB402B501B730BF44C040C106C5D2C601C702C817C9FFCAFFCBFFCDA0CF04D018D20FD610D808D4
:40054000D90DDA08DB04DC29DD99DF01E040E2C0E440E540E6C0E8C0EAC0ECC0EEC003020408054007400A040D601080170819041A441D401E101F802121226426402764F7
:400580002B803020310433013724382039463C023F2043024818490150885A9A69056B0979607F088220891090049540964099809C109D01A001A302A410A580A708A92097
:4005C000B740C0B1C2C2C428CA01CC67CEAFD001D204D60FDE2CE420E602EC40EE040104055607090A010B040D040E011101150A171019041D04216029072B382D04317FD3
:40060000320139023E0452805405580459045B085D905F01808082408401851088408A808B088E01901092209304940497119A089D049E04A002A320A420A508A610A8085C
:40064000AB02AD02AE02B301B53EB6FFB920BE40BF10D280D804D904DB09DC20DD90DF01002003020480058806640D800E080FA01465178119041F402201242425242614C7
:400680002704280229202A012C102D802E202F4030203108324134043610378139A13A083D083FA159055A407102740179407F0880088204830185808A018E048F109080D5
:4006C00091A1928094249540986799289A499B109C109F04A020A108A312A408A506A740A840AA80AD04B001B240B380B740C0F3C2F0C4F0CAFDCCFFCEFFD60BDE28E2401F
:40070000E660E818ECA0040410091202140E1601180C340736083A203E40403241064250440149FF4AFF4BFF4C024E704F0850045409580459045A045B045C205F0162C011
:40074000644065016610671168C069016B116C406D016E406F018133834C85E09201955597AA99499B969D029F0DB001B3F0B70FB908BB80C032C104C250C401C5DEC6F03A
:40078000C7BCC83BC9FFCAFFCBFFCC23CEF0CF08D004D602D720D808D904DA04DB04DC09DF01E2C0E440E501E610E711E8C0E901EB11EC40ED01EE40EF0104080720090254
:4007C0000D090E081B021C081D601E08210422802C082E803128328034113704390A3D083F8041294208434045284740488049804A014B044DA05004522158025A015E82CF
:400800005F2462806540686269216A846B0872017940844488208D088F10918294AC9520960599A09B109F88A108A240A4EEA624A740AA10AC02B121C020C278CA30CCEEA5
:40084000CE53D07FD238D6F0D818DE08E0D0E801019803230408051006E0084409100A080BC40C370DC10F06100811C4123413101509168017C6183719C41B101C3721D411
:400880002202243725E7271828082AD02C342DD42E03303C319832C033783402360137073A023B883E505440580459045B045F0194019A01A201B001B908BE01BF04D804F9
:4008C000D904DC22DF0100880120030204A40602078408400A550C100D080E080F8010821208130914021502162019801A501B101E8021492208271028502B022C082E22EC
:400900003022310834023784380839A23C043F8062206321C0F7C27FC4BFCAABCCD7CE5FD80E580459045B045C225F018F01961898039C049E12A404A609AB01AE20B003D2
:40094000B220B404B501B618B820BF10C030C105C5D0C602C710C82EC9FFCAFFCBFFCDA0CF04D018D280D405D808D904DA08DB08DC09DD99DF01E040E2C0E440E540E6C0C6
:40098000E8C0EAC0ECC0EEC00214030208400A020D080E080F0210101241162017801D081E481F8827082A412F083050332239283A143F8045084F815620574159985B02E1
:4009C0005E405F0960446280632077807C808001810882408310850487028A018F22904691289282988099909A419C40A280A322A780AC40B602C007C2E1C4ADCA29CC0D54
:400A0000CE16D040D210D6DFD80FDE10E008E602E802EC20580459045C225F0186088A048E20940496089A109E02A001A202A302A410A620A901AA01AB02AF01B003B40C26
:400A4000B630B703BA0CBE51BF40D2FFD618D809D904DB04DC29DD90DF010118020205400641071009800A280C400D100E40110513101480150816801702180219181A80A4
:400A80002280281029202A802B802E402F62314033323410354039283A683B803E284A014B405B406301673C69526A086B2073567910834089018B208F019044912D9222BC
:400AC00095409728981099A09A419D40A040A180A322A601AC10AD01AE01AF10B004B520B702C0B7C2D7C42ECADFCC3DCE6ED608D808DE04EC400602140116021A0426010C
:400B00002A04340436033A0C3B303E504020410445D24612480F49FF4AFF4BFF4DA04F0450185405580A59085A095B095C995D995F01604062C06440654066C068C06AC038
:400B40006CC06EC08E18922093019803A004A212A404A609A701B020B218B301B404B603B820BF04C040C106C5D2C601C702C81FC9FFCAFFCBFFCDA0CF04D018D280D40560
:400B8000D80AD904DA0ADB0ADC29DD99DF01E040E2C0E440E540E6C0E8C0EAC0ECC0EEC00302050409020A040D080F081080121014101720182019401A041B021D841E0802
:400BC00022042510280229082A023044312033023440358038043A01430246404720480849094F09508852105640571059415A085E885F01710279047E227F0888108A2279
:400C00008D4090049101942895C09602980299809B20A240A420A718B012B180C021C26AC46CCA0BCC0FCE03D0A1D204D6DBDE72E020E430E820EC40010203040B010E03DD
:400C40000F0112201302181824042609270428042A1230203106320333013404361838203F054040410245D046204701481B49FF4AFF4BFF4DA04F045018528054055808FA
:400C800059045A085B085C295D995F01604062C06440654066C068C06AC06CC06EC0D20FD610D804D904DB04DC22DD90DF0100400404058009020A040F98100812201402C3
:400CC00015021740184019441A04220529842A012B842D802F8030043120334234023640386439013C043E023F10404041104520460849014A205018511059415A086C24D1
:400D00006D446E026F0871027A017B0284048580871089018A488E038F4490049101940895449602980299809C049E03A180A420A520A708AD08B510C0A1C27AC496CA9F72
:400D4000CC9FCEEFD005D60BDE08E060E440EC20EE1011021680318037403B023E8052405502570858208A408B08C430CC30CE60D4E0D620080297029F40A101A580B42073
:400D8000B502C21059018D0197029F40A101A580B402D6401901834085809F40A101A580AB01C610E6C0EE2073207F02DC01DE04A702AB201B04272088808B20AF02C6081A
:400DC000C801E004E604440187109880AB04D00425028101A101B501C880E480B1021F10340138209020972098809C01B410C601CC01CE08EC0278809880B001DC01EC0403
:400E0000100411011A041B011C041D01000F100A0501000000000000040104010501050180001000000000008000000000000070700070000000000000000000000020004F
:400E4000007F7F000000000000000000000F8F00000100000000000000000000000000000000000000000000000000000000000000000000000000000000000000000000D5
:400E80000000000000000000000000000000000000000000000000000000000000000000000000000000000000000000000000000000000000000000000000000000000032
:400EC00000000000000000000000000000000000000000000000000000000000000000000000000000000000000000000000000000000000000000000000000000000000F2
:400F000000000000000000000000000000000000000000000000000000000000000000000000000000000000000000000000000000000000000000000000000000000000B1
:400F40000000000000000000000000000000000000000000000000000000000000000000000000000000000000000000000000000000000000000000000000000000000071
:0200000490006A
:040000000080400735
:0200000490105A
:04000000BC90ACAF55
:0200000490303A
:02000000887105
:0200000490402A
:4000000000000000000000000000000000000000000000000000000000000000000000000000000000000000000000000000000000000000000000000000000000000000C0
:400040000000000000000000000000000000000000000000000000000000000000000000000000000000000000000000000000000000000000000000000000000000000080
:400080000000000000000000000000000000000000000000000000000000000000000000000000000000000000000000000000000000000000000000000000000000000040
:4000C0000000000000000000000000000000000000000000000000000000000000000000000000000000000000000000000000000000000000000000000000000000000000
:0200000490501A
:0C00000000012E12306900012E2AB8DA2F
:00000001FF