:400000000080002011000000D1030000D103000080B500AF024A034B1B68136000F0E2F9BC760040FA46004010B5054C237833B9044B13B10448AFF300800123237010BD94
:400040009081FF1F00000000602F0000084B10B51BB108480849AFF300800848036803B910BD074B002BFBD0BDE81040184700BF00000000602F00009481FF1F0881FF1F13
:400080000000000080B584B000AF0023FB8101F0E1FA01F039FB00F073F900F0CFFC01F015FC01F075F902F01BFD02F02FFD01F08FFC62B602F02AFD0020002100F0CEFC50
:4000C0004E4800F001FD0120002100F0C7FC4C4800F0FAFC012002F01FFD0346002B35D0002002F031FD03469BB201339AB2454B1A80444B1B88184601F0E4FD414B1B8854
:400100009B089BB2184601F0EDFD022002F01CFD03469AB23C4B1A803B4B1B88DBB2184602F0BCFE384B1B881B099BB2DBB2184602F0B4FE012002F007FD03469BB21846C2
:4001400000F06EF803461A46304B1A802F4B1A882F4B1A80012001F0D7F90346002B33D001F0F2F903469AB22A4B1A80294B1B887B73284B1B881B0A9BB23B737B7B1846D3
:4001800001F0D6FC3B7B184601F0E2FC01F0FCFC0346FB7201F0ECFC03463B813B891B029AB2FB7A9BB213439BB2FB801A4B1A88FB881340BB80BB886FEA03536FEA135346
:4001C0009BB2184601F040FCFB89052B11D10020052100F043FC0B4B1B88184600F014FE0120052100F03AFC0C4B1B88184600F00BFEFB890133FB816CE700BF642F00002C
:400200006C2F0000BC81FF1FAE81FF1FAC81FF1FB081FF1FBA81FF1FB681FF1FB481FF1F80B485B000AF0346FB80FB88DB08FB80FB881F2B00F2998001A252F823F000BF8C
:40024000C1020000C9020000D1020000D9020000E1020000E9020000F1020000F9020000010300000903000011030000190300002103000029030000310300003903000086
:400280003F030000450300006B0300006B0300006B0300006B0300006B0300006B0300006B0300006B0300006B0300004B03000051030000570300005D0300006303000014
:4002C0004FF6FF73FB8153E04FF6FE73FB814FE04FF6FC73FB814BE04FF6F873FB8147E04FF6F073FB8143E04FF6E073FB813FE04FF47D63FB813BE04FF47C63FB8137E0A0
:400300004FF47B63FB8133E04FF47A63FB812FE04FF47963FB812BE04FF47863FB8127E04FF47763FB8123E04FF47663FB811FE04FF47563FB811BE04FF47463FB814FF47D
:400340007063FB814FF46063FB814FF45063FB814FF44063FB814FF43063FB814FF42063FB814FF40063FB8102E04FF6FF73FB81FB8918461437BD465DF8047B704700BF93
:4003800080B500AF01F07AFC02F0AAF902F06CFA02F020F801F0D4FD01F05AFF01F094FE02F0DCF801F00AFD01F0FAFB02F04CF902F00CFA01F0C2FF01F076FD01F0FAFE9A
:4003C00001F034FE02F07CF801F0ACFC00BF80BD80B500AF02F084FD03461B680C2B00D1FEE7FEE780B586B000AF224B7B61224B3B61204B7B6135E03B691B68FB603B69FC
:400400005B68BB603B699B683B6000237B600CE0FB681A68BB681A60BB680433BB60FB680433FB607B6804337B607A683B689A42EED13B69DB683B6000237B6008E0BB6826
:4004400000221A60BB680433BB607B6804337B607A683B689A42F2D13B6910333B617B69013B7B617B69002BC6D102F03FFDFFF709FEFEE7010000006436000080B582B01B
:4004800000AF184B184A1A60184A184B1B6843F40073136000237B600FE07B68032B04D8134A7B6852F8233000E0124B12497A6841F822307B6801337B607B682F2BECD939
:4004C0000E4B1B78DAB20E4B1A700E4B0A4A1A6000F08EF900F0CEFC0B4B00221A600837BD4680BD0CED00E00004FA0514ED00E000000000D10300000080FF1FBC76004037
:400500000481FF1F08ED00E00081FF1F80B582B000AF78603960786800213A6802F017FD0837BD4680BD00BF80B584B000AFF860B9607A60F868B9687A6802F0FDFC10373E
:40054000BD4680BD80B483B000AF0346FB71FEE780B487B000AF7860396000233B6100237B6127E07B699B007A6813441B68BB60BB68FB73BB6823F0FF03BB6014E03B6969
:400580005B003A6813441B781A46BB68134419463B695B003A6813445B780B703B6901333B61FB7B013BFB73FB7B002BE7D17B6901337B617B69292BD4D91C37BD465DF864
:4005C000047B704780B582B000AF364B01221A80354B18221A70354B03221A80344B18221A70344B24221A80334B18221A70334B02221A704FF0402308221A70304B0422E7
:400600001A70304B304A1278D2B21A702F4B4FF471621A802E4B41F251221A800023FB7019237B6014E0FB785B00DAB2294B1B78DBB203F00103DBB21343DBB203F00303D9
:40064000FB704FF4F07002F03BFC7B68013B7B607B68002B02D0FB78032BE4D17B68002B02D10320FFF76EFF1B4B4FF480721A80194B07221A70194B00221A70184B482283
:400680001A70154B00221A70164B02221A70164A154B1B78DBB243F00703DBB213700837BD4680BD80400040824000408440004086400040884000408A4000400043004048
:4006C00000420040A14600408901004922420040204200402542004004400040064000400840004001400040A243004080B582B000AF2C4B1B78FB712B4B1B78BB712B4B22
:400700001B787B712A4AFB7903F00703DBB21370284AFB791B09DBB21370234ABB7943F00303DBB21370214A7B7943F00303DBB21370214B45F281021A80204B40221A7082
:400740001F4B95221A701F4B40221A701E4B40221A701E4B80221A701D4B50221A701D4B20221A701C4B40221A701C4B20221A701B4B4FF482721A801A4B40F209121A80ED
:40078000194B80221A700A2000F0B4FD074A7B791370054ABB791370144B44221A700837BD4680BDCF010049F8460040F94600406E5800406F5800400C5100403D510040B4
:4007C0004D510040015900400359004009590040205B0040235B0040285B00402B5B0040425B0040445B0040585B00407658004080B586B000AF72B60023FB7513E0FA7D45
:4008000013465B0013445B004E4A13443B613B691A683B699B889BB210461946FFF776FEFB7D0133FB75FB7D062BE8D90023FB751CE0FA7D13469B0013445B00424A134459
:40084000FB60FB681B68BB60FB685B687B60FB681A7A5B7A1B0213437B807B88B86879681A46FFF761FEFB7D0133FB75FB7D002BDFD04FF090403549FFF76AFE344804212E
:40088000FFF744FE334834490422FFF74DFE334A324B1B78DBB243F00203DBB21370304A2F4B1B78DBB243F00203DBB213702D4A2C4B1B78DBB243F04003DBB213702A4ADB
:4008C000294B1B78DBB243F01003DBB21370274827490A22FFF728FE264827490822FFF723FE264826490822FFF71EFE254826490A22FFF719FE254825490822FFF714FE8D
:40090000244825490822FFF70FFE244A234B1B78DBB243F00803DBB21370214B01221A70FFF750FE1E4BC1221A701E4B01221A70FFF7DCFE1C480B490E22FFF7F5FD18372E
:40094000BD4680BD742F0000A02F0000A80000480076004008760040400E00480350014013500140A0430040C243004000510040080E0048C2510040140E0048F2510040FC
:400980001C0E004810510040240E004822510040300E004842510040380E0048224300400048004004000840B043004080B500AF282000F07DFC032000F0DAF9052000F0D4
:4009C00077FC032000F0D4F90F2000F071FC032000F0CEF9012000F06BFC022000F0C8F9052000F065FC062000F0B0F80E2000F0ADF82C2000F0AAF8082000F0A7F8012046
:400A000000F0A4F80C2000F0A1F8032000F09EF8052000F04DFC024800F00AFA80BD00BFBC2F000080B500AF0C2000F08FF8024B01221A7080BD00BFBE81FF1F80B500AF8B
:400A4000054B1B78002B04D1FFF7B0FF024B01221A70FFF7E7FF80BDBF81FF1F80B582B000AF03460A46FB711346BB71FB79032B26D801A252F823F0890A0000970A000009
:400A8000A50A0000B30A0000BB79803BDBB2184600F05CF815E0BB79403BDBB2184600F055F80EE0BB796C3BDBB2184600F04EF807E0BB792C3BDBB2184600F047F800E07A
:400AC00000BF0837BD4680BD80B584B000AF78600123FB737B681B78BB730BE0BB7B184600F01AF8FB7B7A6813441B78BB73FB7B0133FB73BB7B002BF0D11037BD4680BDE0
:400B000080B582B000AF0346FB71FB79184600F003F80837BD4680BD80B584B000AF0346FB7100F02DF8FB791B09FB73FB7B184600F0E2F8FB7903F00F03FB73FB7B18466D
:400B400000F0DAF81037BD4680BD00BF80B584B000AF0346FB7100F013F8FB791B09FB73FB7B184600F004F9FB7903F00F03FB73FB7B184600F0FCF81037BD4680BD00BFF9
:400B800080B582B000AF4FF4CA737B60554A554B1B78DBB223F07F03DBB21370524B1B78DBB223F00F03FB704F4AFB7843F00F03DBB213704D4B1B78DBB223F00F03FB70CA
:400BC0004A4AFB7813704A4B1B78DBB223F00F03FB70474AFB781370424A424B1B78DBB223F02003DBB213703E4A3E4B1B78DBB243F04003DBB21370002000F07BFB394A60
:400C0000384B1B78DBB243F01003DBB21370012000F070FB374B1B78FB70324A314B1B78DBB223F01003DBB21370002000F062FBFB7803F00803FB702A4A2A4B1B78DBB21F
:400C400043F01003DBB21370012000F053FB254A244B1B78DBB223F01003DBB21370FB78002B02D10A2000F045FB7B68013B7B60FB78002B02D07B68002BBDD1194A194BF3
:400C80001B78DBB223F04003DBB21370154A154B1B78DBB223F07F03DBB21370124A124B1B78DBB223F00F03DBB213700F4B1B78DBB223F00F03FB700C4AFB7843F00F0304
:400CC000DBB213700A4B1B78DBB223F00F03FB70074AFB7843F00F03DBB213700837BD4680BD00BF205100402251004023510040245100402151004080B582B000AF0346AA
:400D0000FB711A4A194B1B78DBB243F02003DBB21370164A154B1B78DBB223F04003DBB21370002000F0E6FA104A104B1B78DBB223F00F03DBB213700C490C4B1B78DAB2EE
:400D4000FB791343DBB243F01003DBB20B70012000F0D0FA054A054B1B78DBB223F01003DBB213700837BD4680BD00BF2051004080B582B000AF0346FB71144A134B1B78F5
:400D8000DBB223F06003DBB21370104A0F4B1B78DBB223F00F03DBB213700C490B4B1B78DAB2FB791343DBB243F01003DBB20B70012000F09FFA054A044B1B78DBB223F02D
:400DC0001003DBB213700837BD4680BD2051004080B582B000AF0346FB71FB791B09DBB21A46084B9B5C1846FFF78AFEFB7903F00F03044AD35C1846FFF782FE0837BD461E
:400E000080BD00BFAC2F000080B582B000AF0346FB80FB881B0A9BB2DBB21846FFF7D8FFFB88DBB21846FFF7D3FF0837BD4680BD80B584B000AF7860FFF7A2FE4020FFF7C3
:400E400085FE0023FB7309E0FB7B7A6813441B781846FFF761FEFB7B0133FB73FB7B3F2BF2D9FFF78DFE8020FFF770FE1037BD4680BD00BF80B483B000AF134B7F221A7053
:400E8000124B80221A707F23FB710CE0FB79DB0003F1804303F5F043FA79013AD2B21A70FB79013BFB71FB79002BEFD1FB79DB0003F1804303F5F04300221A700C37BD4624
:400EC0005DF8047B704700BF0D81FF1F0C81FF1F80B485B000AF03460A46FB711346BB710123FB60FB79172B2FD8BB79002B0ED0FB791A01184B1344FA791101164A0A44BA
:400F00001278D2B242F02002D2B21A700DE0FB791A01114B1344FA7911010F4A0A441278D2B222F02002D2B21A70FB791A010A4B1344FA791101084A0A441278D2B242F0F6
:400F40000102D2B21A700023FB60FB6818461437BD465DF8047B70471070004080B485B000AF0346FB710123FB60FB79172B1DD8FB791A01114B1344FA7911010F4A0A4423
:400F80001279D2B242F00402D2B21A71FB791A010A4B1344FA791101084A0A441278D2B242F00102D2B21A700023FB60FB6818461437BD465DF8047B704700BF1070004093
:400FC00080B485B000AF03460A46FB711346BB710123FB60FB79172B18D8FB791A010F4B13441B78DBB223F00E03FB72FB791A010A4B1344BA7902F00702D2B25200D1B277
:40100000FA7A0A43D2B21A700023FB60FB6818461437BD465DF8047B704700BF1070004080B485B000AF0346FB710B46BB8013467B800123FB60BB8841F6FF72934202D18B
:401040004FF40053BB807B8841F6FF72934202D14FF400537B80FB79172B17D8FB79DB0003F1804303F5EC430433BB60BB68BA881A80FB79DB0003F1804303F5EC43063332
:40108000BB60BB687A881A800023FB60FB6818461437BD465DF8047B704700BF80B485B000AF03460A46FB711346BB710123FB60FB79172B07D8FB791A01064B1344BA795F
:4010C0005A720023FB60FB6818461437BD465DF8047B70471070004090B484B000AF0446084611461A462346FB710346BB710B467B7113463B710123FB60FB79172B34D809
:40110000FB79DB0003F1804303F5EC43BA7902F07F02D1B27A79D201D2B20A43D2B21A70FB79DB0003F1804303F5EC433A7E1201D1B23A7902F00F02D2B20A43D2B25A7064
:40114000FB79DB0003F1804303F5EC433A7F02F00F02D2B29A70FB79DB0003F1804303F5EC430022DA700023FB60FB6818461037BD4690BC704700BF80B582B000AFFF23DC
:40118000FB7101F0A5FE0346BB71104B1B78182B12D90F4B1B78FB710C4B1B78013BDAB20A4B1A70FB79DB0003F1804303F5F0431B78DAB2064B1A70BB79184601F08CFE7C
:4011C000FB7918460837BD4680BD00BF0C81FF1F0D81FF1F90B484B000AF0446084611461A462346FB710346BB800B46BB711346FB700123FB60FB795BB2002B23DBBB880C
:4012000023F47F6323F00F039BB2002B1BD1FB79DB0003F1804303F5F043BB60BB68BA881A80FB79DB0003F1804303F5F043BA799A70FB79DB0003F1804303F5F043FA78D0
:40124000DA700023FB60FB6818461037BD4690BC704700BF80B485B000AF0346FB710B46BB8013467B800123FB60FB795BB2002B17DBFB79DB0003F1804303F5F0430433A7
:40128000BB60BB68BA881A80FB79DB0003F1804303F5F0430633BB60BB687A881A800023FB60FB6818461437BD465DF8047B704780B582B000AF786008E00C4B1B681846AA
:4012C00001F0FEFD7B68A3F500437B607B68B3F5004FF2D8064B1B687A6802FB03F3184601F0EEFD0837BD4680BD00BF2081FF1F1881FF1F80B582B000AF0346FB80FB88D1
:40130000044A127802FB03F3184601F0D9FD0837BD4680BD1C81FF1F80B485B000AF03463960FB710D4B1B68FB60FB7903F01F0310339B00FA6813441B68BB60FB7903F0C2
:401340001F0310339B00FA6813443A681A60BB6818461437BD465DF8047B704708ED00E080B483B000AF03460A46FB711346BB71FB7903F01F0303F1604303F56443BA79D7
:401380005201D2B21A700C37BD465DF8047B704780B500AF054B1B78002B04D100F008F8024B01221A7000F023F880BDC081FF1F80B500AF00200721FFF7D2FF002009493E
:4013C000FFF7AAFF084A084B1B78DBB243F00603DBB213700C2000F071F8044B00221A8080BD00BFF515000009590040F081FF1F80B582B000AF01F06BFD0346FB71264AE2
:40140000254B1B78DBB243F00203DBB21370234A224B1B78DBB243F00203DBB21370204B1B78BB71BB7943F00203BB71BB7943F00103BB711A4ABB7913701A4B18221A70F5
:40144000194A194B1B78DBB243F04003DBB21370154A154B1B78DBB223F00303DBB21370124BCE221A70124B02221A70114A114B1B78DBB243F00803DBB213700A20FFF7D0
:4014800039FF0D4B01221A60FB79184601F024FD0837BD4680BD00BFAB430040BB4300400B5900400E5900400D59004008590040164600402F5B004080E200E080B584B0CE
:4014C00000AF0346FB71FB790A2B07D00C2B02D0082B06D008E0C223FB7308E08223FB7305E04223FB7302E0C223FB7300BF054AFB7B1370FB79184600F040F81037BD4688
:4015000080BD00BF0A59004080B584B000AF0346FB710C4B1B78DBB203F00103FB73FB7B012B02D0FB79002BF3D0FB7B012B04D10120FFF7DFFE034B1B78FB7B1846103726
:40154000BD4680BD0959004080B483B000AF094B1B88FB80084B1B889BB29BB2FA88D31A9BB29BB21BB218460C37BD465DF8047B704700BFA25B0040EA81FF1F80B485B07E
:4015800000AF0346FB71FB790A2B08D00C2B02D0082B08D00BE04FF48053FB600AE04FF48063FB6006E04FF48073FB6002E00023FB6000BF0C4B00221A80FB6842F21072A9
:4015C00002FB03F303F58063002B01DA03F2FF73DB121A46054B1A60054B00221A801437BD465DF8047B7047E881FF1FEC81FF1FEA81FF1F80B400AFBD465DF8047B7047A8
:4016000080B500AF032000F035F880BD80B400AF0D4A0D4B1B78DBB243F06003DBB213700A4A0A4B1B78DBB243F00203DBB21370074A074B1B78DBB243F00203DBB21370D5
:40164000BD465DF8047B704777580040A4430040B443004080B500AF054B1B78002B04D1034B01221A70FFF7CBFFFFF7CFFF80BDC181FF1F80B483B000AF0346FB710C4A6B
:401680000B4B1B78DBB223F00303DBB213700849074B1B78DAB2FB7903F00303DBB21343DBB20B700C37BD465DF8047B704700BF5A58004080B500AF032000F035F880BD8E
:4016C00080B400AF0D4A0D4B1B78DBB243F06003DBB213700A4A0A4B1B78DBB243F00403DBB21370074A074B1B78DBB243F00403DBB21370BD465DF8047B704777580040D5
:40170000A4430040B443004080B500AF054B1B78002B04D1034B01221A70FFF7CBFFFFF7CFFF80BDC281FF1F80B483B000AF0346FB710C4A0B4B1B78DBB223F00303DBB22A
:4017400013700849074B1B78DAB2FB7903F00303DBB21343DBB20B700C37BD465DF8047B704700BF5C580040F8B500AF354A354B1B78DBB243F01003DBB21370324A324B7E
:401780001B78DBB223F00103DBB213702F4B3F221A702F4B3F221A702E4A2F4B11461A464FF48073084611461A4601F0C5FB2B4A294B11461A464FF48073084611461A46A8
:4017C00001F0BAFB264A274B11461A464FF48073084611461A4601F0AFFB234A234B11461A464FF40073084611461A4601F0A4FB1F4A204B11461A464FF400730846114611
:401800001A4601F099FB1C4B1C4A14461E4604F1400E35462346186859689A68DB680FC5103410367445F4D1094B00221A70002000F05CF8052000F06DF8114BF8221A70D1
:40184000F8BD00BFA643004080C7004088C700408CC7004000C40040FC2F000000C5004000C600403C35000000C00040FC30000000C20040FC32000000C70040FC340000E4
:4018800084C7004080B400AF0D4A0D4B1B78DBB243F01003DBB213700A4A0A4B1B78DBB243F01003DBB21370074A074B1B78DBB243F00103DBB21370BD465DF8047B7047DE
:4018C000A6430040B643004080C7004080B500AF054B1B78002B04D1FFF746FF024B01221A70FFF7CFFF80BDC381FF1F80B483B000AF0346FB71FB7903F01F03FB71044A92
:40190000FB7913700C37BD465DF8047B704700BF98C7004080B483B000AF0346FB71FB7903F00F03FB71044AFB7913700C37BD465DF8047B704700BF9CC7004080B500AF75
:40194000074B1F221A7000F099F800F05DF800F06BF8044B08221A70034B00221A7080BD87640040846400408364004080B582B000AF01F0ADFA0346FB71124A114B1B78CF
:40198000DBB243F02003DBB213700F4A0E4B1B78DBB243F01003DBB213700C4A0B4B1B78DBB243F01003DBB21370FB79184601F093FA00F0A3F800F01BF800F01FF80837C6
:4019C000BD4680BD97640040946400409364004080B500AF054B1B78002B04D1FFF7AEFF024B01221A70FFF7C1FF80BDC481FF1F80B400AFBD465DF8047B704780B400AFEF
:401A0000BD465DF8047B704780B483B000AF054B1B78FB71FB7918460C37BD465DF8047B704700BF6464004080B483B000AF054B1B78FB71FB7918460C37BD465DF8047BF8
:401A4000704700BF6364004080B483B000AF0346FB8000BF074B1B78DBB203F00403002BF8D0054AFB8813800C37BD465DF8047B704700BF646400404864004080B582B0A1
:401A800000AF01E0194B1B88194B1B78DBB203F02003002BF6D101F01BFA0346FB71154A144B1B78DBB243F00103DBB21370114A104B1B78DBB223F00103DBB213700E4ACE
:401AC0000D4B1B78DBB243F00103DBB213700A4A094B1B78DBB223F00103DBB21370FB79184601F0F9F90837BD4680BD5864004063640040986400409964004080B400AFA5
:401B0000094A094B1B78DBB243F00103DBB21370064A064B1B78DBB243F00103DBB21370BD465DF8047B7047A2430040B243004080B483B000AF0346FB71044AFB79137097
:401B40000C37BD465DF8047B704700BF7465004080B483B000AF0346FB71044AFB7913700C37BD465DF8047B704700BF7664004080B400AF034B1B78DBB21846BD465DF8FB
:401B8000047B70476564004080B400AF034B1B78DBB21846BD465DF8047B70476465004080B500AF054B1B78002B04D100F008F8024B01221A7000F061F880BDC581FF1F05
:401BC00080B582B000AF284A274B1B78DBB243F00203DBB21370254B1B78DBB223F07003FB71224AFB7943F02003DBB21370204A1F4B1B78DBB223F03003DBB213701C4A0B
:401C00001B4B1B78DBB243F03003DBB21370184A174B1B78DBB223F00F03DBB21370144A134B1B78DBB243F00F03DBB21370012000F048F8002000F055F8002000F062F846
:401C40000C4A0C4B1B78DBB243F00103DBB21370094A094B1B78DBB243F00103DBB213700837BD4680BD00BF004F0040024F00400B4F0040A3430040014F004080B400AFB1
:401C80000D4A0D4B1B78DBB243F00103DBB213700A4A0A4B1B78DBB243F00103DBB21370074A074B1B78DBB243F00103DBB21370BD465DF8047B7047A3430040B34300400A
:401CC000004F004080B483B000AF0346FB80044AFB8813800C37BD465DF8047B704700BF044F004080B483B000AF0346FB80044AFB8813800C37BD465DF8047B704700BF26
:401D0000064F004080B483B000AF0346FB71044AFB7913700C37BD465DF8047B704700BF034F004080B500AF054B1B78002B04D100F008F8024B01221A7000F03FF880BDC7
:401D4000C681FF1F80B582B000AF1A4B1B78DBB223F03F03FB71174AFB7943F00A03DBB21370154A144B1B78DBB243F00103DBB21370012000F032F8012000F04DF80020A7
:401D800000F05AF8002000F067F801F0A1F80346BB71094A084B1B78DBB243F01003DBB21370BB79184601F097F800F027F80837BD4680BD766500409665004080B400AF7E
:401DC000054A054B1B78DBB263F07F03DBB21370BD465DF8047B70477665004080B483B000AF0346FB71044AFB7913700C37BD465DF8047B704700BF0665004080B500AF67
:401E000001E000F045F800F037F8034603F01003002BF6D180BD00BF80B483B000AF0346FB71044AFB7913700C37BD465DF8047B704700BF4665004080B483B000AF03464E
:401E4000FB71044AFB7913700C37BD465DF8047B704700BF2665004080B483B000AF0346FB71044AFB7913700C37BD465DF8047B704700BF8665004080B400AF034B1B78C7
:401E8000DBB21846BD465DF8047B70476665004080B400AF034B1B78DBB21846BD465DF8047B70475665004080B500AF054B1B78002B04D100F008F8024B01221A7000F0C5
:401EC0003FF880BDC781FF1F80B582B000AF1A4B1B78DBB223F03F03FB71174AFB7943F00A03DBB21370154A144B1B78DBB243F00103DBB21370012000F032F8012000F016
:401F00004DF8002000F05AF8002000F067F800F0DFFF0346BB71094A084B1B78DBB243F01003DBB21370BB79184600F0D5FF00F027F80837BD4680BD7A6500409A650040EA
:401F400080B400AF054A054B1B78DBB263F07F03DBB21370BD465DF8047B70477A65004080B483B000AF0346FB71044AFB7913700C37BD465DF8047B704700BF0A650040DE
:401F800080B500AF01E000F045F800F037F8034603F01003002BF6D180BD00BF80B483B000AF0346FB71044AFB7913700C37BD465DF8047B704700BF4A65004080B483B0DD
:401FC00000AF0346FB71044AFB7913700C37BD465DF8047B704700BF2A65004080B483B000AF0346FB71044AFB7913700C37BD465DF8047B704700BF8A65004080B400AF27
:40200000034B1B78DBB21846BD465DF8047B70476A65004080B400AF034B1B78DBB21846BD465DF8047B70475A65004080B500AF054B1B78002B04D100F008F8024B0122D4
:402040001A7000F041F880BDC881FF1F80B582B000AF1A4B1B78DBB223F03F03FB71174AFB7943F00C03DBB21370154A144B1B78DBB243F00103DBB21370012000F034F824
:40208000012000F04FF8002000F05CF8002000F069F800F01DFF0346BB710A4A094B1B78DBB243F01003DBB21370BB79184600F013FF00F029F80837BD4680BD7A64004012
:4020C000996500409A64004080B400AF054A054B1B78DBB263F07F03DBB21370BD465DF8047B70477A64004080B483B000AF0346FB71044AFB7913700C37BD465DF8047B07
:40210000704700BF0965004080B500AF01E000F045F800F037F8034603F01003002BF6D180BD00BF80B483B000AF0346FB71044AFB7913700C37BD465DF8047B704700BF8D
:402140004965004080B483B000AF0346FB71044AFB7913700C37BD465DF8047B704700BF2965004080B483B000AF0346FB71044AFB7913700C37BD465DF8047B704700BF63
:402180008A64004080B400AF034B1B78DBB21846BD465DF8047B70476A64004080B400AF034B1B78DBB21846BD465DF8047B70475965004080B500AF054B1B78002B04D1A4
:4021C00000F008F8024B01221A7000F041F880BDC981FF1F80B582B000AF1A4B1B78DBB223F03F03FB71174AFB7943F00C03DBB21370154A144B1B78DBB243F00103DBB202
:402200001370012000F034F8012000F04FF8002000F05CF8002000F069F800F059FE0346BB710A4A094B1B78DBB243F01003DBB21370BB79184600F04FFE00F029F80837B8
:40224000BD4680BD7E6400409A6400409964004080B400AF054A054B1B78DBB263F07F03DBB21370BD465DF8047B70477E64004080B483B000AF0346FB71044AFB7913703A
:402280000C37BD465DF8047B704700BF0A64004080B500AF01E000F045F800F037F8034603F01003002BF6D180BD00BF80B483B000AF0346FB71044AFB7913700C37BD463C
:4022C0005DF8047B704700BF4A64004080B483B000AF0346FB71044AFB7913700C37BD465DF8047B704700BF2A64004080B483B000AF0346FB71044AFB7913700C37BD46E2
:402300005DF8047B704700BF8964004080B400AF034B1B78DBB21846BD465DF8047B70476964004080B400AF034B1B78DBB21846BD465DF8047B70475A64004080B500AFBD
:40234000054B1B78002B04D100F008F8024B01221A7000F03FF880BDCA81FF1F80B582B000AF1A4B1B78DBB223F03F03FB71174AFB7943F00A03DBB21370154A144B1B78F1
:40238000DBB243F00103DBB21370012000F032F8012000F04DF8002000F05AF8002000F067F800F095FD0346BB71094A084B1B78DBB243F01003DBB21370BB79184600F052
:4023C0008BFD00F027F80837BD4680BD756400409164004080B400AF054A054B1B78DBB263F07F03DBB21370BD465DF8047B70477564004080B483B000AF0346FB71044A32
:40240000FB7913700C37BD465DF8047B704700BF0164004080B500AF01E000F045F800F037F8034603F01003002BF6D180BD00BF80B483B000AF0346FB71044AFB79137012
:402440000C37BD465DF8047B704700BF4164004080B483B000AF0346FB71044AFB7913700C37BD465DF8047B704700BF2164004080B483B000AF0346FB71044AFB79137072
:402480000C37BD465DF8047B704700BF8164004080B400AF034B1B78DBB21846BD465DF8047B70476164004080B400AF034B1B78DBB21846BD465DF8047B704751640040F3
:4024C00080B500AF054B1B78002B04D100F008F8024B01221A7000F041F880BDCB81FF1F80B582B000AF1A4B1B78DBB223F03F03FB71174AFB7943F00A03DBB21370154A7B
:40250000144B1B78DBB243F00103DBB21370012000F034F8012000F04FF8002000F05CF8002000F069F800F0D3FC0346BB710A4A094B1B78DBB243F01003DBB21370BB79E5
:40254000184600F0C9FC00F029F80837BD4680BD786500409B6500409865004080B400AF054A054B1B78DBB263F07F03DBB21370BD465DF8047B70477865004080B483B085
:4025800000AF0346FB71044AFB7913700C37BD465DF8047B704700BF0B65004080B500AF01E000F045F800F037F8034603F01003002BF6D180BD00BF80B483B000AF034685
:4025C000FB71044AFB7913700C37BD465DF8047B704700BF4B65004080B483B000AF0346FB71044AFB7913700C37BD465DF8047B704700BF2B65004080B483B000AF0346DB
:40260000FB71044AFB7913700C37BD465DF8047B704700BF8865004080B400AF034B1B78DBB21846BD465DF8047B70476865004080B400AF034B1B78DBB21846BD465DF8DB
:40264000047B70475B65004080B500AF054B1B78002B04D100F008F8024B01221A7000F03FF880BDCC81FF1F80B582B000AF1A4B1B78DBB223F03F03FB71174AFB7943F040
:402680000A03DBB21370154A144B1B78DBB243F00103DBB21370012000F032F8012000F04DF8002000F05AF8002000F067F800F00FFC0346BB71094A084B1B78DBB243F00D
:4026C0001003DBB21370BB79184600F005FC00F027F80837BD4680BD726400409264004080B400AF054A054B1B78DBB263F07F03DBB21370BD465DF8047B7047726400402F
:4027000080B483B000AF0346FB71044AFB7913700C37BD465DF8047B704700BF0264004080B500AF01E000F045F800F037F8034603F01003002BF6D180BD00BF80B483B09E
:4027400000AF0346FB71044AFB7913700C37BD465DF8047B704700BF4264004080B483B000AF0346FB71044AFB7913700C37BD465DF8047B704700BF2264004080B483B06D
:4027800000AF0346FB71044AFB7913700C37BD465DF8047B704700BF8264004080B400AF034B1B78DBB21846BD465DF8047B70476264004080B400AF034B1B78DBB21846C8
:4027C000BD465DF8047B70475264004080B500AF054B1B78002B04D100F008F8024B01221A7000F041F880BDCD81FF1F80B582B000AF1A4B1B78DBB223F03F03FB71174A15
:40280000FB7943F00A03DBB21370154A144B1B78DBB243F00103DBB21370012000F034F8012000F04FF8002000F05CF8002000F069F800F04DFB0346BB710A4A094B1B785D
:40284000DBB243F01003DBB21370BB79184600F043FB00F029F80837BD4680BD77650040946500409765004080B400AF054A054B1B78DBB263F07F03DBB21370BD465DF8B5
:40288000047B70477765004080B483B000AF0346FB71044AFB7913700C37BD465DF8047B704700BF0465004080B500AF01E000F045F800F037F8034603F01003002BF6D12B
:4028C00080BD00BF80B483B000AF0346FB71044AFB7913700C37BD465DF8047B704700BF4465004080B483B000AF0346FB71044AFB7913700C37BD465DF8047B704700BFB3
:402900002465004080B483B000AF0346FB71044AFB7913700C37BD465DF8047B704700BF8765004080B400AF034B1B78DBB21846BD465DF8047B70476765004080B400AFD6
:40294000034B1B78DBB21846BD465DF8047B70475465004080B500AF022001214FF4804241F6FF7300F00EFA03461A460A4B1A700A20012141F6FF7241F6FF7300F036FAF1
:4029800003461A46054B1A70054800F063FA012000F072FA80BD00BFD481FF1FD581FF1F852B000080B582B000AF444B1B781846FEF7D4FA424B1B781846FEF7CFFA414BC9
:4029C0001B78FF2B05D1FEF7D7FB03461A463D4B1A703C4B1A783B4B1B7810460A211A460623FEF7F7FB374B1A78374B9BB2104645F6A0311A46FEF72DFC304B1A78314B53
:402A00001B7810461946FEF749FB304B1B78FF2B05D1FEF7B1FB03461A462C4B1A702B4B1A782A4B1B7810460A211A460723FEF7D1FB264B1978244B9AB2254B9BB2084618
:402A400011461A46FEF706FC1D4B1A781F4B1B7810461946FEF722FB184B1B7818460121FEF736FA164B1B7818460121FEF730FA00F02EFA0346FB71164A164B1B78DBB20E
:402A800043F02003DBB21370FB79184600F024FA114A114B1B78DBB243F00103DBB213700D4A0D4B1B78DBB243F00203DBB213700A4B02221A600837BD4680BDD481FF1FB6
:402AC000D581FF1F2481FF1FD881FF1F2581FF1FF481FF1F9F6400407965004080E200E080B500AF074B1B68002B04D1FFF732FF044B01221A60FFF755FF00F049F8024B9A
:402B00001B7880BDD081FF1F6B65004080B500AF00F0EAF880BD00BF80B485B000AF0346FB71084B1B78FB73FB7B002B02D1FB79002BF6D0FB7B18461437BD465DF8047BA4
:402B4000704700BF6B65004080B483B000AF0346FB80FB88C3F10403084A32F813309AB2074B1B889BB29BB2D31A9BB29BB21BB218460C37BD465DF8047B7047F481FF1F07
:402B80000882FF1F80B400AFBD465DF8047B704780B500AF054B1B78002B04D100F008F8024B01221A7000F019F880BDE481FF1F80B500AF074A074B1B78DBB243F00603A7
:402BC000DBB213700C2000F069F8034B00221A8080BD00BF015900400082FF1F80B582B000AF00F075F90346FB71244A234B1B78DBB243F00103DBB21370214A204B1B7833
:402C0000DBB243F00103DBB213701E4B1B78BB71BB7943F00203BB71BB7943F00103BB71184ABB791370184B18221A70174A174B1B78DBB243F04003DBB21370134A134B05
:402C40001B78DBB223F00303DBB21370104BC8221A70104B02221A700F4A0F4B1B78DBB243F00803DBB213700A20FEF743FBFB79184600F031F90837BD4680BDAB4300401C
:402C8000BB4300400359004006590040055900400059004014460040275B004080B584B000AF0346FB71FB790A2B07D00C2B02D0082B06D008E0C223FB7308E08223FB7373
:402CC00005E04223FB7302E0C223FB7300BF054AFB7B1370FB79184600F016F81037BD4680BD00BF0259004080B400AF054A054B1B78DBB243F00103DBB21370BD465DF8EE
:402D0000047B70470059004080B485B000AF0346FB71FB790A2B08D00C2B02D0082B08D00BE04FF48053FB600AE04FF48063FB6006E04FF48073FB6002E00023FB6000BF05
:402D40000C4B00221A80FB6842F2107202FB03F303F6C413084A82FB0312D212DB17D31A064A1360064B00221A801437BD465DF8047B70470282FF1FAD8BDB680482FF1F53
:402D80000882FF1F90B585B002AF0446084611461A462346FB710346BB710B46BB8013467B80114B01221A700F4B1878F979BA7900230093002301930123FEF78DF90A4BCE
:402DC0001978BA887B88084611461A46FEF728F9054B1B7818460221FEF7F2F8024B1B7818460C37BD4690BD2681FF1F90B585B002AF0446084611461A462346FB71034671
:402E0000BB710B46BB8013467B80114B00221A700F4B1878F979BA7900230093002301930023FEF759F90A4B1978BA887B88084611461A46FEF7F4F8054B1B7818460221A3
:402E4000FEF7BEF8024B1B7818460C37BD4690BD2781FF1F80B485B000AF7860054B1B68FB60FB6844337A681A601437BD465DF8047B704708ED00E080B483B000AF0346AF
:402E8000FB71054AFB795B01DBB213700C37BD465DF8047B704700BF01E400E080B483B000AF0346FB71044AFB7913700C37BD465DF8047B704700BF786400400000000066
:402EC0000230800803D000BF01380046FCD17047EFF3108072B6704780F31088704700BF014B1868704700BF8881FF1F0E4B70B51E460E4C0025E41AA410A54204D056F82C
:402F0000253098470135F8E700F09AFB084B094C1E46E41AA4100025A54204D056F8253098470135F8E770BD4C3600004C3600004C3600005436000010B5431E0A4491420A
:402F400004D011F8014B03F8014FF8E710BD03460244934202D003F8011BFAE7704700000000000041444331200000004144433220000000004F00400C005051004020007D
:402F800000000140001000140140000800400140000A004C01400002105001401000000000500140F80D004810000000303132333435363738394142434445460000000008
:402FC000000000001F000000000000001F1F0000000000001F1F1F00000000001F1F1F1F000000001F1F1F1F1F0000001F1F1F1F1F1F00001F1F1F1F1F1F1F002013002515
:4030000061178026010080260100802601008026E00E8026C20C8026020080066587186D6409183E00008026032080262102187FE60E8026C80C8026000080066B87186D7F
:403040006A09183E00008026012080262102187F00000000000000000000000000000000000000000000000000000000000000000000000000000000000000000000000060
:403080000000000000000000000000000000000000000000000000000000000000000000000000000000000000000000000000000000000000000000000000000000000010
:4030C00000000000000000000000000000000000000000000000000000000000000000000000000000000000000000000000000000000000000000000000000000000000D0
:40310000000000000000000000000000000000000000000000000000000000000000000000000000000000000000000000000000000000000000000000000000000000008F
:40314000000000000000000000000000000000000000000000000000000000000000000000000000000000000000000000000000000000000000000000000000000000004F
:40318000000000000000000000000000000000000000000000000000000000000000000000000000000000000000000000000000000000000000000000000000000000000F
:4031C00000000000000000000000000000000000000000000000000000000000000000000000000000000000000000000000000000000000000000000000000000000000CF
:40320000000000000000000000000000000000000000000000000000000000000000000000000000000000000000000000000000000000000000000000000000000000008E
:40324000000000000000000000000000000000000000000000000000000000000000000000000000000000000000000000000000000000000000000000000000000000004E
:40328000000000000000000000000000000000000000000000000000000000000000000000000000000000000000000000000000000000000000000000000000000000000E
:4032C00000000000000000000000000000000000000000000000000000000000000000000000000000000000000000000000000000000000000000000000000000000000CE
:403300000000000000000000000000000300000007000000FBFFFF00DCFFFF00E8FFFF0070000000EC000000C5FFFF00F8FCFF0012FDFF00D00400003D0D00004603000043
:4033400082E3FF00DDD5FF00ED0A0000C15E0000764400003B6EFF00E4A1FE004B56FF0070C001006C690300650701002DFCFA00638CF700268DFE00A51811000CC32500AB
:4033800082D12E000CC32500A5181100268DFE00638CF7002DFCFA00650701006C69030070C001004B56FF00E4A1FE003B6EFF0076440000C15E0000ED0A0000DDD5FF004E
:4033C00082E3FF00460300003D0D0000D004000012FDFF00F8FCFF00C5FFFF00EC00000070000000E8FFFF00DCFFFF00FBFFFF00070000000300000000000000000000001F
:40340000000000000000000000000000FFFFFF00F5FFFF00140000008A0000001BFFFF007FFBFF007B050000681C000001ECFF002F68FF0009DEFF005FDA01007A510100FA
:4034400086D6FA008805F800F07F0900D8B32A004B503C00D8B32A00F07F09008805F80086D6FA007A5101005FDA010009DEFF002F68FF0001ECFF00681C00007B050000F3
:403480007FFBFF001BFFFF008A00000014000000F5FFFF00FFFFFF0000000000000000000000000000000000000000000000000000000000000000000000000000000000EC
:4034C0000000000000000000000000000000000000000000000000000000000000000000000000000000000000000000000000000000000000000000000000004221000069
:403500000000000000000000E7330000C3210000C32100000000000000000000000000000000000000000000000000000000000000000000000000000000000021F805018A
:4035400044F80B4067F81B8081F80501A6F81901C2F807018561922109F9290121F9050188A2A22100000000000000000000000000000000000000000000000000000000FF
:40358000000000000000000000000000000000000000000000000000000000000000000000000000000000000000000000000000000000000000000000000000000000000B
:4035C00000000000000000000000000000000000000000000000000000000000000000000000000000000000000000000000000000000000000000000000000000000000CB
:403600000000000000000000000000000000000000000000000000000000000000000000000000000000000000000000000000000000000000000000000000004300000047
:40364000F8B500BFF8BC08BC9E4670474D0000007D040000F8B500BFF8BC08BC9E46704729000000783600000881FF1F88000000800000000000000000000000807F0000F9
:4036800003000000006CDC0280BB0000300000000000C05DFFFFFFFF00000000000000000000000000000000000000000000000000000000000000003C36000000000000C7
:4036C00000000000000000000000000000000000000000000000000000000000000000000000000000000000000000000000000000000000000000002881FF1F0000000003
:403700000000000000000000000000000000000000000000000000000000000000000000000000000000000000000000000000000000000000000000000000000000000089
:403740000000000000000000000000000000000000000000000000000000000000000000000000000000000000000000000000000000000000000000000000000000000049
:403780000000000000000000000000000000000000000000000000000000000000000000000000000000000000000000000000000000000000000000000000000000000009
:4037C00000000000000000000000000000000000000000000000000000000000000000000000000000000000000000000000000000000000000000000000000000000000C9
:020000040003F7
:0200000480007A
:40000000024F004007520040025B00400664004004650040470001403A0101403D02014041030140310401404B05014037060140530701405808014055090140490A0140A9
:40004000460B0140040C0140120D0140320E01403F0F0140351401405C150140481601405017014050180140531901404F1A0140531B0140104001400D4101400842014050
:40008000064301400145014007460140074701400248014001490140114C0140064D0140065001400251014001200A4B001001100880094020042110612027842F84810D75
:4000C000820D871F890D8A0D8F04860D870D880D8A0D07040F081301230229012A012B0231033201330435083F01580459045C225F01810482208302850689068F0193063A
:400100009403950699069E18A301A404A612A804A902AA09AB04B018B204B302B403B501B620B704B808BF10C010C105C5D0C612C81EC9FFCAFFCBFFCDA0CF04D018D40576
:40014000D80AD904DA0ADB0ADC29DD99DF01E040E2C0E440E540E6C0E8C0EAC0ECC0EEC0000403020502084209080B480D800E2010061624182019041C481D801E201F4083
:40018000202421092684270829102B802E102F443201340235043710388039083C243F8245804D014F80562457405C805D015F087F108280844487018B048C52C015C2AF38
:4001C000C463CAA5CCE1CEFAD010D210D6D0DE40E208E60806380F07110714031502170519071C041E12210722202404260929032B042D07300331023204342035043618A9
:40020000370138083E104030410445D046024710482E49FF4AFF4BFF4DA04F04501852805405580859045A085B085C295D995F01604062C06440654066C068C06AC06CC05F
:400240006EC0D440D804D904DB04DC22DF01020A0310050408680A100B400E200F0216A01E681F802581270828682C402F06320A33103420360A3B403F40450846804D013B
:4002800056A057015D015E486014614076407D807E01898090409102921093089602976098409D129F10A010A202A782AC84AD04B108B202B404B604C027C2AFC430CAB72D
:4002C000CCE7CE18D0C0D6D0D80EDE10E228EA48000902E0060208360C36128018081A341B021C3620452208243628092AD02B012C342D012E022F0230C032023303343C44
:4003000036013A203E443F045409580459045B045C205F0188028A049E04A201AE02B201B606BE40D280D808D904DB0ADC29DD90DF01008001180380070409800A480E0145
:4003400010101140132216401740181019401A481D0C1E02231028602A802B082F06302032083302346036083A203B483C203E203F404110431058845A025B105E8A5F10EC
:40038000614075027D807F1084019040910293089414976098409A409C209D1EA010A302A548A608AB12B148B501B708C04FC28BC49FCA3FCC77CE3ED6FFD808DE50E21245
:4003C000E640E840EA14EE40520F5610580459045B045C225D905F01805681D482098460880189108BC48C048DC48E808F10900791C192389306940A9509961097C699C458
:400400009B109C849D989F23A084A1D4A484A880A9E7AA04AB18AC04AD10B107B378B47FB680B798B820BB0ABE40D602D720D804D904DB04DF010160021003800404050122
:400440000620070109880A800C400F50103011111202142019201A022108224223222A822B042C402E202F0430203108324234203608370139513C203F506240686069518F
:400480006C116D066F487180720280018518868087028B088D018E8C904091029240930895709603976098419CB09D189F62A010A440A5C0A60CA788AA80AE40B024B4048A
:4004C000B704C0BFC2BDC42FCAADCCEFCE3DD808E001E202E406E608EA01EE06044008650A1A1402160D18491A062413262C320F34703A28403241054240440649FF4AFF43
:400500004BFF4C024E704F08500452FF5610580459045A045B045C205D905F0162C0644065016610671168C069016B116C406D016E406F018308890795019B04B104B302AA
:40054000B508B701BA30C012C105C260C404C5D0C6CEC7FBC83EC9FFCAFFCBFFCC23CEF0CF08D004D405D808D90BDA04DB0ADC99DD90DF01E2C0E440E501E610E711E8C092
:40058000E901EB11EC40ED01EE40EF01061007040D2815041A041C201D281F202080211022582D202E8032183580364038223D083E203F8240814120452047064A804B600E
:4005C0004C044E0150085211534059065B806C206D206E016F017404764A780879027A02800885048691874089018F409002924095029698978099069B809C089D019E010A
:400600009F01A106A240A341A440A501A702AB04AF0CB040B340B440B601C060C260C420CA30CC16CEF5D0EDD23CD60BDE0BE021E640EA02EEF4090D0F0215081A011B01B8
:400640002601310832013304350237013E044020410645D246104702481B49FF4AFF4BFF4DA04F045018528054055804590A5A0A5B0B5C905D995F01604062C064406540BB
:4006800066C068C06AC06CC06EC08210830386088C048E0892209440950198409E02A204A601A810AC01AE02B00CB203B301B440B502B630B820BE15D20FD618D804D90FB2
:4006C000DB04DC29DD90DF010405070109200C010D400E100F04102014801544171019041C011D021F182168238027183128370838203B403C0140804120430248284902FC
:40070000501859015A885C4064016C406D406E046F047001780879067D0286048C108E408F1090549340961097209C08A104A240A341A501A702A904B440C0B0C2F2C4F465
:40074000CC46CE8CD004D204D61BD810DE83E210E640E840B808BE04D804DF01181090049340961097209C08A104A240A341A501A702AD01B008B320B601B740E208EC6044
:400780005280580459045B0A5C225D905F0181028201860489108A028C028F0190809240938496089702980899089C409E809F08A004A320A420A610A750A801A904AC10AF
:4007C000AE20B101B380B540B6FFB73EB980BA30BE40BF40D602D739D808D904DB0FDC29DD20DF010040028004210521072109100C400E661088110812011480150116057F
:4008000017041C041F402462251426F12A012D202E042F403008310132203480372938623C013D203E403F025E1067206D016E446F0473407604770978087D027F02861021
:40084000870888408C808D018F04C0F9C2F2C4FFCAE1CCF7CEBDD620D840DE92E280E440E61004030B010E381302150117021E202404261228042A09300332043420350342
:40088000361838083B033E103F104050410145D14602481749FF4AFF4BFF4DA04F04501852FF5610580A59095A0A5B045C995D995F01604062C06440654066C068C06AC0B1
:4008C0006CC06EC0D804D904DC22DF0101080202040406A009800C800E020F501028146019881A48210222102C402EA0310233043420360139103F504180454046024820C7
:4009000049024A0250085180580A5A205B80610862406384640465146720680269126B20700171147202780479108001836084628501868088408B408C068F8090049314C2
:400940009648976098489A409B049C249D82A080A108A202A440A540A880AA10B008B580B704C035C2B1C436CAB0CCA3CE34D008D208D60FD80FDE06E009E206E406E60852
:40098000EC20EE050A030F0114181C041E122404260927012E203018320433013420360338083F044020410545D046024710482E49FF4AFF4BFF4DA04F0450185280540592
:4009C000580B59045A0B5B0B5C095D995F01604062C06440654066C068C06AC06CC06EC087088B208F4091089310952097409B109D019F02A304AB01AF02B104B360B50395
:400A0000B718BF54D280D405D804D90ADB0ADC92DD90DF0100840301051008600A100B500E200F0210801502166017801D301EA11F202108228223042604280429812F204F
:400A40003001318032103308384039043B203F8045204D014F805620574159025A485D015E887101778078047D028080821087089044910693109601976098419CA09F01A1
:400A8000A101A540A680A910AA40AE51B410B520B7A4C045C2AFC4A8CA4DCC0FCE1ED020D210D6DBDE82E001E204E602E804EA0AEC02EE04022004030C040E0918041A1249
:400AC0001E1823012B013003320434183501362038083F1052805405580A59045B0A5C295D905F01810B83148506860287098A018E04951C96109A089C019E02A404A50811
:400B0000A608A713AA10B003B31EB410B501B60CB908BA0CBE51BF10C020C106C5D0C610C702C81AC9FFCAFFCBFFCDA0CF04D018D203D302D809D904DA0BDB04DC09DD2917
:400B4000DF01E040E2C0E440E540E6C0E8C0EAC0ECC0EEC00108020A050606020A250D800F08102819481A881C401D941F4021082220270828802B602D802F4831083480B8
:400B800035203610380139043D083EA03F064110450147014808490150185C405D015F086A106B017502781079027A087C048280834084049005912692659420961899800D
:400BC0009A489D219EA0A024A116A361A501A602A702A884AA02AC18AF12B405B724C0B7C2C7C406CAB2CC32CEF3D004D204D6D0DE45E814EA40EC50EE0100180B040F01B0
:400C000018041A091E232004221226202B022D022F0430043101320333063420361838023E103F044040410645D246014702481F49FF4AFF4BFF4DA04F0450185280540543
:400C4000580A590A5A0A5B0A5C995D995F01604062C06440654066C068C06AC06CC06EC0C010C102C5D1C702C833C9FFCAFFCBFFCDA0CF04D018D401D804D904DA0ADB0FF2
:400C8000DC22DD29DF01E040E2C0E440E540E6C0E8C0EAC0ECC0EEC0010206A009200A020EA00F0610A01480181019421A042040220928082A402E803580365038103B409C
:400CC0003E203F86404045804608482849014D014F0850885120560A570859415A045E40734078087C047D028008820A841087078A508D028E60900492C093049501988057
:400D000099809AC09C109E22A183A341A612A70EA918AA20B140B510B608C038C2F3C41CCA1CCC30CEFCD031D204D61BDEC2E080E230E440E610E801EA90EC20EE10128034
:400D40001680312037103B023E805220578063088304C430CC30CE60D460D840E6205901660885208A0897029F10A280A520A620B780D640D880E21059048D048F109702EE
:400D80009F10B501B6A0D6401A108210AB01C610E080EE20860107401B0425029601C004C608C8014401804096019B40AB04AD02D0042502C880B1021E01340138805F0179
:400DC0006004908C96019C01A804AB40B404C601CC01CE08D601D802E80870049008AB01B001DC01EC04100511011A041B011C051D01000F100A00000501000000000000E0
:400E000005010501050104018000000000000050D000000000202000200000002000000000000000000000C0C000C00000000000007F7F0000000000000000000015950093
:400E40000001000000000000000000000000000000000000000000000000000000000000000000000000000000000000000000000000000000000000000000000000000071
:400E80000000000000000000000000000000000000000000000000000000000000000000000000000000000000000000000000000000000000000000000000000000000032
:400EC00000000000000000000000000000000000000000000000000000000000000000000000000000000000000000000000000000000000000000000000000000000000F2
:400F000000000000000000000000000000000000000000000000000000000000000000000000000000000000000000000000000000000000000000000000000000000000B1
:400F40000000000000000000000000000000000000000000000000000000000000000000000000000000000000000000000000000000000000000000000000000000000071
:0200000490006A
:0400000008004007AD
:0200000490105A
:04000000BC90ACAF55
:0200000490303A
:0200000069CDC8
:0200000490402A
:4000000000000000000000000000000000000000000000000000000000000000000000000000000000000000000000000000000000000000000000000000000000000000C0
:400040000000000000000000000000000000000000000000000000000000000000000000000000000000000000000000000000000000000000000000000000000000000080
:400080000000000000000000000000000000000000000000000000000000000000000000000000000000000000000000000000000000000000000000000000000000000040
:4000C0000000000000000000000000000000000000000000000000000000000000000000000000000000000000000000000000000000000000000000000000000000000000
:0200000490501A
:0C00000000012E12306900012E2A9A36F1
:00000001FF