:4000000000800020110000003D0400003D04000080B500AF024A034B1B68136000F018FABC760040FA46004010B5054C237833B9044B13B10448AFF300800123237010BD83
:400040009081FF1F00000000382F0000084B10B51BB108480849AFF300800848036803B910BD074B002BFBD0BDE81040184700BF00000000382F00009481FF1F0881FF1F63
:400080000000000090B583B000AF0023FB800023BB8001F0BDFA01F015FB00F04FF901F0CBFD01F05BFD00F0E3FC01F0EDFB01F04DF9424B1B8802F0EFFC02F003FD01F06B
:4000C00065FC62B602F0FEFC0020002100F0E0FC3B4800F013FD0120002100F0D9FC394800F00CFD012001F0EDF90346002B64D001F008FA03461A46334B1A60324B1B6856
:400100009BB26FEA03536FEA13539BB29BB2184601F078FC2D4B1A882D4B1A802A4B1B68DBB2184601F0E2FC274B1B681B12DBB2184601F0EBFC01F0F9FC03461B029CB24A
:4001400001F000FD03469BB2224613439BB27B80012002F0BDFC0346002B2ED01D4B01221A801C4B1B88184601F08AFD194B1B889B089BB2184601F093FD002000F002F9D1
:40018000154B00221A80144B1B88DBB2184602F071FE114B1B881B0A9BB2DBB2184602F059FE012002F0ACFC03469BB2184600F015F803461A46054B1A8093E7EA81FF1FEE
:4001C0003C2F0000442F0000BC81FF1FAC81FF1FB081FF1FC081FF1FAE81FF1F80B485B000AF0346FB80FB88DB08FB80FB881F2B00F2998001A252F823F000BF7D020000AD
:40020000850200008D020000950200009D020000A5020000AD020000B5020000BD020000C5020000CD020000D5020000DD020000E5020000ED020000F5020000FB02000090
:4002400001030000270300002703000027030000270300002703000027030000270300002703000027030000070300000D03000013030000190300001F0300004FF6FF73DB
:40028000FB8153E04FF6FE73FB814FE04FF6FC73FB814BE04FF6F873FB8147E04FF6F073FB8143E04FF6E073FB813FE04FF47D63FB813BE04FF47C63FB8137E04FF47B6376
:4002C000FB8133E04FF47A63FB812FE04FF47963FB812BE04FF47863FB8127E04FF47763FB8123E04FF47663FB811FE04FF47463FB811BE04FF47063FB814FF47063FB8195
:400300004FF46063FB814FF45063FB814FF44063FB814FF43063FB814FF42063FB814FF40063FB8102E04FF6FF73FB81FB8918461437BD465DF8047B704700BF80B500AF3E
:4003400002F0ACF902F06CFA02F020F801F0D8FD01F05AFF01F096FE02F0DCF801F00EFD02F04EF902F010FA01F0C4FF01F07CFD01F0FEFE01F03AFE02F07EF801F0B0FCBF
:4003800000BF80BD80B584B000AF0346FB80FB885B08FB81FB88DBB2184602F0ADF9FB88DBB2184602F06AFAFB88DBB2184602F01BF8FB88DBB2184601F0D0FDFB88DBB28A
:4003C000184601F04FFFFB88DBB2184601F088FEFB88DBB2184602F0CBF8FB88DBB2184601F0FAFCFB89DBB2184602F095F9FB89DBB2184602F052FAFB89DBB2184602F006
:4004000003F8FB89DBB2184601F0B8FDFB89DBB2184601F037FFFB89DBB2184601F070FEFB89DBB2184602F0B3F8FB89DBB2184601F0E2FC00BF1037BD4680BD80B500AFD4
:4004400002F03AFD03461B680C2B00D1FEE7FEE780B586B000AF224B7B61224B3B61204B7B6135E03B691B68FB603B695B68BB603B699B683B6000237B600CE0FB681A68D8
:40048000BB681A60BB680433BB60FB680433FB607B6804337B607A683B689A42EED13B69DB683B6000237B6008E0BB6800221A60BB680433BB607B6804337B607A683B680A
:4004C0009A42F2D13B6910333B617B69013B7B617B69002BC6D102F0F5FCFFF7D3FDFEE7010000003836000080B582B000AF184B184A1A60184A184B1B6843F40073136081
:4005000000237B600FE07B68032B04D8134A7B6852F8233000E0124B12497A6841F822307B6801337B607B682F2BECD90E4B1B78DAB20E4B1A700E4B0A4A1A6000F084F91C
:4005400000F076FC0B4B00221A600837BD4680BD0CED00E00004FA0514ED00E0000000003D0400000080FF1FBC7600400481FF1F08ED00E00081FF1F80B582B000AF786095
:400580003960786800213A6802F0CDFC0837BD4680BD00BF80B584B000AFF860B9607A60F868B9687A6802F0B3FC1037BD4680BD80B483B000AF0346FB71FEE780B487B0FD
:4005C00000AF7860396000233B6100237B6127E07B699B007A6813441B68BB60BB68FB73BB6823F0FF03BB6014E03B695B003A6813441B781A46BB68134419463B695B0025
:400600003A6813445B780B703B6901333B61FB7B013BFB73FB7B002BE7D17B6901337B617B692A2BD4D91C37BD465DF8047B704780B582B000AF334B01221A80324B1822C3
:400640001A70324B1D221A80314B18221A70314B02221A704FF0402308221A702E4B04221A702E4B2E4A1278D2B21A702D4B4FF471621A802C4B41F251221A800023FB70BB
:4006800019237B6014E0FB785B00DAB2274B1B78DBB203F00103DBB21343DBB203F00303FB704FF4F07002F0F7FB7B68013B7B607B68002B02D0FB78032BE4D17B68002BB3
:4006C00002D10320FFF774FF194B4FF480721A80174B07221A70174B00221A70164B48221A70134B00221A70144B02221A70144A134B1B78DBB243F00303DBB21370083775
:40070000BD4680BD804000408240004084400040864000400043004000420040A146004089010049224200402042004025420040044000400640004008400040014000406E
:40074000A243004080B582B000AF2C4B1B78FB712B4B1B78BB712B4B1B787B712A4AFB7903F00703DBB21370284AFB791B09DBB21370234ABB7943F00303DBB21370214A3A
:400780007B7943F00303DBB21370214B41221A70204B40221A70204BD5221A701F4B40221A701F4B40221A701E4B80221A701E4B50221A701D4B20221A701D4B40221A7032
:4007C0001C4B20221A701C4B4FF482721A801B4B40F209121A801A4B80221A700A2000F067FD084A7B791370054ABB791370154B44221A700837BD4680BD00BFCF010049BC
:40080000F8460040F94600406E5800406F5800400C5100403D5100404D510040015900400359004009590040205B0040235B0040285B00402B5B0040425B0040445B0040CF
:40084000585B00407658004080B586B000AF72B60023FB7513E0FA7D13465B0013445B00494A13443B613B691A683B699B889BB210461946FFF780FEFB7D0133FB75FB7D55
:40088000082BE8D90023FB751CE0FA7D13469B0013445B003D4A1344FB60FB681B68BB60FB685B687B60FB681A7A5B7A1B0213437B807B88B86879681A46FFF76BFEFB7DE8
:4008C0000133FB75FB7D002BDFD04FF090403049FFF774FE2F480421FFF74EFE2E482F490422FFF757FE2E4A2D4B1B78DBB243F00203DBB213702B4A2A4B1B78DBB243F040
:400900000203DBB21370284A274B1B78DBB243F04003DBB21370254A244B1B78DBB243F01003DBB21370224822490A22FFF732FE214822490A22FFF72DFE2148214908227F
:40094000FFF728FE204821490822FFF723FE204A1F4B1B78DBB243F00803DBB213701D4B01221A70FFF764FE1A4BC1221A701A4B01221A70FFF7E6FE18480B490E22FFF701
:4009800009FE1837BD4680BD4C2F0000842F0000AC0000480076004008760040300E00480350014013500140A0430040C243004000510040080E0048C0510040140E00483B
:4009C00012510040200E004842510040280E0048224300400048004004000840B043004080B500AF282000F041FC032000F0CEF9052000F03BFC032000F0C8F90F2000F06F
:400A000035FC032000F0C2F9012000F02FFC022000F0BCF9052000F029FC062000F0A4F80E2000F0A1F82C2000F09EF8082000F09BF8012000F098F80C2000F095F8032027
:400A400000F092F8052000F011FC024800F0CEF980BD00BF902F000080B500AF0C2000F083F8024B01221A7080BD00BFC481FF1F80B500AF054B1B78002B04D1FFF7B0FFDE
:400A8000024B01221A70FFF7E7FF80BDC581FF1F80B582B000AF03460A46FB711346BB71FB79032B26D801A252F823F0BD0A0000CB0A0000D90A0000E70A0000BB79803B20
:400AC000DBB2184600F050F815E0BB79403BDBB2184600F049F80EE0BB796C3BDBB2184600F042F807E0BB792C3BDBB2184600F03BF800E000BF0837BD4680BD80B584B01E
:400B000000AF78600123FB737B681B78BB730BE0BB7B184600F00EF8FB7B7A6813441B78BB73FB7B0133FB73BB7B002BF0D11037BD4680BD80B584B000AF0346FB7100F095
:400B40002DF8FB791B09FB73FB7B184600F0E2F8FB7903F00F03FB73FB7B184600F0DAF81037BD4680BD00BF80B584B000AF0346FB7100F013F8FB791B09FB73FB7B184647
:400B800000F004F9FB7903F00F03FB73FB7B184600F0FCF81037BD4680BD00BF80B582B000AF4FF4CA737B60554A554B1B78DBB223F07F03DBB21370524B1B78DBB223F01E
:400BC0000F03FB704F4AFB7843F00F03DBB213704D4B1B78DBB223F00F03FB704A4AFB7813704A4B1B78DBB223F00F03FB70474AFB781370424A424B1B78DBB223F020030A
:400C0000DBB213703E4A3E4B1B78DBB243F04003DBB21370002000F04BFB394A384B1B78DBB243F01003DBB21370012000F040FB374B1B78FB70324A314B1B78DBB223F024
:400C40001003DBB21370002000F032FBFB7803F00803FB702A4A2A4B1B78DBB243F01003DBB21370012000F023FB254A244B1B78DBB223F01003DBB21370FB78002B02D105
:400C80000A2000F015FB7B68013B7B60FB78002B02D07B68002BBDD1194A194B1B78DBB223F04003DBB21370154A154B1B78DBB223F07F03DBB21370124A124B1B78DBB25A
:400CC00023F00F03DBB213700F4B1B78DBB223F00F03FB700C4AFB7843F00F03DBB213700A4B1B78DBB223F00F03FB70074AFB7843F00F03DBB213700837BD4680BD00BF3B
:400D0000105100401251004013510040145100401151004080B582B000AF0346FB711A4A194B1B78DBB243F02003DBB21370164A154B1B78DBB223F04003DBB21370002005
:400D400000F0B6FA104A104B1B78DBB223F00F03DBB213700C490C4B1B78DAB2FB791343DBB243F01003DBB20B70012000F0A0FA054A054B1B78DBB223F01003DBB21370B9
:400D80000837BD4680BD00BF1051004080B582B000AF0346FB71144A134B1B78DBB223F06003DBB21370104A0F4B1B78DBB223F00F03DBB213700C490B4B1B78DAB2FB79E0
:400DC0001343DBB243F01003DBB20B70012000F06FFA054A044B1B78DBB223F01003DBB213700837BD4680BD1051004080B584B000AF7860FFF7D2FE4020FFF7B5FE002352
:400E0000FB7309E0FB7B7A6813441B781846FFF791FEFB7B0133FB73FB7B3F2BF2D9FFF7BDFE8020FFF7A0FE1037BD4680BD00BF80B483B000AF134B7F221A70124B8022AA
:400E40001A707F23FB710CE0FB79DB0003F1804303F5F043FA79013AD2B21A70FB79013BFB71FB79002BEFD1FB79DB0003F1804303F5F04300221A700C37BD465DF8047B8F
:400E8000704700BF0D81FF1F0C81FF1F80B485B000AF03460A46FB711346BB710123FB60FB79172B2FD8BB79002B0ED0FB791A01184B1344FA791101164A0A441278D2B2C0
:400EC00042F02002D2B21A700DE0FB791A01114B1344FA7911010F4A0A441278D2B222F02002D2B21A70FB791A010A4B1344FA791101084A0A441278D2B242F00102D2B2BE
:400F00001A700023FB60FB6818461437BD465DF8047B70471070004080B485B000AF0346FB710123FB60FB79172B1DD8FB791A01114B1344FA7911010F4A0A441279D2B2DB
:400F400042F00402D2B21A71FB791A010A4B1344FA791101084A0A441278D2B242F00102D2B21A700023FB60FB6818461437BD465DF8047B704700BF1070004080B485B079
:400F800000AF03460A46FB711346BB710123FB60FB79172B18D8FB791A010F4B13441B78DBB223F00E03FB72FB791A010A4B1344BA7902F00702D2B25200D1B2FA7A0A435F
:400FC000D2B21A700023FB60FB6818461437BD465DF8047B704700BF1070004080B485B000AF0346FB710B46BB8013467B800123FB60BB8841F6FF72934202D14FF40053F7
:40100000BB807B8841F6FF72934202D14FF400537B80FB79172B17D8FB79DB0003F1804303F5EC430433BB60BB68BA881A80FB79DB0003F1804303F5EC430633BB60BB68CA
:401040007A881A800023FB60FB6818461437BD465DF8047B704700BF80B485B000AF03460A46FB711346BB710123FB60FB79172B07D8FB791A01064B1344BA795A720023EE
:40108000FB60FB6818461437BD465DF8047B70471070004090B484B000AF0446084611461A462346FB710346BB710B467B7113463B710123FB60FB79172B34D8FB79DB00E9
:4010C00003F1804303F5EC43BA7902F07F02D1B27A79D201D2B20A43D2B21A70FB79DB0003F1804303F5EC433A7E1201D1B23A7902F00F02D2B20A43D2B25A70FB79DB00A5
:4011000003F1804303F5EC433A7F02F00F02D2B29A70FB79DB0003F1804303F5EC430022DA700023FB60FB6818461037BD4690BC704700BF80B582B000AFFF23FB7101F00E
:40114000B3FE0346BB71104B1B78182B12D90F4B1B78FB710C4B1B78013BDAB20A4B1A70FB79DB0003F1804303F5F0431B78DAB2064B1A70BB79184601F09AFEFB7918462B
:401180000837BD4680BD00BF0C81FF1F0D81FF1F90B484B000AF0446084611461A462346FB710346BB800B46BB711346FB700123FB60FB795BB2002B23DBBB8823F47F6325
:4011C00023F00F039BB2002B1BD1FB79DB0003F1804303F5F043BB60BB68BA881A80FB79DB0003F1804303F5F043BA799A70FB79DB0003F1804303F5F043FA78DA7000239D
:40120000FB60FB6818461037BD4690BC704700BF80B485B000AF0346FB710B46BB8013467B800123FB60FB795BB2002B17DBFB79DB0003F1804303F5F0430433BB60BB6816
:40124000BA881A80FB79DB0003F1804303F5F0430633BB60BB687A881A800023FB60FB6818461437BD465DF8047B704780B582B000AF786008E00C4B1B68184601F00CFE2D
:401280007B68A3F500437B607B68B3F5004FF2D8064B1B687A6802FB03F3184601F0FCFD0837BD4680BD00BF2081FF1F1881FF1F80B582B000AF0346FB80FB88044A127817
:4012C00002FB03F3184601F0E7FD0837BD4680BD1C81FF1F80B485B000AF03463960FB710D4B1B68FB60FB7903F01F0310339B00FA6813441B68BB60FB7903F01F03103368
:401300009B00FA6813443A681A60BB6818461437BD465DF8047B704708ED00E080B483B000AF03460A46FB711346BB71FB7903F01F0303F1604303F56443BA795201D2B2A5
:401340001A700C37BD465DF8047B704780B500AF054B1B78002B04D100F008F8024B01221A7000F023F880BDC681FF1F80B500AF00200721FFF7D2FF00200949FFF7AAFFB0
:40138000084A084B1B78DBB243F00603DBB213700C2000F071F8044B00221A8080BD00BFB115000009590040F081FF1F80B582B000AF01F079FD0346FB71264A254B1B78F4
:4013C000DBB243F00203DBB21370234A224B1B78DBB243F00203DBB21370204B1B78BB71BB7943F00203BB71BB7943F00103BB711A4ABB7913701A4B18221A70194A194B72
:401400001B78DBB243F04003DBB21370154A154B1B78DBB223F00303DBB21370124BCE221A70124B02221A70114A114B1B78DBB243F00803DBB213700A20FFF739FF0D4B47
:4014400001221A60FB79184601F032FD0837BD4680BD00BFAB430040BB4300400B5900400E5900400D59004008590040164600402F5B004080E200E080B584B000AF034698
:40148000FB71FB790A2B07D00C2B02D0082B06D008E0C223FB7308E08223FB7305E04223FB7302E0C223FB7300BF054AFB7B1370FB79184600F040F81037BD4680BD00BFC4
:4014C0000A59004080B584B000AF0346FB710C4B1B78DBB203F00103FB73FB7B012B02D0FB79002BF3D0FB7B012B04D10120FFF7DFFE034B1B78FB7B18461037BD4680BD23
:401500000959004080B483B000AF094B1B88FB80084B1B889BB29BB2FA88D31A9BB29BB21BB218460C37BD465DF8047B704700BFA25B0040EA81FF1F80B485B000AF034606
:40154000FB71FB790A2B08D00C2B02D0082B08D00BE04FF48053FB600AE04FF48063FB6006E04FF48073FB6002E00023FB6000BF0C4B00221A80FB6842F2107202FB03F3EE
:4015800003F58063002B01DA03F2FF73DB121A46054B1A60054B00221A801437BD465DF8047B7047E881FF1FEC81FF1FEA81FF1F80B400AFBD465DF8047B704780B500AFF7
:4015C000032000F035F880BD80B400AF0D4A0D4B1B78DBB243F06003DBB213700A4A0A4B1B78DBB243F00203DBB21370074A074B1B78DBB243F00203DBB21370BD465DF8A2
:40160000047B704777580040A4430040B443004080B500AF054B1B78002B04D1034B01221A70FFF7CBFFFFF7CFFF80BDC781FF1F80B483B000AF0346FB710C4A0B4B1B7814
:40164000DBB223F00303DBB213700849074B1B78DAB2FB7903F00303DBB21343DBB20B700C37BD465DF8047B704700BF5A58004080B500AF032000F035F880BD80B400AFD4
:401680000D4A0D4B1B78DBB243F06003DBB213700A4A0A4B1B78DBB243F00403DBB21370074A074B1B78DBB243F00403DBB21370BD465DF8047B704777580040A4430040D1
:4016C000B443004080B500AF054B1B78002B04D1034B01221A70FFF7CBFFFFF7CFFF80BDC881FF1F80B483B000AF0346FB710C4A0B4B1B78DBB223F00303DBB213700849B8
:40170000074B1B78DAB2FB7903F00303DBB21343DBB20B700C37BD465DF8047B704700BF5C580040F8B500AF354A354B1B78DBB243F01003DBB21370324A324B1B78DBB272
:4017400023F00103DBB213702F4B3F221A702F4B3F221A702E4A2F4B11461A464FF48073084611461A4601F0D3FB2B4A294B11461A464FF48073084611461A4601F0C8FB46
:40178000264A274B11461A464FF48073084611461A4601F0BDFB234A234B11461A464FF40073084611461A4601F0B2FB1F4A204B11461A464FF40073084611461A4601F08A
:4017C000A7FB1C4B1C4A14461E4604F1400E35462346186859689A68DB680FC5103410367445F4D1094B00221A70032000F05CF8002000F06DF8114BF8221A70F8BD00BFE3
:40180000A643004080C7004088C700408CC7004000C40040D02F000000C5004000C600401035000000C00040D030000000C20040D032000000C70040D034000084C70040E9
:4018400080B400AF0D4A0D4B1B78DBB243F01003DBB213700A4A0A4B1B78DBB243F01003DBB21370074A074B1B78DBB243F00103DBB21370BD465DF8047B7047A643004080
:40188000B643004080C7004080B500AF054B1B78002B04D1FFF746FF024B01221A70FFF7CFFF80BDC981FF1F80B483B000AF0346FB71FB7903F01F03FB71044AFB791370FE
:4018C0000C37BD465DF8047B704700BF98C7004080B483B000AF0346FB71FB7903F00F03FB71044AFB7913700C37BD465DF8047B704700BF9CC7004080B500AF074B1F221A
:401900001A7000F099F800F05DF800F06BF8044B08221A70034B00221A7080BD8F6400408D6400408C64004080B582B000AF01F0BBFA0346FB71124A114B1B78DBB243F0BA
:401940002003DBB213700F4A0E4B1B78DBB243F01003DBB213700C4A0B4B1B78DBB243F01003DBB21370FB79184601F0A1FA00F0A3F800F01BF800F01FF80837BD4680BD78
:401980009F6400409D6400409C64004080B500AF054B1B78002B04D1FFF7AEFF024B01221A70FFF7C1FF80BDCA81FF1F80B400AFBD465DF8047B704780B400AFBD465DF8F7
:4019C000047B704780B483B000AF054B1B78FB71FB7918460C37BD465DF8047B704700BF6D64004080B483B000AF054B1B78FB71FB7918460C37BD465DF8047B704700BF12
:401A00006C64004080B483B000AF0346FB8000BF074B1B78DBB203F00403002BF8D0054AFB8813800C37BD465DF8047B704700BF6D6400404C64004080B582B000AF01E0B1
:401A4000194B1B88194B1B78DBB203F02003002BF6D101F029FA0346FB71154A144B1B78DBB243F00103DBB21370114A104B1B78DBB223F00103DBB213700E4A0D4B1B78A5
:401A8000DBB243F00103DBB213700A4A094B1B78DBB223F00103DBB21370FB79184601F007FA0837BD4680BD5C6400406C6400409C6400409D64004080B400AF094A094B05
:401AC0001B78DBB243F00103DBB21370064A064B1B78DBB243F00103DBB21370BD465DF8047B7047A2430040B243004080B483B000AF0346FB71044AFB7913700C37BD4639
:401B00005DF8047B704700BF7765004080B483B000AF0346FB71044AFB7913700C37BD465DF8047B704700BF7564004080B400AF034B1B78DBB21846BD465DF8047B704749
:401B40006764004080B400AF034B1B78DBB21846BD465DF8047B70476765004080B500AF054B1B78002B04D100F008F8024B01221A7000F061F880BDCB81FF1F80B582B009
:401B800000AF284A274B1B78DBB243F00203DBB21370254B1B78DBB223F07003FB71224AFB7943F02003DBB21370204A1F4B1B78DBB223F03003DBB213701C4A1B4B1B78B9
:401BC000DBB243F03003DBB21370184A174B1B78DBB223F00F03DBB21370144A134B1B78DBB243F00F03DBB21370012000F048F8002000F055F8002000F062F80C4A0C4BD3
:401C00001B78DBB243F00103DBB21370094A094B1B78DBB243F00103DBB213700837BD4680BD00BF004F0040024F00400B4F0040A3430040014F004080B400AF0D4A0D4BEF
:401C40001B78DBB243F00103DBB213700A4A0A4B1B78DBB243F00103DBB21370074A074B1B78DBB243F00103DBB21370BD465DF8047B7047A3430040B3430040004F00406A
:401C800080B483B000AF0346FB80044AFB8813800C37BD465DF8047B704700BF044F004080B483B000AF0346FB80044AFB8813800C37BD465DF8047B704700BF064F004060
:401CC00080B483B000AF0346FB71044AFB7913700C37BD465DF8047B704700BF034F004080B500AF054B1B78002B04D100F008F8024B01221A7000F041F880BDCC81FF1F30
:401D000080B582B000AF1A4B1B78DBB223F03F03FB71174AFB7943F00A03DBB21370154A144B1B78DBB243F00103DBB21370012000F034F8012000F04FF8002000F05CF804
:401D4000002000F069F801F0AFF80346BB710A4A094B1B78DBB243F01003DBB21370BB79184601F0A5F800F029F80837BD4680BD76640040946400409264004080B400AFAC
:401D8000054A054B1B78DBB263F07F03DBB21370BD465DF8047B70477664004080B483B000AF0346FB71044AFB7913700C37BD465DF8047B704700BF0464004080B500AFAB
:401DC00001E000F045F800F037F8034603F01003002BF6D180BD00BF80B483B000AF0346FB71044AFB7913700C37BD465DF8047B704700BF4464004080B483B000AF034692
:401E0000FB71044AFB7913700C37BD465DF8047B704700BF2464004080B483B000AF0346FB71044AFB7913700C37BD465DF8047B704700BF8264004080B400AF034B1B780F
:401E4000DBB21846BD465DF8047B70476264004080B400AF034B1B78DBB21846BD465DF8047B70475464004080B500AF054B1B78002B04D100F008F8024B01221A7000F00D
:401E80003FF880BDCD81FF1F80B582B000AF1A4B1B78DBB223F03F03FB71174AFB7943F00A03DBB21370154A144B1B78DBB243F00103DBB21370012000F032F8012000F050
:401EC0004DF8002000F05AF8002000F067F800F0EBFF0346BB71094A084B1B78DBB243F01003DBB21370BB79184600F0E1FF00F027F80837BD4680BD786400409864004019
:401F000080B400AF054A054B1B78DBB263F07F03DBB21370BD465DF8047B70477864004080B483B000AF0346FB71044AFB7913700C37BD465DF8047B704700BF0864004024
:401F400080B500AF01E000F045F800F037F8034603F01003002BF6D180BD00BF80B483B000AF0346FB71044AFB7913700C37BD465DF8047B704700BF4864004080B483B020
:401F800000AF0346FB71044AFB7913700C37BD465DF8047B704700BF2864004080B483B000AF0346FB71044AFB7913700C37BD465DF8047B704700BF8864004080B400AF6D
:401FC000034B1B78DBB21846BD465DF8047B70476864004080B400AF034B1B78DBB21846BD465DF8047B70475864004080B500AF054B1B78002B04D100F008F8024B01221B
:402000001A7000F03FF880BDCE81FF1F80B582B000AF1A4B1B78DBB223F03F03FB71174AFB7943F00C03DBB21370154A144B1B78DBB243F00103DBB21370012000F032F862
:40204000012000F04DF8002000F05AF8002000F067F800F029FF0346BB71094A084B1B78DBB243F01003DBB21370BB79184600F01FFF00F027F80837BD4680BD7565004048
:402080009565004080B400AF054A054B1B78DBB263F07F03DBB21370BD465DF8047B70477565004080B483B000AF0346FB71044AFB7913700C37BD465DF8047B704700BF17
:4020C0000565004080B500AF01E000F045F800F037F8034603F01003002BF6D180BD00BF80B483B000AF0346FB71044AFB7913700C37BD465DF8047B704700BF456500405E
:4021000080B483B000AF0346FB71044AFB7913700C37BD465DF8047B704700BF2565004080B483B000AF0346FB71044AFB7913700C37BD465DF8047B704700BF856500406B
:4021400080B400AF034B1B78DBB21846BD465DF8047B70476565004080B400AF034B1B78DBB21846BD465DF8047B70475565004080B500AF054B1B78002B04D100F008F82A
:40218000024B01221A7000F03FF880BDCF81FF1F80B582B000AF1A4B1B78DBB223F03F03FB71174AFB7943F00C03DBB21370154A144B1B78DBB243F00103DBB2137001208A
:4021C00000F032F8012000F04DF8002000F05AF8002000F067F800F067FE0346BB71094A084B1B78DBB243F01003DBB21370BB79184600F05DFE00F027F80837BD4680BD4D
:40220000746500409465004080B400AF054A054B1B78DBB263F07F03DBB21370BD465DF8047B70477465004080B483B000AF0346FB71044AFB7913700C37BD465DF8047BF4
:40224000704700BF0465004080B500AF01E000F045F800F037F8034603F01003002BF6D180BD00BF80B483B000AF0346FB71044AFB7913700C37BD465DF8047B704700BF51
:402280004465004080B483B000AF0346FB71044AFB7913700C37BD465DF8047B704700BF2465004080B483B000AF0346FB71044AFB7913700C37BD465DF8047B704700BF2C
:4022C0008465004080B400AF034B1B78DBB21846BD465DF8047B70476465004080B400AF034B1B78DBB21846BD465DF8047B70475465004080B500AF054B1B78002B04D172
:4023000000F008F8024B01221A7000F03FF880BDD081FF1F80B582B000AF1A4B1B78DBB223F03F03FB71174AFB7943F00A03DBB21370154A144B1B78DBB243F00103DBB2BD
:402340001370012000F032F8012000F04DF8002000F05AF8002000F067F800F0A5FD0346BB71094A084B1B78DBB243F01003DBB21370BB79184600F09BFD00F027F80837ED
:40238000BD4680BD7B6500409B65004080B400AF054A054B1B78DBB263F07F03DBB21370BD465DF8047B70477B65004080B483B000AF0346FB71044AFB7913700C37BD46F2
:4023C0005DF8047B704700BF0B65004080B500AF01E000F045F800F037F8034603F01003002BF6D180BD00BF80B483B000AF0346FB71044AFB7913700C37BD465DF8047B6B
:40240000704700BF4B65004080B483B000AF0346FB71044AFB7913700C37BD465DF8047B704700BF2B65004080B483B000AF0346FB71044AFB7913700C37BD465DF8047B9C
:40244000704700BF8B65004080B400AF034B1B78DBB21846BD465DF8047B70476B65004080B400AF034B1B78DBB21846BD465DF8047B70475B65004080B500AF054B1B7865
:40248000002B04D100F008F8024B01221A7000F041F880BDD181FF1F80B582B000AF1A4B1B78DBB223F03F03FB71174AFB7943F00A03DBB21370154A144B1B78DBB243F0CA
:4024C0000103DBB21370012000F034F8012000F04FF8002000F05CF8002000F069F800F0E3FC0346BB710A4A094B1B78DBB243F01003DBB21370BB79184600F0D9FC00F0B5
:4025000029F80837BD4680BD70640040936400409064004080B400AF054A054B1B78DBB263F07F03DBB21370BD465DF8047B70477064004080B483B000AF0346FB71044A3A
:40254000FB7913700C37BD465DF8047B704700BF0364004080B500AF01E000F045F800F037F8034603F01003002BF6D180BD00BF80B483B000AF0346FB71044AFB791370CF
:402580000C37BD465DF8047B704700BF4364004080B483B000AF0346FB71044AFB7913700C37BD465DF8047B704700BF2364004080B483B000AF0346FB71044AFB7913702D
:4025C0000C37BD465DF8047B704700BF8064004080B400AF034B1B78DBB21846BD465DF8047B70476064004080B400AF034B1B78DBB21846BD465DF8047B704753640040B2
:4026000080B500AF054B1B78002B04D100F008F8024B01221A7000F041F880BDD281FF1F80B582B000AF1A4B1B78DBB223F03F03FB71174AFB7943F00A03DBB21370154A32
:40264000144B1B78DBB243F00103DBB21370012000F034F8012000F04FF8002000F05CF8002000F069F800F01FFC0346BB710A4A094B1B78DBB243F01003DBB21370BB7958
:40268000184600F015FC00F029F80837BD4680BD76650040976400409464004080B400AF054A054B1B78DBB263F07F03DBB21370BD465DF8047B70477665004080B483B006
:4026C00000AF0346FB71044AFB7913700C37BD465DF8047B704700BF0764004080B500AF01E000F045F800F037F8034603F01003002BF6D180BD00BF80B483B000AF034649
:40270000FB71044AFB7913700C37BD465DF8047B704700BF4764004080B483B000AF0346FB71044AFB7913700C37BD465DF8047B704700BF2764004080B483B000AF0346A3
:40274000FB71044AFB7913700C37BD465DF8047B704700BF8464004080B400AF034B1B78DBB21846BD465DF8047B70476464004080B400AF034B1B78DBB21846BD465DF8A4
:40278000047B70475764004080B500AF054B1B78002B04D100F008F8024B01221A7000F03FF880BDD381FF1F80B582B000AF1A4B1B78DBB223F03F03FB71174AFB7943F0FD
:4027C0000A03DBB21370154A144B1B78DBB243F00103DBB21370012000F032F8012000F04DF8002000F05AF8002000F067F800F05BFB0346BB71094A084B1B78DBB243F081
:402800001003DBB21370BB79184600F051FB00F027F80837BD4680BD786500409865004080B400AF054A054B1B78DBB263F07F03DBB21370BD465DF8047B7047786500408D
:4028400080B483B000AF0346FB71044AFB7913700C37BD465DF8047B704700BF0865004080B500AF01E000F045F800F037F8034603F01003002BF6D180BD00BF80B483B056
:4028800000AF0346FB71044AFB7913700C37BD465DF8047B704700BF4865004080B483B000AF0346FB71044AFB7913700C37BD465DF8047B704700BF2865004080B483B01E
:4028C00000AF0346FB71044AFB7913700C37BD465DF8047B704700BF8865004080B400AF034B1B78DBB21846BD465DF8047B70476865004080B400AF034B1B78DBB2184679
:40290000BD465DF8047B70475865004080B500AF022001214FF4804241F6FF7300F00EFA03461A460A4B1A700820012141F6FF7241F6FF7300F036FA03461A46054B1A7078
:40294000054800F063FA012000F072FA80BD00BFD881FF1FD981FF1F3D2B000080B582B000AF444B1B781846FEF7D6FA424B1B781846FEF7D1FA414B1B78FF2B05D1FEF740
:40298000D9FB03461A463D4B1A703C4B1A783B4B1B78104608211A460623FEF7F9FB374B1A78374B9BB2104645F6A0311A46FEF72FFC304B1A78314B1B7810461946FEF7DA
:4029C0004BFB304B1B78FF2B05D1FEF7B3FB03461A462C4B1A702B4B1A782A4B1B78104608211A460723FEF7D3FB264B1978244B9AB2254B9BB2084611461A46FEF708FCE2
:402A00001D4B1A781F4B1B7810461946FEF724FB184B1B7818460121FEF738FA164B1B7818460121FEF732FA00F03EFA0346FB71164A164B1B78DBB243F02003DBB2137080
:402A4000FB79184600F034FA114A114B1B78DBB243F00103DBB213700D4A0D4B1B78DBB243F00203DBB213700A4B02221A600837BD4680BDD881FF1FD981FF1F2481FF1F0D
:402A8000DC81FF1F2581FF1FF481FF1F9B6400407164004080E200E080B500AF074B1B68002B04D1FFF732FF044B01221A60FFF755FF00F049F8024B1B7880BDD481FF1FD7
:402AC0006A64004080B500AF00F0EAF880BD00BF80B485B000AF0346FB71084B1B78FB73FB7B002B02D1FB79002BF6D0FB7B18461437BD465DF8047B704700BF6A640040A2
:402B000080B483B000AF0346FB80FB88C3F10303084A32F813309AB2074B1B889BB29BB2D31A9BB29BB21BB218460C37BD465DF8047B7047F481FF1F0482FF1F80B400AF47
:402B4000BD465DF8047B704780B500AF054B1B78002B04D100F008F8024B01221A7000F019F880BDE481FF1F80B500AF074A074B1B78DBB243F00603DBB213700C2000F046
:402B800069F8034B00221A8080BD00BF01590040FC81FF1F80B582B000AF00F085F90346FB71244A234B1B78DBB243F00103DBB21370214A204B1B78DBB243F00103DBB243
:402BC00013701E4B1B78BB71BB7943F00203BB71BB7943F00103BB71184ABB791370184B18221A70174A174B1B78DBB243F04003DBB21370134A134B1B78DBB223F003035E
:402C0000DBB21370104BC8221A70104B02221A700F4A0F4B1B78DBB243F00803DBB213700A20FEF745FBFB79184600F041F90837BD4680BDAB430040BB43004003590040A9
:402C400006590040055900400059004014460040275B004080B584B000AF0346FB71FB790A2B07D00C2B02D0082B06D008E0C223FB7308E08223FB7305E04223FB7302E0F3
:402C8000C223FB7300BF054AFB7B1370FB79184600F016F81037BD4680BD00BF0259004080B400AF054A054B1B78DBB243F00103DBB21370BD465DF8047B704700590040F9
:402CC00080B485B000AF0346FB71FB790A2B08D00C2B02D0082B08D00BE04FF48053FB600AE04FF48063FB6006E04FF48073FB6002E00023FB6000BF0C4B00221A80FB689F
:402D000042F2107202FB03F303F6C413084A82FB0312D212DB17D31A064A1360064B00221A801437BD465DF8047B7047FE81FF1FAD8BDB680082FF1F0482FF1F90B585B0F4
:402D400002AF0446084611461A462346FB710346BB710B46BB8013467B80114B01221A700F4B1878F979BA7900230093002301930123FEF78FF90A4B1978BA887B8808460A
:402D800011461A46FEF72AF9054B1B7818460221FEF7F4F8024B1B7818460C37BD4690BD2681FF1F90B585B002AF0446084611461A462346FB710346BB710B46BB801346C0
:402DC0007B80114B00221A700F4B1878F979BA7900230093002301930023FEF75BF90A4B1978BA887B88084611461A46FEF7F6F8054B1B7818460221FEF7C0F8024B1B7864
:402E000018460C37BD4690BD2781FF1F80B485B000AF7860054B1B68FB60FB6844337A681A601437BD465DF8047B704708ED00E080B483B000AF0346FB71054AFB795B01EF
:402E4000DBB213700C37BD465DF8047B704700BF01E400E080B483B000AF0346FB71044AFB7913700C37BD465DF8047B704700BF7364004080B483B000AF0346FB71044A1D
:402E8000FB7913700C37BD465DF8047B704700BF77640040000000000230800803D000BF01380046FCD17047EFF3108072B6704780F31088704700BF014B1868704700BF0D
:402EC0008881FF1F0E4B70B51E460E4C0025E41AA410A54204D056F8253098470135F8E700F098FB084B094C1E46E41AA4100025A54204D056F8253098470135F8E770BD61
:402F00002036000020360000203600002836000010B5431E0A44914204D011F8014B03F8014FF8E710BD03460244934202D003F8011BFAE7704700000000000041444331EC
:402F4000200000004144433220000000004F00400C00205100401000505100402000F0510040100000000140001000140140000800400140000A004C0140000210500140C0
:402F80001000000000500140F80D00481000000000000000000000001F000000000000001F1F0000000000001F1F1F00000000001F1F1F1F000000001F1F1F1F1F00000042
:402FC0001F1F1F1F1F1F00001F1F1F1F1F1F1F002013002561178026010080260100802601008026E00E8026C20C8026020080066587186D2102187F6409183E00008026AF
:403000000300802620138026C80C8026E60E8026AA0A802661178026920880267406806D7206802F2002106F008080262002806F008080262002806F2002806F211A40FE1B
:4030400000008626022210660080106E01828026EC0E8026CE0C8026000080067187186D7009183E00008026012080262102187F00000000000000000000000000000000CA
:403080000000000000000000000000000000000000000000000000000000000000000000000000000000000000000000000000000000000000000000000000000000000010
:4030C00000000000000000000000000000000000000000000000000000000000000000000000000000000000000000000000000000000000000000000000000000000000D0
:40310000000000000000000000000000000000000000000000000000000000000000000000000000000000000000000000000000000000000000000000000000000000008F
:40314000000000000000000000000000000000000000000000000000000000000000000000000000000000000000000000000000000000000000000000000000000000004F
:40318000000000000000000000000000000000000000000000000000000000000000000000000000000000000000000000000000000000000000000000000000000000000F
:4031C00000000000000000000000000000000000000000000000000000000000000000000000000000000000000000000000000000000000000000000000000000000000CF
:40320000000000000000000000000000000000000000000000000000000000000000000000000000000000000000000000000000000000000000000000000000000000008E
:40324000000000000000000000000000000000000000000000000000000000000000000000000000000000000000000000000000000000000000000000000000000000004E
:40328000000000000000000000000000000000000000000000000000000000000000000000000000000000000000000000000000000000000000000000000000000000000E
:4032C000000000000000000000000000000800004FFEFF00FB000000A5060000C4FEFF0045EAFF008CFCFF0076350000951700008393FF00F9B1FF0001BE0000D2C40000F4
:40330000DCD9FE003354FE0059980100C2620300D9FEFD0091D9F8003A4B02000A151800FAF923000A1518003A4B020091D9F800D9FEFD00C2620300599801003354FE00A0
:40334000DCD9FE00D2C4000001BE0000F9B1FF008393FF0095170000763500008CFCFF0045EAFF00C4FEFF00A5060000FB0000004FFEFF00E1280700C2510E00E128070087
:4033800048140800C492ED0077181100EE3022007718110088DD060029F5F900499B0E0093361D00499B0E005E5906008739FF005C573000B8AE60005C573000A2810A0065
:4033C00095CFD40000000000FFFFFF00F5FFFF00140000008A0000001BFFFF007FFBFF007B050000681C000001ECFF002F68FF0009DEFF005FDA01007A51010086D6FA00AD
:403400008805F800F07F0900D8B32A004B503C00D8B32A00F07F09008805F80086D6FA007A5101005FDA010009DEFF002F68FF0001ECFF00681C00007B0500007FFBFF0010
:403440001BFFFF008A00000014000000F5FFFF00FFFFFF000000000000000000000000000000000000000000000000000000000000000000000000000000000000000000A5
:40348000000000000000000000000000000000000000000000000000000000000000000000000000000000000000000000000000000000000000000000000000000000000C
:4034C000000000000000000000000000000800002814000000000000000000003C1E0000A914000002010000E1300000BD1E0000BD1E00007E3F0000FF3F000000000000AC
:403500000000000000000000000000000000000021F8050144F80B406AF8418081F80501A5F8130126499421E7F81B0108F9250149DAB82042F907016CF94F0181F90501D9
:40354000EB3CC9210000000000000000000000000000000000000000000000000000000000000000000000000000000000000000000000000000000000000000000000003A
:40358000000000000000000000000000000000000000000000000000000000000000000000000000000000000000000000000000000000000000000000000000000000000B
:4035C00000000000000000000000000000000000000000000000000000000000000000000000000000000000000000000000000000000000000000000000000000000000CB
:403600000000000000000000000000000000000043000000F8B500BFF8BC08BC9E4670474D000000E9040000F8B500BFF8BC08BC9E46704729000000483600000881FF1FC1
:40364000880000007800000000000000807F000003000000006CDC0280BB0000300000000000C05DFFFFFFFF0000000000000000000000000000000000000000000000007A
:4036800000000000000000001036000000000000000000000000000000000000000000000000000000000000000000000000000000000000000000000000000000000000C4
:4036C00000000000000000002881FF1F0000000000000000000000000000000000000000000000000000000000000000000000000000000000000000000000000000000003
:403700000000000000000000000000000000000000000000000000000000000000000000000000000000000000000000000000000000000000000000000000000000000089
:403740000000000000000000000000000000000000000000000000000000000000000000000000000000000000000000000000000000000000000000000000000000000049
:403780000000000000000000000000000000000000000000000000000000000000000000000000000000000000000000000000000000000000000000000000000000000009
:4037C00000000000000000000000000000000000000000000000000000000000000000000000000000000000000000000000000000000000000000000000000000000000C9
:020000040003F7
:0200000480007A
:40000000024F004004520040025B004006640040046500403A000140340101403C020140490301403E0401404D050140430601404A0701403E080140450901403B0A0140DE
:40004000570B0140460C0140470D01404E0E0140300F014054140140401501402A1601404F1701403C18014047190140341A0140441B014013400140094101400742014023
:40008000084301400444014004450140054601400647014007480140064901400A4C0140064D0140035001400251014001100A36201121556010614027842F84800D820D91
:4000C000840D880D8B038F1F840D850D880D8B0D0308040806220A030B010C300F02110819041C081E11210227102B042D012E04303032033404351F3608388039203F1078
:4001000052805405580959045B095C115D105F018402870188028B018C028D019101960198029E029F01A501A602AC02AD01B002B101B401D203D302D804D904DB04DC1103
:40014000DD10DF0101A80404070509800C600F1013801601170819A01A401B041C0C1F012120230C27402A212B622C202F02306032023305344036023A023B943E103F84AE
:4001800058045A426C016D5073807A04812082108345840489208C01C0E7C2E1C4A1CA5FCC9FCE7FD60BDE04E004E2095405580459045B085C115D105F018102830486038F
:4001C00087018F089418970198049A099C049E129F04AE20AF02B003B106B204B308B420B501B618B808BF11C060C103C501C6D0C702C81DC9FFCAFFCBFFCDA0CF04D018B7
:40020000D20FD610D808D90BDA09DB04DC11DD11DF01E040E2C0E440E540E6C0E8C0EAC0ECC0EEC00004060107140A200B0A0C200F40138014401608180419801AA02108DC
:40024000220123082B012C603008324036023714380439013A403E083F84430849285180522053085D805F0968016919788079027A057B017C808B208F089140930497908D
:4002800099209B149C409D089E23A004A120A344A420A580A626A720B110B221B404B712C0E4C257C451CAC8CCEACE5BD002D204D6D0DE1DE604030104040502061207040B
:4002C00009080B100C031220163817081B021F1028042A092B04300431013218330634203518360338023E103F144020410645D04712483349FF4AFF4BFF4DA04F04501899
:400300005405580B59045A085B0B5C115D115F01604062C06440654066C068C06AC06CC06EC0D20FD610D804D904DB04DC11DD10DF010040032005800704090A0C200D204C
:400340000F40120414411608185019401A04221623402B042C602D80328033183401370439183A023C083F40400448084B095008530159405A045B016D016E0A6F1A790235
:400380007A018710880489208A288C808D048E02900491589202950297DB98419B049E639F80A005A128A304A408A607AC61C0C5C25CC4D2CAD4CCCECE57D004D204D60BC9
:4003C000DE09E208E640EA02EC04EE08030210011F0121012E033002310336015280580C59045B0B5C915D105F01800182028A088D018E018F0299049A029B089E04A004F4
:40040000A208A302A708AB04AF01B00CB50CB603B703BA0CBE41BF50C030C104C61DC720C83CC9FFCAFFCBFFCDA0CF04D018D2FFD610D80AD904DA0BDB04DC01DD11DF01B0
:40044000E040E2C0E440E540E6C0E8C0EAC0ECC0EEC000120302048007010A040B020E401302174019481B011E421F40224023082740288829882F403310374039803E01F5
:40048000410A504051025204532059405A2A684069806B147011731277807808790A7D41801086018E0190109141922A93409502988199209E449F81A001A108A30AA506A6
:4004C000A680A720A980AA01AF40B602C00BC213C488CA8FCC14CE88D003D60FDE93E004E218E610EA0C022003080A200F0114181C041E121F012304240425022609270453
:400500002E032F02301831083204330134203603370638083E103F444010410545D046024710482E49FF4AFF4BFF4DA04F04501852805405580859085A085B085C115D11C4
:400540005F01604062C06440654066C068C06AC06CC06EC0D608D804D904DB04DC11DD90DF01008003100510068008250A020E100F021010161017401E541F8025402604BB
:40058000274028252FA1320133103740388039203C023F804420450447404D014F805610574158405D015E48624074017F01800486408C808F20908091209202980599802A
:4005C0009C809F10A104A702AB50AC80B010B680C055C2AFC4A4CADECC15CE9CD010D210D6D8D808DE10E010E610EC1100010801300138023E01540158045B0F5C015D102A
:400600005F018184820885848602880189808B048C108D848E209080910492409440950A9680971098089C029D01A004A160A420A556A610A709A907AA04AB38AD04AE01D0
:40064000AF80B17FB380B6FFB702B902BA0CBE40BF44D602D73CD808D904DB0FDC01DD10DF010022031104800680071908140C860E28100111081320140215211724190279
:400680001C101D4024012608274028012A802E642F403408360137403C803D043E1148014B4058805F4065026C026D016E086F0C7480758077087A807E807F028708881264
:4006C00089018A018C108D018E0C90809104925593809401950198089A209B209C119D419F10A041A104A291A402A608A708A801AE10AF20B510B701C0FFC2F6C4F7CAF0AD
:40070000CCD0CEF0D618D880DE91E020E250E68003042B022F01310233043501402441034260440549FF4AFF4BFF4C024E704F0850045440580459045A045B045C115F0112
:4007400062C0644065016610671168C069016B116C406D016E406F01C024C103C260C405C5CEC6FBC7D0C82FC9FFCAFFCBFFCC23CEF0CF08D004D409D804D904DA04DB049E
:40078000DC11DF01E2C0E440E501E610E711E8C0E901EB11EC40ED01EE40EF01018003150480071008110C101102132014011725249025012610272428112C022F083315CB
:4007C00038903D014008412A4220452A49084A084B424C014E084F4051015210534059195A8060016402661067207802790289428A048C04910492D19320948895029702E1
:400800009980A041A12EA281A804B001B104C0A7C24AC4FACA3ACC07CE8CD0E7D23CD60FD878E010E280E604E88400080104023405E0060210241144121B1398140D1531BE
:400840001630174A1814195E1A2B1BA1303C310733F03403370839083A023B023F40580459045F01801A81D4820185C486208710880489108A1A8BC48C048DE78E108F1845
:4008800091C1922093069402959896049723980499099A089BC69C1B9DC49F10A1D4A201A41BA81BAC1BAD10B107B21EB398B401B578B620BA08BB22BE50D602D72CD8046F
:4008C000D904DB04DF0100040102045A092A0D280E010F40150216021714180419021C101F50204021062240252826292E012F01312A366939083B023C403D043E12650235
:400900006C016D046ED16F14744076028040818487408B408E80C0FCC2FEC4F0CA90CCF7CEF3D880E060070108020E010F012407300232043301340139023B303F05404049
:40094000410645D14702481349FF4AFF4BFF4DA04F045018528054055808590B5A085B085C115D115F01604062C06440654066C068C06AC06CC06EC089018C0196049E04D4
:40098000A409AB01AE02B001B202B404B608B701BE10C030C104C5D0C610C720C82AC9FFCAFFCBFFCDA0CF04D018D280D405D809D909DA09DB09DC11DD11DF01E040E2C01F
:4009C000E440E540E6C0E8C0EAC0ECC0EEC0005005400D080F0210201620174018101A441D481E881F042101222426802F0438483E204040450A482849014F01500C550285
:400A00005620570159015A485E885F017280774079017B027F08810185019040910196049E80A30AA501A6A0A840AA24AD02AF40B640B790C083C2A0C4A4CA20CE2AD0C1B3
:400A4000D204D6DBDE29E601EA0EEC20EE080D01110119011F01210129012F0133015280580459045B085C115D105F01860288048A088C018E02922096089A049E01A210D3
:400A8000A810AA20AF01B030B101B40CB603BA0CBE51D2FFD610D809D908DB04DC11DD10DF0100800220030405200790081009010A210C400F401312140116201880191094
:400AC0001A22204025042A802C402E602F4034013520378039023A023B023F4059105A825B086004610262046302680269196A017015720A7640781079107B027F018004D0
:400B0000880289808A088C158F0292809350950A96049702980199209B0C9D809E40A040A30BA504A680B401C077C29FC4AACAB8CCB0CE10D60FD80FDE1CE204E880EC406F
:400B40000220050207040A030F0211011418150119011C041E121F04210124042609270129012D0130183204330134203506360338083F104020410445D046024710482E71
:400B800049FF4AFF4BFF4DA04F04501852805405580959045A095B095C115D115F01604062C06440654066C068C06AC06CC06EC0D804D904DC11DF01008003100480051137
:400BC000060208250A020E100F02101016101D701E50272828212C012D042E2230043201331134043540371139203A223C043F40452046804D01569057015D015E447501BD
:400C00007E088308844085108B428E288F019084912092069702982599809C109D109E809F30A144A440A702B040B720C055C2AFC424CAFACCF7CE55D0A0D6D0DE20E07070
:400C4000E4C0E8C0EC40580459045C115F018404860988188F0196039C049E129F02AB01AE20B018B220B302B404B501B603B820BF10C030C105C5D0C602C710C82EC9FF66
:400C8000CAFFCBFFCDA0CF04D018D280D405D80AD904DA0ADB0ADC11DD11DF01E040E2C0E440E540E6C0E8C0EAC0ECC0EEC0031005100610085509100A070D080F021108AA
:400CC000131017401D181E821F0424042604271028502C812E042F04300533103580360439243B103D0C3E013F9045084D014F80561057415C045D015E8077407E2082012D
:400D0000912092029504980599809C109F10A080A114A220AB10AC84AD40B440B514C064C2AFC486CAF3CC57CEF6D040D210D6D0DE40EC20EE5810401680332034803B02E3
:400D40003E80530255026320660282028310C430CC30CE60D480D620D8C0E6A001408301970298409C80A502A722C040E6208F0298409C80A502A722A940EC2019018C80A9
:400D80008D0298409C80A502A720C61072207F02DC01DE048304AA20B302EC011B042608A704C608C80144019008A804B208D004EE0120806740A720B040B501C840D880FE
:400DC00087409740AF20B040E640EE101F803401382090289C01B410C601CC01CE08EC0270049008AF80B001DC01EC0410021A021C02000F100A00000301000000000000A3
:400E00000200020103010300400004000000000040000000000000707000700000000000007F7F0000000000000000000055D50000010000000000000000000000000000A9
:400E40000000000000000000000000000000000000000000000000000000000000000000000000000000000000000000000000000000000000000000000000000000000072
:400E80000000000000000000000000000000000000000000000000000000000000000000000000000000000000000000000000000000000000000000000000000000000032
:400EC00000000000000000000000000000000000000000000000000000000000000000000000000000000000000000000000000000000000000000000000000000000000F2
:400F000000000000000000000000000000000000000000000000000000000000000000000000000000000000000000000000000000000000000000000000000000000000B1
:0200000490006A
:040000000080400735
:0200000490105A
:04000000BC90ACAF55
:0200000490303A
:020000007B0E75
:0200000490402A
:4000000000000000000000000000000000000000000000000000000000000000000000000000000000000000000000000000000000000000000000000000000000000000C0
:400040000000000000000000000000000000000000000000000000000000000000000000000000000000000000000000000000000000000000000000000000000000000080
:400080000000000000000000000000000000000000000000000000000000000000000000000000000000000000000000000000000000000000000000000000000000000040
:4000C0000000000000000000000000000000000000000000000000000000000000000000000000000000000000000000000000000000000000000000000000000000000000
:0200000490501A
:0C00000000012E12306900012E2AAB779F
:00000001FF