:400000000080002011000000290200002902000080B500AF024A034B1B68136000F00EF9BC760040FA46004010B5054C237833B9044B13B10448AFF300800123237010BDBA
:400040008881FF1F00000000E0190000084B10B51BB108480849AFF300800848036803B910BD074B002BFBD0BDE81040184700BF00000000E01900008C81FF1F0881FF1F4F
:400080000000000080B582B000AF01F031F801F089F801F029FB00F005FC01F0C3FA00F099FE01F0C9F801F099FB0023FB800023BB8000237B80174B00221A7062B600F0FC
:4000C0005DFF01F08DF90020002100F0FBFB124800F02EFC0120002100F0F4FB0F4800F027FC012000F05AFF0346002B11D000F075FF03469BB21846062100F013F8084B7B
:400100001B886FEA03536FEA13539BB2184601F0A1FBE6E7A481FF1FE4190000EC190000B281FF1F80B485B000AF03460A46FB801346BB80BB880F2B62D801A252F823F09C
:4001400081010000890100009101000099010000A1010000A9010000B1010000B9010000C1010000C9010000D1010000D9010000E1010000E9010000F1010000F90100009F
:4001800040F6FF73FB813EE040F6FE73FB813AE040F6FC73FB8136E040F6F873FB8132E04FF47F63FB812EE04FF47E63FB812AE04FF47C63FB8126E04FF47863FB8122E0C1
:4001C0004FF47063FB811EE04FF46063FB811AE04FF45063FB8116E04FF44063FB8112E04FF43063FB810EE04FF42063FB810AE04FF41063FB8106E04FF40063FB8102E0AF
:4002000040F6FF73FB81FA88FB8913409AB2054B1A80044B1B88DBB218461437BD465DF8047B7047B281FF1F80B500AF01F098FB03461B680C2B00D1FEE7FEE780B586B093
:4002400000AF224B7B61224B3B61204B7B6135E03B691B68FB603B695B68BB603B699B683B6000237B600CE0FB681A68BB681A60BB680433BB60FB680433FB607B680433EB
:400280007B607A683B689A42EED13B69DB683B6000237B6008E0BB6800221A60BB680433BB607B6804337B607A683B689A42F2D13B6910333B617B69013B7B617B69002B00
:4002C000C6D101F053FBFFF7DDFEFEE701000000D820000080B582B000AF184B184A1A60184A184B1B6843F40073136000237B600FE07B68032B04D8134A7B6852F8233008
:4003000000E0124B12497A6841F822307B6801337B607B682F2BECD90E4B1B78DAB20E4B1A700E4B0A4A1A6000F0A2F900F09AFC0B4B00221A600837BD4680BD0CED00E0E7
:400340000004FA0514ED00E000000000290200000080FF1FBC7600400481FF1F08ED00E00081FF1F80B582B000AF78603960786800213A6801F02BFB0837BD4680BD00BFC8
:4003800080B584B000AFF860B9607A60F868B9687A6801F011FB1037BD4680BD80B483B000AF0346FB71FEE780B487B000AF7860396000233B6100237B6127E07B699B0074
:4003C0007A6813441B68BB60BB68FB73BB6823F0FF03BB6014E03B695B003A6813441B781A46BB68134419463B695B003A6813445B780B703B6901333B61FB7B013BFB73B0
:40040000FB7B002BE7D17B6901337B617B691B2BD4D91C37BD465DF8047B704780B582B000AF394B00221A80384B58221A70384B00221A80374B58221A70374B0E221A80C9
:40044000364B18221A70364B17221A80354B18221A70354B02221A704FF0402308221A70324B02221A70324B324A1278D2B21A70314B4FF4E1621A80304B41F251221A8008
:400480000023FB7019237B6014E0FB785B00DAB22B4B1B78DBB203F00103DBB21343DBB203F00303FB704FF4F07001F049FA7B68013B7B607B68002B02D0FB78032BE4D1E1
:4004C0007B68002B02D10320FFF768FF1D4B4FF480721A801B4B07221A701B4B00221A701A4B48221A70174B00221A70184B02221A70184A174B1B78DBB243F00F03DBB20B
:4005000013700837BD4680BD80400040824000408440004086400040884000408A4000408C4000408E4000400043004000420040A14600400B0100492242004020420040BA
:400540002542004004400040064000400840004001400040A243004080B582B000AF2E4B1B78FB712D4B1B78BB712D4B1B787B712C4AFB7903F00703DBB213702A4AFB7901
:400580001B09DBB21370254ABB7943F00303DBB21370234A7B7943F00303DBB21370234B01221A70224B40221A70224B06221A70214B0C221A70214B40221A70204B402295
:4005C0001A70204B40221A701F4B40221A701F4B10221A701E4B20221A701E4B40221A701D4B20221A701D4B1D4A1A601D4B40F203121A801C4B20221A700A2000F08EFB78
:40060000074A7B791370054ABB791370174B44221A700837BD4680BDCF010049F8460040F94600406E5800406F5800400D5100403D5100404D5100406C5800400159004010
:4006400003590040095900400B590040205B0040235B0040285B00402B5B0040405B004005010201445B0040585B00407658004080B586B000AF72B60023FB7513E0FA7D93
:4006800013465B0013445B004B4A13443B613B691A683B699B889BB210461946FFF762FEFB7D0133FB75FB7D072BE8D90023FB751CE0FA7D13469B0013445B003F4A1344F4
:4006C000FB60FB681B68BB60FB685B687B60FB681A7A5B7A1B0213437B807B88B86879681A46FFF74DFEFB7D0133FB75FB7D002BDFD04FF090403249FFF756FE31480421DE
:40070000FFF730FE30480421FFF72CFE2F4A2F4B1B78DBB243F00203DBB213702C4A2C4B1B78DBB243F00203DBB21370294A294B1B78DBB243F04003DBB21370264A264BBA
:400740001B78DBB243F01003DBB21370234824490822FFF715FE234823490822FFF710FE224823490A22FFF70BFE224822490822FFF706FE214822490A22FFF701FE214A99
:40078000204B1B78DBB243F00803DBB213701E4B01221A70FFF742FE1B4B81221A701B4B01221A70FFF7D8FE19480A490E22FFF7E7FD1837BD4680BDF4190000241A00000A
:4007C0007000004800760040087600400350014013500140A0430040C243004002510040A8050048C2510040B005004810510040B805004822510040C4050048405100401A
:40080000CC050048224300400048004004000840B043004080B500AF282000F05DFA032000F0CEF9052000F057FA032000F0C8F90F2000F051FA032000F0C2F9012000F023
:400840004BFA022000F0BCF9052000F045FA062000F0A4F80E2000F0A1F82C2000F09EF8082000F09BF8012000F098F80C2000F095F8032000F092F8052000F02DFA0248C5
:4008800000F0CEF980BD00BF301A000080B500AF0C2000F083F8024B01221A7080BD00BFA681FF1F80B500AF054B1B78002B04D1FFF7B0FF024B01221A70FFF7E7FF80BD06
:4008C000A781FF1F80B582B000AF03460A46FB711346BB71FB79032B26D801A252F823F0F1080000FF0800000D0900001B090000BB79803BDBB2184600F050F815E0BB79FD
:40090000403BDBB2184600F049F80EE0BB796C3BDBB2184600F042F807E0BB792C3BDBB2184600F03BF800E000BF0837BD4680BD80B584B000AF78600123FB737B681B789C
:40094000BB730BE0BB7B184600F00EF8FB7B7A6813441B78BB73FB7B0133FB73BB7B002BF0D11037BD4680BD80B584B000AF0346FB7100F02DF8FB791B09FB73FB7B1846E7
:4009800000F0E2F8FB7903F00F03FB73FB7B184600F0DAF81037BD4680BD00BF80B584B000AF0346FB7100F013F8FB791B09FB73FB7B184600F004F9FB7903F00F03FB7334
:4009C000FB7B184600F0FCF81037BD4680BD00BF80B582B000AF4FF4CA737B60554A554B1B78DBB223F07F03DBB21370524B1B78DBB223F00F03FB704F4AFB7843F00F03E6
:400A0000DBB213704D4B1B78DBB223F00F03FB704A4AFB7813704A4B1B78DBB223F00F03FB70474AFB781370424A424B1B78DBB223F02003DBB213703E4A3E4B1B78DBB258
:400A400043F04003DBB21370002000F067F9394A384B1B78DBB243F01003DBB21370012000F05CF9374B1B78FB70324A314B1B78DBB223F01003DBB21370002000F04EF979
:400A8000FB7803F00803FB702A4A2A4B1B78DBB243F01003DBB21370012000F03FF9254A244B1B78DBB223F01003DBB21370FB78002B02D10A2000F031F97B68013B7B60CF
:400AC000FB78002B02D07B68002BBDD1194A194B1B78DBB223F04003DBB21370154A154B1B78DBB223F07F03DBB21370124A124B1B78DBB223F00F03DBB213700F4B1B781E
:400B0000DBB223F00F03FB700C4AFB7843F00F03DBB213700A4B1B78DBB223F00F03FB70074AFB7843F00F03DBB213700837BD4680BD00BF20510040225100402351004006
:400B4000245100402151004080B582B000AF0346FB711A4A194B1B78DBB243F02003DBB21370164A154B1B78DBB223F04003DBB21370002000F0D2F8104A104B1B78DBB200
:400B800023F00F03DBB213700C490C4B1B78DAB2FB791343DBB243F01003DBB20B70012000F0BCF8054A054B1B78DBB223F01003DBB213700837BD4680BD00BF20510040E7
:400BC00080B582B000AF0346FB71144A134B1B78DBB223F06003DBB21370104A0F4B1B78DBB223F00F03DBB213700C490B4B1B78DAB2FB791343DBB243F01003DBB20B7050
:400C0000012000F08BF8054A044B1B78DBB223F01003DBB213700837BD4680BD2051004080B584B000AF7860FFF7D2FE4020FFF7B5FE0023FB7309E0FB7B7A6813441B7881
:400C40001846FFF791FEFB7B0133FB73FB7B3F2BF2D9FFF7BDFE8020FFF7A0FE1037BD4680BD00BF80B483B000AF134B7F221A70124B80221A707F23FB710CE0FB79DB0032
:400C800003F1804303F5F043FA79013AD2B21A70FB79013BFB71FB79002BEFD1FB79DB0003F1804303F5F04300221A700C37BD465DF8047B704700BF0D81FF1F0C81FF1F57
:400CC00080B483B000AF0346FB7101BE0C37BD465DF8047B704700BF80B582B000AF786008E00C4B1B68184600F02AFE7B68A3F500437B607B68B3F5004FF2D8064B1B68A3
:400D00007A6802FB03F3184600F01AFE0837BD4680BD00BF2081FF1F1881FF1F80B582B000AF0346FB80FB88044A127802FB03F3184600F005FE0837BD4680BD1C81FF1F11
:400D400080B584B000AF03463960FB710F4B1B68FB60FB791F2B02D90020FFF7B1FFFB7903F01F0310339B00FA6813441B68BB60FB7903F01F0310339B00FA6813443A68F6
:400D80001A60BB6818461037BD4680BD08ED00E080B582B000AF03460A46FB711346BB71BB79072B02D90020FFF78AFFFB791F2B02D90020FFF784FFFB7903F01F0303F1AD
:400DC000604303F56443BA795201D2B21A700837BD4680BD80B500AF054B1B78002B04D100F008F8024B01221A7000F025F880BDA881FF1F80B500AF102000F003FA00203B
:400E00000721FFF7C5FF00200849FFF799FF084A074B1B78DBB243F00603DBB213700C2000F084F8034B00221A8080BD9110000001590040BC81FF1F80B582B000AF00F046
:400E400087FD0346FB712E4A2D4B1B78DBB243F00103DBB213702B4A2A4B1B78DBB243F00103DBB21370284A274B1B78DBB243F00803DBB21370254A244B1B78DBB243F00E
:400E80000803DBB21370224B1B78BB71BB7943F00203BB71BB7943F00103BB711C4ABB7913701C4B18221A701B4A1B4B1B78DBB243F04003DBB21370174A174B1B78DBB220
:400EC00023F00303DBB21370144BC8221A70144B02221A70134A134B1B78DBB243F00803DBB213700A20FFF719FF0F4B01221A60FB79184600F030FD0837BD4680BD00BF64
:400F0000AB430040BB430040A2430040B24300400359004006590040055900400059004014460040275B004080E200E080B584B000AF0346FB71FB790A2B07D00C2B02D085
:400F4000082B06D008E0C223FB730BE08223FB7308E04223FB7305E0C223FB730020FFF7AFFE00BF044AFB7B1370FB79184600F04FF81037BD4680BD0259004080B400AF65
:400F8000054A054B1B78DBB243F00103DBB21370BD465DF8047B70470059004080B584B000AF0346FB710C4B1B78DBB203F00103FB73FB7B012B02D0FB79002BF3D0FB7B0F
:400FC000012B04D10120FFF7A9FE034B1B78FB7B18461037BD4680BD0159004080B483B000AF094B1B88FB80084B1B889BB29BB2FA88D31A9BB29BB21BB218460C37BD46CA
:401000005DF8047B704700BFA05B0040B681FF1F80B584B000AF0346FB71FB790A2B08D00C2B02D0082B08D00BE04FF48053FB600DE04FF48063FB6009E04FF48073FB6030
:4010400005E00023FB600020FFF73AFE00BF0C4B00221A80FB6842F2107202FB03F303F6C413084A82FB0312D212DB17D31A064A1360064B00221A801037BD4680BD00BF54
:40108000B481FF1FAD8BDB68B881FF1FB681FF1F80B400AFBD465DF8047B704780B500AF032000F035F880BD80B400AF0D4A0D4B1B78DBB243F06003DBB213700A4A0A4BE3
:4010C0001B78DBB243F00403DBB21370074A074B1B78DBB243F00403DBB21370BD465DF8047B704777580040A4430040B443004080B500AF054B1B78002B04D1034B012246
:401100001A70FFF7CBFFFFF7CFFF80BDA981FF1F80B483B000AF0346FB710C4A0B4B1B78DBB223F00303DBB213700849074B1B78DAB2FB7903F00303DBB21343DBB20B7042
:401140000C37BD465DF8047B704700BF5C58004080B500AF022000F035F880BD80B400AF0D4A0D4B1B78DBB243F06003DBB213700A4A0A4B1B78DBB243F00203DBB2137022
:40118000074A074B1B78DBB243F00203DBB21370BD465DF8047B704777580040A4430040B443004080B500AF054B1B78002B04D1034B01221A70FFF7CBFFFFF7CFFF80BDA6
:4011C000AA81FF1F80B483B000AF0346FB710C4A0B4B1B78DBB223F00303DBB213700849074B1B78DAB2FB7903F00303DBB21343DBB20B700C37BD465DF8047B704700BF3C
:401200005A58004080B483B000AF0346FB71094B084A1278D2B2D1B2FA7922F00702D2B20A43D2B2D2B21A700C37BD465DF8047B704700BF8E40004080B500AF054B1B7864
:40124000002B04D100F008F8024B01221A7000F025F880BDAB81FF1F80B500AF102000F015F901200721FFF793FD01200849FFF767FD084A074B1B78DBB243F00603DBB2B6
:4012800013700C2000F084F8034B00221A8080BD8114000009590040C681FF1F80B582B000AF00F055FB0346FB712E4A2D4B1B78DBB243F00203DBB213702B4A2A4B1B7850
:4012C000DBB243F00203DBB21370284A274B1B78DBB243F00403DBB21370254A244B1B78DBB243F00403DBB21370224B1B78BB71BB7943F00203BB71BB7943F00103BB7128
:401300001C4ABB7913701C4B18221A701B4A1B4B1B78DBB243F04003DBB21370174A174B1B78DBB223F00303DBB21370144BC8221A70144B02221A70134A134B1B78DBB22D
:4013400043F00803DBB213700A20FFF7E7FC0F4B02221A60FB79184600F0FEFA0837BD4680BD00BFAB430040BB430040A2430040B24300400B5900400E5900400D59004075
:4013800008590040164600402F5B004080E200E080B584B000AF0346FB71FB790A2B07D00C2B02D0082B06D008E0C223FB730BE08223FB7308E04223FB7305E0C223FB7359
:4013C0000020FFF77DFC00BF044AFB7B1370FB79184600F015F81037BD4680BD0A59004080B400AF054A054B1B78DBB243F00103DBB21370BD465DF8047B70470859004047
:4014000080B584B000AF0346FB71FB790A2B08D00C2B02D0082B08D00BE04FF48053FB600DE04FF48063FB6009E04FF48073FB6005E00023FB600020FFF742FC00BF0C4B39
:4014400000221A80FB6842F2107202FB03F303F6C413084A82FB0312D212DB17D31A064A1360064B00221A801037BD4680BD00BFC881FF1FAD8BDB68C081FF1FC481FF1F73
:4014800080B400AFBD465DF8047B704780B483B000AF0346FB71094B084A1278D2B2D1B2FA7922F00702D2B20A43D2B2D2B21A700C37BD465DF8047B704700BF8A4000402E
:4014C000F8B500AF354A354B1B78DBB243F01003DBB21370324A324B1B78DBB223F00103DBB213702F4B3F221A702F4B3F221A702E4A2F4B11461A464FF48073084611468D
:401500001A4600F059FA2B4A294B11461A464FF48073084611461A4600F04EFA264A274B11461A464FF48073084611461A4600F043FA234A234B11461A464FF4007308465E
:4015400011461A4600F038FA1F4A204B11461A464FF40073084611461A4600F02DFA1C4B1C4A14461E4604F1400E35462346186859689A68DB680FC5103410367445F4D121
:40158000094B00221A70002000F05CF8052000F06DF8114BF8221A70F8BD00BFA643004080C7004088C700408CC7004000C40040701A000000C5004000C60040B01F00009F
:4015C00000C00040701B000000C20040701D000000C70040701F000084C7004080B400AF0D4A0D4B1B78DBB243F01003DBB213700A4A0A4B1B78DBB243F01003DBB2137089
:40160000074A074B1B78DBB243F00103DBB21370BD465DF8047B7047A6430040B643004080C7004080B500AF054B1B78002B04D1FFF746FF024B01221A70FFF7CFFF80BD2C
:40164000AC81FF1F80B483B000AF0346FB71FB7903F01F03FB71044AFB7913700C37BD465DF8047B704700BF98C7004080B483B000AF0346FB71FB7903F00F03FB71044AED
:40168000FB7913700C37BD465DF8047B704700BF9CC7004080B500AF032000F035F880BD80B400AF0D4A0D4B1B78DBB243F06003DBB213700A4A0A4B1B78DBB243F0010347
:4016C000DBB21370074A074B1B78DBB243F00103DBB21370BD465DF8047B704777580040A4430040B443004080B500AF054B1B78002B04D1034B01221A70FFF7CBFFFFF75D
:40170000CFFF80BDAD81FF1F80B483B000AF0346FB710C4A0B4B1B78DBB223F00303DBB213700849074B1B78DAB2FB7903F00303DBB21343DBB20B700C37BD465DF8047B5E
:40174000704700BF5858004080B500AF074B1F221A7000F099F800F05DF800F06BF8044B08221A70034B00221A7080BD85640040826400408664004080B582B000AF00F030
:40178000E7F80346FB71124A114B1B78DBB243F02003DBB213700F4A0E4B1B78DBB243F01003DBB213700C4A0B4B1B78DBB243F01003DBB21370FB79184600F0CDF800F096
:4017C000A3F800F01BF800F01FF80837BD4680BD95640040926400409664004080B500AF054B1B78002B04D1FFF7AEFF024B01221A70FFF7C1FF80BDAE81FF1F80B400AF95
:40180000BD465DF8047B704780B400AFBD465DF8047B704780B483B000AF054B1B78FB71FB7918460C37BD465DF8047B704700BF6264004080B483B000AF054B1B78FB7177
:40184000FB7918460C37BD465DF8047B704700BF6664004080B483B000AF0346FB8000BF074B1B78DBB203F00403002BF8D0054AFB8813800C37BD465DF8047B704700BF0F
:40188000626400404464004080B582B000AF01E0194B1B88194B1B78DBB203F02003002BF6D100F055F80346FB71154A144B1B78DBB243F00103DBB21370114A104B1B7850
:4018C000DBB223F00103DBB213700E4A0D4B1B78DBB243F00103DBB213700A4A094B1B78DBB223F00103DBB21370FB79184600F033F80837BD4680BD5464004066640040C0
:40190000946400409564004080B400AF094A094B1B78DBB243F00203DBB21370064A064B1B78DBB243F00203DBB21370BD465DF8047B7047A2430040B24300400000000053
:401940000230800803D000BF01380046FCD17047EFF3108072B6704780F31088704700BF014B1868704700BF8481FF1F0E4B70B51E460E4C0025E41AA410A54204D056F8C5
:40198000253098470135F8E700F094FB084B094C1E46E41AA4100025A54204D056F8253098470135F8E770BDC0200000C0200000C0200000C820000010B5431E0A4491422E
:4019C00004D011F8014B03F8014FF8E710BD03460244934202D003F8011BFAE7704700000000000041444331200000004144433220000000505100402000F051004010001D
:401A000000000140800400050140000B00140140000800400140000A004C0140000200500140200080040140280500488000000000000000000000001F000000000000008F
:401A40001F1F0000000000001F1F1F00000000001F1F1F1F000000001F1F1F1F1F0000001F1F1F1F1F1F00001F1F1F1F1F1F1F00201300256117802601008026010080265D
:401A800001008026E00E8026C20C8026020080066587186D6409183E00008026032080262102187FE60E8026C80C8026000080066B87186D6A09183E00008026012080264B
:401AC0002102187F0000000000000000000000000000000000000000000000000000000000000000000000000000000000000000000000000000000000000000000000002C
:401B000000000000000000000000000000000000000000000000000000000000000000000000000000000000000000000000000000000000000000000000000000000000A5
:401B40000000000000000000000000000000000000000000000000000000000000000000000000000000000000000000000000000000000000000000000000000000000065
:401B80000000000000000000000000000000000000000000000000000000000000000000000000000000000000000000000000000000000000000000000000000000000025
:401BC00000000000000000000000000000000000000000000000000000000000000000000000000000000000000000000000000000000000000000000000000000000000E5
:401C000000000000000000000000000000000000000000000000000000000000000000000000000000000000000000000000000000000000000000000000000000000000A4
:401C40000000000000000000000000000000000000000000000000000000000000000000000000000000000000000000000000000000000000000000000000000000000064
:401C80000000000000000000000000000000000000000000000000000000000000000000000000000000000000000000000000000000000000000000000000000000000024
:401CC00000000000000000000000000000000000000000000000000000000000000000000000000000000000000000000000000000000000000000000000000000000000E4
:401D000000000000000000000000000000000000000000000000000000000000000000000000000000000000000000000000000000000000000000000000000000000000A3
:401D40000000000000000000000000000000000000000000000000000000000000000000000000000000000000000000000000000000000010FFFF00D5F5FF00BAD1FF0002
:401D80005591FF002499FF0079F600001BF10400FCC60B003B96130085E5180085E518003B961300FCC60B001BF1040079F600002499FF005591FF00BAD1FF00D5F5FF002A
:401DC00010FFFF0000000000FFFFFF00FBFFFF00ECFFFF00D5FFFF00E6FFFF007C00000051010000A8FFFF006CF5FF006DDEFF001BC8FF0061E7FF00E4A100009672020068
:401E00002AA305006FF90900F8930E009E241200667D13009E241200F8930E006FF909002AA3050096720200E4A1000061E7FF001BC8FF006DDEFF006CF5FF00A8FFFF0044
:401E4000510100007C000000E6FFFF00D5FFFF00ECFFFF00FBFFFF00FFFFFF00000000000000000000000000000000000000000000000000000000000000000000000000FD
:401E80000000000000000000000000000000000000000000000000000000000000000000000000000000000000000000000000000000000000000000000000000000000022
:401EC00000000000000000000000000000000000000000000000000000000000000000000000000000000000000000000000000000000000000000000000000000000000E2
:401F000000000000000000000000000000000000000000000000000000000000000000000000000000000000000000000000000000000000000000000000000000000000A1
:401F4000000000000000000000000000000000000000000000000000000000000000000000000000000000000000000000000000950A000000000000000000003A1D00006B
:401F8000160B0000160B00000000000000000000000000000000000000000000000000000000000000000000000000000000000021F8050144F80B4067F81B8081F80501C0
:401FC000A6F81901C2F807018561922109F9290121F9050188A2A2210000000000000000000000000000000000000000000000000000000000000000000000000000000095
:4020000000000000000000000000000000000000000000000000000000000000000000000000000000000000000000000000000000000000000000000000000000000000A0
:402040000000000000000000000000000000000000000000000000000000000000000000000000000000000000000000000000000000000000000000000000000000000060
:4020800000000000000000000000000000000000000000000000000000000000000000000000000000000000000000000000000043000000F8B500BFF8BC08BC9E4670475E
:4020C0004D000000D5020000F8B500BFF8BC08BC9E46704729000000E82000000881FF1F800000004800000000000000807F00000300000000366E01C05D000018000000C1
:402100000000E02E0000000000000000000000000000000000000000000000000000000000000000B0200000000000000000000000000000000000000000000000000000C1
:402140000000000000000000000000000000000000000000000000000000000000000000000000002481FF1F0000000000000000000000000000000000000000000000009C
:40218000000000000000000000000000000000000000000000000000000000000000000000000000000000000000000000000000000000000000000000000000000000001F
:4021C00000000000000000000000000000000000000000000000000000000000000000000000000000000000000000000000000000000000000000000000000000000000DF
:40220000000000000000000000000000000000000000000000000000000000000000000000000000000000000000000000000000000000000000000000000000000000009E
:40224000000000000000000000000000000000000000000000000000000000000000000000000000000000000000000000000000000000000000000000000000000000005E
:020000040003F7
:0200000480007A
:4000000004520040025B0040016400402F020140250301401F040140420501403C06014039070140010B01402D1401403A150140341601404217014001190140031B0140DF
:4000400008400140034101400C42014004430140034601400247014004480140084901400B4C0140074D0140085001400251014008C009806008610827842F84851F0004A6
:40008000010404040504080A0A100B030C010D04110414071507163818601C041D011F06200424562501260927062A042B042C04307F310738023B025409580459045B04DD
:4000C0005C115D105F01880294029A01A402B201B602BA08BE40D80ADC09DF0100200440051007500A040B200C800E200F081308151016011709181019401C4025022740D7
:400100002D102F1037493CA03D0A5C205D085E4265407908C0F2C2E6C4F4CA60CCD0CEF0D6F0D810DE02120132013A08406241034210440549FF4AFF4BFF4C024E704F088E
:40014000500458085A045C095D015F0162C0644065016610671168C069016B116C406D016E406F010520071A0A800C800D020E2814201510161017011B081C201DB81E6AF6
:400180001F10240C268027082E202F10369037084004418845A849804A044C044D885402563057446280630167016C886D1A6F1374407601770279409010951896449720E6
:4001C0009C209D189E019F19A102A4D0A505A611A704A840C0E0C2F8C470CA60CC70D07ED23CD810DE08E60800020201051D060209010B020E010F10111D1502170819022D
:400200001B041D021F0D211D291D2A042D0D2F10310F3203351036043A803B023E043F105440580A59045B045C195D105F0180048202850E86018A028B209513970499057F
:400240009B3AA604A904AB39B330B406B50FB601B920BA80BE10D809D904DB04DC19DF01001802400408058006401020172019801A081D401E2020042310252027402920C9
:400280002C882F0231183510374A38043B103C203D083E803F804520460866A8684469026A806B206C046D506FA0764079107C087F2090109548968499309B0AA09AA10CCE
:4002C000A34AA980C0BEC444CAB4CCF6CE76D870DE44E6080001020203010F0212011A02220427042D022F0430033204350137063A083B203E013F405808590B5B045C993B
:400300005F0180048202830187029E04A104A302A601A704AA02B301B401B506B606BA20BB08BE40BF10D80AD90BDC99DF0102400380064009200B400D8013021718184051
:4003400019081C09212022402404271029082A402FA0380239803C083F0159115A8860556A046B4270017108730979807B407E807F209010918092089340960499119A4045
:400380009F40A180A280A360A508B310C018C28AC468CACACEC9D60FD80FDEC9E402EC20EE0C0014020A0E020F0111041302160822012A042B022E102F04310632013406B3
:4003C000361837013A083B803E503F01580B590A5B045C995F0182028B02920196049E089F01A012A209A704AA10AD02AF04B003B101B204B306B418BA08BB02BE11BF04D9
:40040000D80AD90BDB04DC99DF01010105420640094A0E1010081240140A150219191E1A201021022440254029082A402D402E082F28334035023A203C804FC05C405E2A15
:400440006180628064046620682869896A20718072287340780479017C027E107F8091429208931095089604980899409A40A040A210A388A420A804B002B220C098C22DEE
:40048000C4DACA3ACC88CE14D6F0DEC3E804E804E402ECA0EE0C338036803B023C107C107F80CC30CE609702A680A7800310570487809702A304A680A780AB04C010D44097
:4004C000E610EE209702A680AB10E8201B018701C6084608D00425029702A680C8801A028601AB01AE80B102C640E440EE301F8034016501664099019E08A901C601CC01DE
:40050000D601D80186089E08AB80AF80B001B240EC0500020101080209010A020B0111011B01000F100A00000000000031000400380046003500000030000000264C483060
:40054000421930623510006830000500042E00510504300000000000400026001E070178000020A00000410026031000050ECDFB3DFFFFFF2300F00804000000000002205C
:4005800004040404111100010000C00040011011C0010011400140010000000000000000000000000000000000000000000002000408080008000000000000C0C000C00034
:4005C00000000000007F7F000000000000000000000000000600000000000000000000000000000000000000000000000000000000000000000000000000000000000000F7
:4006000000000000000000000000000000000000000000000000000000000000000000000000000000000000000000000000000000000000000000000000000000000000BA
:40064000000000000000000000000000000000000000000000000000000000000000000000000000000000000000000000000000000000000000000000000000000000007A
:40068000000000000000000000000000000000000000000000000000000000000000000000000000000000000000000000000000000000000000000000000000000000003A
:4006C00000000000000000000000000000000000000000000000000000000000000000000000000000000000000000000000000000000000000000000000000000000000FA
:0200000490006A
:0400000008024007AB
:0200000490105A
:04000000BC90ACAF55
:0200000490303A
:020000005D8D14
:0200000490402A
:4000000000000000000000000000000000000000000000000000000000000000000000000000000000000000000000000000000000000000000000000000000000000000C0
:400040000000000000000000000000000000000000000000000000000000000000000000000000000000000000000000000000000000000000000000000000000000000080
:400080000000000000000000000000000000000000000000000000000000000000000000000000000000000000000000000000000000000000000000000000000000000040
:4000C0000000000000000000000000000000000000000000000000000000000000000000000000000000000000000000000000000000000000000000000000000000000000
:0200000490501A
:0C00000000012E12306900012E1E8DF64A
:00000001FF