:400000000080002011000000810200008102000080B500AF024A034B1B68136000F03AF9BC760040FA46004010B5054C237833B9044B13B10448AFF300800123237010BDDE
:400040009081FF1F0000000068290000084B10B51BB108480849AFF300800848036803B910BD074B002BFBD0BDE81040184700BF00000000682900009481FF1F0881FF1F0F
:400080000000000098B500AF01F008FA01F060FA00F086F801F022FD01F0B2FC00F028FC01F044FB01F0ACF801F082FA02F0F0F902F0DCFB02F002FA01F0BAFB62B602F061
:4000C000FDF90020002100F023FC2C4800F056FC0120002100F01CFC294800F04FFC294B1B78002B25D0284B1B78184601F050FC264B1B78184601F05BFC01F069FC0346FD
:400100001B029CB201F070FC03469BB2224613439BB29AB21E4B1A801D4B1B886FEA03536FEA13539BB2184601F0BEFB154B00221A70184B1B78002B1ED0174B1B88DB0836
:400140009BB201339BB2184601F0ECFC124B1B881B099BB2184601F0F5FC002002F0A2FB002002F08FFB012000F03EF80B4B00221A80084B00221A70B1E700BF6C2900003A
:4001800074290000E581FF1FED81FF1FEC81FF1FB481FF1FE481FF1FF081FF1FAC81FF1F80B500AF01F0F6FF02F06CF801F002FF01F098FD01F086FE01F00CFE01F072FFED
:4001C00001F018FD01F0AEFF02F024F801F0BAFE01F050FD01F03EFE01F0C4FD01F02AFF01F0D0FC00BF80BD80B584B000AF0346FB71FB795B08FB73FB79184601F0EAFFF6
:40020000FB79184602F05EF8FB79184601F0F2FEFB79184601F086FDFB79184601F072FEFB79184601F0F6FDFB79184601F05AFFFB79184601F0FEFCFB7B184601F0DAFF4B
:40024000FB7B184602F04EF8FB7B184601F0E2FEFB7B184601F076FDFB7B184601F062FEFB7B184601F0E6FDFB7B184601F04AFFFB7B184601F0EEFC00BF1037BD4680BDC5
:4002800080B500AF02F030FB03461B680C2B00D1FEE7FEE780B586B000AF224B7B61224B3B61204B7B6135E03B691B68FB603B695B68BB603B699B683B6000237B600CE0A7
:4002C000FB681A68BB681A60BB680433BB60FB680433FB607B6804337B607A683B689A42EED13B69DB683B6000237B6008E0BB6800221A60BB680433BB607B6804337B606C
:400300007A683B689A42F2D13B6910333B617B69013B7B617B69002BC6D102F0EBFAFFF7B1FEFEE7010000006030000080B582B000AF184B184A1A60184A184B1B6843F4AE
:400340000073136000237B600FE07B68032B04D8134A7B6852F8233000E0124B12497A6841F822307B6801337B607B682F2BECD90E4B1B78DAB20E4B1A700E4B0A4A1A6065
:4003800000F098F900F094FC0B4B00221A600837BD4680BD0CED00E00004FA0514ED00E000000000810200000080FF1FBC7600400481FF1F08ED00E00081FF1F80B582B0FD
:4003C00000AF78603960786800213A6802F0C3FA0837BD4680BD00BF80B584B000AFF860B9607A60F868B9687A6802F0A9FA1037BD4680BD80B483B000AF0346FB71FEE7BB
:4004000080B487B000AF7860396000233B6100237B6127E07B699B007A6813441B68BB60BB68FB73BB6823F0FF03BB6014E03B695B003A6813441B781A46BB68134419467A
:400440003B695B003A6813445B780B703B6901333B61FB7B013BFB73FB7B002BE7D17B6901337B617B69272BD4D91C37BD465DF8047B704780B582B000AF364B02221A803C
:40048000354B18221A70354B0E221A80344B18221A70344B2F221A80334B18221A70334B02221A704FF0402308221A70304B04221A70304B304A1278D2B21A702F4B4FF4C8
:4004C00071621A802E4B41F251221A800023FB7019237B6014E0FB785B00DAB2294B1B78DBB203F00103DBB21343DBB203F00303FB704FF4F07002F0E7F97B68013B7B6015
:400500007B68002B02D0FB78032BE4D17B68002B02D10320FFF76EFF1B4B4FF480721A80194B07221A70194B00221A70184B48221A70154B00221A70164B02221A70164AF0
:40054000154B1B78DBB243F00703DBB213700837BD4680BD80400040824000408440004086400040884000408A4000400043004000420040A146004089010049224200406E
:40058000204200402542004004400040064000400840004001400040A243004080B582B000AF2F4B1B78FB712E4B1B78BB712E4B1B787B712D4AFB7903F00703DBB2137003
:4005C0002B4AFB791B09DBB21370264ABB7943F00303DBB21370244A7B7943F00303DBB21370244B41F241021A80234B40221A70224B87221A70224B0C221A70214B4022DA
:400600001A70214B40221A70204B40221A70204B40221A701F4B70221A701F4B20221A701E4B40221A701E4B20221A701D4B4FF482721A801C4B40F205121A801B4B802259
:400640001A700A2000F080FD074A7B791370054ABB791370164B44221A700837BD4680BDCF010049F8460040F94600406E5800406F5800400C5100403D5100404D5100404F
:400680006C5800400159004003590040095900400B590040205B0040235B0040285B00402B5B0040425B0040445B0040585B00407658004080B586B000AF72B60023FB7526
:4006C00013E0FA7D13465B0013445B004C4A13443B613B691A683B699B889BB210461946FFF76CFEFB7D0133FB75FB7D072BE8D90023FB751CE0FA7D13469B0013445B001F
:40070000404A1344FB60FB681B68BB60FB685B687B60FB681A7A5B7A1B0213437B807B88B86879681A46FFF757FEFB7D0133FB75FB7D002BDFD04FF090403349FFF760FE45
:4007400032480421FFF73AFE314832490422FFF743FE314A304B1B78DBB243F00203DBB213702E4A2D4B1B78DBB243F00203DBB213702B4A2A4B1B78DBB243F04003DBB298
:400780001370284A274B1B78DBB243F01003DBB21370254825490A22FFF71EFE244825490A22FFF719FE244824490822FFF714FE234824490822FFF70FFE2348234908221F
:4007C000FFF70AFE224A224B1B78DBB243F00803DBB213701F4B01221A70FFF74BFE1D4BC1221A701C4B01221A70FFF7D7FE1B480B490E22FFF7F0FD1837BD4680BD00BF92
:400800007C290000AC290000A00000480076004008760040040D00480350014013500140A0430040C243004000510040D40C0048C0510040E00C0048F2510040EC0C0048E8
:4008400042510040F40C004852510040FC0C0048224300400048004004000840B043004080B500AF282000F04DFC032000F0CEF9052000F047FC032000F0C8F90F2000F0F4
:4008800041FC032000F0C2F9012000F03BFC022000F0BCF9052000F035FC062000F0A4F80E2000F0A1F82C2000F09EF8082000F09BF8012000F098F80C2000F095F8032085
:4008C00000F092F8052000F01DFC024800F0CEF980BD00BFB829000080B500AF0C2000F083F8024B01221A7080BD00BFBE81FF1F80B500AF054B1B78002B04D1FFF7B0FF38
:40090000024B01221A70FFF7E7FF80BDBF81FF1F80B582B000AF03460A46FB711346BB71FB79032B26D801A252F823F03D0900004B0900005909000067090000BB79803BAB
:40094000DBB2184600F050F815E0BB79403BDBB2184600F049F80EE0BB796C3BDBB2184600F042F807E0BB792C3BDBB2184600F03BF800E000BF0837BD4680BD80B584B09F
:4009800000AF78600123FB737B681B78BB730BE0BB7B184600F00EF8FB7B7A6813441B78BB73FB7B0133FB73BB7B002BF0D11037BD4680BD80B584B000AF0346FB7100F017
:4009C0002DF8FB791B09FB73FB7B184600F0E2F8FB7903F00F03FB73FB7B184600F0DAF81037BD4680BD00BF80B584B000AF0346FB7100F013F8FB791B09FB73FB7B1846C9
:400A000000F004F9FB7903F00F03FB73FB7B184600F0FCF81037BD4680BD00BF80B582B000AF4FF4CA737B60554A554B1B78DBB223F07F03DBB21370524B1B78DBB223F09F
:400A40000F03FB704F4AFB7843F00F03DBB213704D4B1B78DBB223F00F03FB704A4AFB7813704A4B1B78DBB223F00F03FB70474AFB781370424A424B1B78DBB223F020038B
:400A8000DBB213703E4A3E4B1B78DBB243F04003DBB21370002000F057FB394A384B1B78DBB243F01003DBB21370012000F04CFB374B1B78FB70324A314B1B78DBB223F08E
:400AC0001003DBB21370002000F03EFBFB7803F00803FB702A4A2A4B1B78DBB243F01003DBB21370012000F02FFB254A244B1B78DBB223F01003DBB21370FB78002B02D16F
:400B00000A2000F021FB7B68013B7B60FB78002B02D07B68002BBDD1194A194B1B78DBB223F04003DBB21370154A154B1B78DBB223F07F03DBB21370124A124B1B78DBB2CF
:400B400023F00F03DBB213700F4B1B78DBB223F00F03FB700C4AFB7843F00F03DBB213700A4B1B78DBB223F00F03FB70074AFB7843F00F03DBB213700837BD4680BD00BFBC
:400B8000505100405251004053510040545100405151004080B582B000AF0346FB711A4A194B1B78DBB243F02003DBB21370164A154B1B78DBB223F04003DBB21370002047
:400BC00000F0C2FA104A104B1B78DBB223F00F03DBB213700C490C4B1B78DAB2FB791343DBB243F01003DBB20B70012000F0ACFA054A054B1B78DBB223F01003DBB2137023
:400C00000837BD4680BD00BF5051004080B582B000AF0346FB71144A134B1B78DBB223F06003DBB21370104A0F4B1B78DBB223F00F03DBB213700C490B4B1B78DAB2FB7921
:400C40001343DBB243F01003DBB20B70012000F07BFA054A044B1B78DBB223F01003DBB213700837BD4680BD5051004080B584B000AF7860FFF7D2FE4020FFF7B5FE002387
:400C8000FB7309E0FB7B7A6813441B781846FFF791FEFB7B0133FB73FB7B3F2BF2D9FFF7BDFE8020FFF7A0FE1037BD4680BD00BF80B483B000AF134B7F221A70124B80222C
:400CC0001A707F23FB710CE0FB79DB0003F1804303F5F043FA79013AD2B21A70FB79013BFB71FB79002BEFD1FB79DB0003F1804303F5F04300221A700C37BD465DF8047B11
:400D0000704700BF0D81FF1F0C81FF1F80B485B000AF03460A46FB711346BB710123FB60FB79172B2FD8BB79002B0ED0FB791A01184B1344FA791101164A0A441278D2B241
:400D400042F02002D2B21A700DE0FB791A01114B1344FA7911010F4A0A441278D2B222F02002D2B21A70FB791A010A4B1344FA791101084A0A441278D2B242F00102D2B23F
:400D80001A700023FB60FB6818461437BD465DF8047B70471070004080B485B000AF0346FB710123FB60FB79172B1DD8FB791A01114B1344FA7911010F4A0A441279D2B25D
:400DC00042F00402D2B21A71FB791A010A4B1344FA791101084A0A441278D2B242F00102D2B21A700023FB60FB6818461437BD465DF8047B704700BF1070004080B485B0FB
:400E000000AF03460A46FB711346BB710123FB60FB79172B18D8FB791A010F4B13441B78DBB223F00E03FB72FB791A010A4B1344BA7902F00702D2B25200D1B2FA7A0A43E0
:400E4000D2B21A700023FB60FB6818461437BD465DF8047B704700BF1070004080B485B000AF0346FB710B46BB8013467B800123FB60BB8841F6FF72934202D14FF4005378
:400E8000BB807B8841F6FF72934202D14FF400537B80FB79172B17D8FB79DB0003F1804303F5EC430433BB60BB68BA881A80FB79DB0003F1804303F5EC430633BB60BB684C
:400EC0007A881A800023FB60FB6818461437BD465DF8047B704700BF80B485B000AF03460A46FB711346BB710123FB60FB79172B07D8FB791A01064B1344BA795A72002370
:400F0000FB60FB6818461437BD465DF8047B70471070004090B484B000AF0446084611461A462346FB710346BB710B467B7113463B710123FB60FB79172B34D8FB79DB006A
:400F400003F1804303F5EC43BA7902F07F02D1B27A79D201D2B20A43D2B21A70FB79DB0003F1804303F5EC433A7E1201D1B23A7902F00F02D2B20A43D2B25A70FB79DB0026
:400F800003F1804303F5EC433A7F02F00F02D2B29A70FB79DB0003F1804303F5EC430022DA700023FB60FB6818461037BD4690BC704700BF80B582B000AFFF23FB7101F090
:400FC0008BFC0346BB71104B1B78182B12D90F4B1B78FB710C4B1B78013BDAB20A4B1A70FB79DB0003F1804303F5F0431B78DAB2064B1A70BB79184601F072FCFB79184601
:401000000837BD4680BD00BF0C81FF1F0D81FF1F90B484B000AF0446084611461A462346FB710346BB800B46BB711346FB700123FB60FB795BB2002B23DBBB8823F47F63A6
:4010400023F00F039BB2002B1BD1FB79DB0003F1804303F5F043BB60BB68BA881A80FB79DB0003F1804303F5F043BA799A70FB79DB0003F1804303F5F043FA78DA7000231E
:40108000FB60FB6818461037BD4690BC704700BF80B485B000AF0346FB710B46BB8013467B800123FB60FB795BB2002B17DBFB79DB0003F1804303F5F0430433BB60BB6898
:4010C000BA881A80FB79DB0003F1804303F5F0430633BB60BB687A881A800023FB60FB6818461437BD465DF8047B704780B483B000AF0346FB7101BE0C37BD465DF8047B14
:40110000704700BF80B582B000AF786008E00C4B1B68184601F0D8FB7B68A3F500437B607B68B3F5004FF2D8064B1B687A6802FB03F3184601F0C8FB0837BD4680BD00BF31
:401140002081FF1F1881FF1F80B582B000AF0346FB80FB88044A127802FB03F3184601F0B3FB0837BD4680BD1C81FF1F80B584B000AF03463960FB710F4B1B68FB60FB7988
:401180001F2B02D90020FFF7B1FFFB7903F01F0310339B00FA6813441B68BB60FB7903F01F0310339B00FA6813443A681A60BB6818461037BD4680BD08ED00E080B582B006
:4011C00000AF03460A46FB711346BB71BB79072B02D90020FFF78AFFFB791F2B02D90020FFF784FFFB7903F01F0303F1604303F56443BA795201D2B21A700837BD4680BDD2
:4012000080B500AF054B1B78002B04D100F008F8024B01221A7000F023F880BDC081FF1F80B500AF00200721FFF7C8FF00200949FFF79CFF084A084B1B78DBB243F0060369
:40124000DBB213700C2000F071F8044B00221A8080BD00BFFD130000095900400082FF1F80B582B000AF01F037FB0346FB71264A254B1B78DBB243F00203DBB21370234ADD
:40128000224B1B78DBB243F00203DBB21370204B1B78BB71BB7943F00203BB71BB7943F00103BB711A4ABB7913701A4B18221A70194A194B1B78DBB243F04003DBB213704F
:4012C000154A154B1B78DBB223F00303DBB21370124B4E221A70124B02221A70114A114B1B78DBB243F00803DBB213700A20FFF72BFF0D4B01221A60FB79184601F0F0FA73
:401300000837BD4680BD00BFAB430040BB4300400B5900400E5900400D59004008590040164600402F5B004080E200E080B584B000AF0346FB71FB790A2B07D00C2B02D073
:40134000082B06D008E0C223FB730BE08223FB7308E04223FB7305E0C223FB730020FFF7C5FE00BF044AFB7B1370FB79184600F005F81037BD4680BD0A59004080B584B007
:4013800000AF0346FB71FB790A2B08D00C2B02D0082B08D00BE04FF48053FB600DE04FF48063FB6009E04FF48073FB6005E00023FB600020FFF79AFE00BF0C4B00221A800D
:4013C000FB6842F2107202FB03F303F6C413084A82FB0312D212DB17D31A064A1360064B00221A801037BD4680BD00BFF881FF1FAD8BDB68FC81FF1FFA81FF1F80B400AF2B
:401400000B4B1B889BB29AB20A4B1A80084B1B78DAB2094B1A70094B1B78DAB2084B1A70084B01221A70BD465DF8047B704700BFA25B0040E881FF1FED81FF1FA35B0040B0
:40144000EC81FF1FE581FF1F80B500AF032000F035F880BD80B400AF0D4A0D4B1B78DBB243F06003DBB213700A4A0A4B1B78DBB243F00203DBB21370074A074B1B78DBB2D0
:4014800043F00203DBB21370BD465DF8047B704777580040A4430040B443004080B500AF054B1B78002B04D1034B01221A70FFF7CBFFFFF7CFFF80BDC181FF1F80B483B09F
:4014C00000AF0346FB710C4A0B4B1B78DBB223F00303DBB213700849074B1B78DAB2FB7903F00303DBB21343DBB20B700C37BD465DF8047B704700BF5A58004080B500AF13
:40150000032000F035F880BD80B400AF0D4A0D4B1B78DBB243F06003DBB213700A4A0A4B1B78DBB243F00403DBB21370074A074B1B78DBB243F00403DBB21370BD465DF85E
:40154000047B704777580040A4430040B443004080B500AF054B1B78002B04D1034B01221A70FFF7CBFFFFF7CFFF80BDC281FF1F80B483B000AF0346FB710C4A0B4B1B78DA
:40158000DBB223F00303DBB213700849074B1B78DAB2FB7903F00303DBB21343DBB20B700C37BD465DF8047B704700BF5C58004080B400AF034B01221A60BD465DF8047B32
:4015C000704700BF00E100E0F8B500AF354A354B1B78DBB243F01003DBB21370324A324B1B78DBB223F00103DBB213702F4B3F221A702F4B3F221A702E4A2F4B11461A4630
:401600004FF48073084611461A4601F099F92B4A294B11461A464FF48073084611461A4601F08EF9264A274B11461A464FF48073084611461A4601F083F9234A234B114626
:401640001A464FF40073084611461A4601F078F91F4A204B11461A464FF40073084611461A4601F06DF91C4B1C4A14461E4604F1400E35462346186859689A68DB680FC544
:40168000103410367445F4D1094B00221A70032000F05CF8002000F06DF8114BF8221A70F8BD00BFA643004080C7004088C700408CC7004000C40040F829000000C50040D6
:4016C00000C60040382F000000C00040F82A000000C20040F82C000000C70040F82E000084C7004080B400AF0D4A0D4B1B78DBB243F01003DBB213700A4A0A4B1B78DBB2AC
:4017000043F01003DBB21370074A074B1B78DBB243F00103DBB21370BD465DF8047B7047A6430040B643004080C7004080B500AF054B1B78002B04D1FFF746FF024B012260
:401740001A70FFF7CFFF80BDC381FF1F80B483B000AF0346FB71FB7903F01F03FB71044AFB7913700C37BD465DF8047B704700BF98C7004080B483B000AF0346FB71FB7909
:4017800003F00F03FB71044AFB7913700C37BD465DF8047B704700BF9CC7004080B500AF074B1F221A7000F099F800F05DF800F06BF8044B00221A70034B00221A7080BDF4
:4017C00080640040876400408D64004080B582B000AF01F081F80346FB71124A114B1B78DBB243F02003DBB213700F4A0E4B1B78DBB243F01003DBB213700C4A0B4B1B788F
:40180000DBB243F01003DBB21370FB79184601F067F800F0A3F800F01BF800F01FF80837BD4680BD90640040976400409D64004080B500AF054B1B78002B04D1FFF7AEFF75
:40184000024B01221A70FFF7C1FF80BDC481FF1F80B400AFBD465DF8047B704780B400AFBD465DF8047B704780B483B000AF054B1B78FB71FB7918460C37BD465DF8047BE5
:40188000704700BF6764004080B483B000AF054B1B78FB71FB7918460C37BD465DF8047B704700BF6D64004080B483B000AF0346FB8000BF074B1B78DBB203F00403002B9F
:4018C000F8D0054AFB8813800C37BD465DF8047B704700BF676400404A64004080B582B000AF01E0194B1B88194B1B78DBB203F02003002BF6D100F0EFFF0346FB71154AB6
:40190000144B1B78DBB243F00103DBB21370114A104B1B78DBB223F00103DBB213700E4A0D4B1B78DBB243F00103DBB213700A4A094B1B78DBB223F00103DBB21370FB796A
:40194000184600F0CDFF0837BD4680BD5A6400406D6400409A6400409B64004080B400AF094A094B1B78DBB243F00103DBB21370064A064B1B78DBB243F00103DBB2137049
:40198000BD465DF8047B7047A2430040B243004080B483B000AF0346FB71044AFB7913700C37BD465DF8047B704700BF7465004080B483B000AF0346FB71044AFB79137076
:4019C0000C37BD465DF8047B704700BF7C64004080B400AF034B1B78DBB21846BD465DF8047B70476B64004080B400AF034B1B78DBB21846BD465DF8047B704764650040A5
:401A000080B500AF054B1B78002B04D100F008F8024B01221A7000F061F880BDC581FF1F80B582B000AF284A274B1B78DBB243F00203DBB21370254B1B78DBB223F0700393
:401A4000FB71224AFB7943F02003DBB21370204A1F4B1B78DBB223F03003DBB213701C4A1B4B1B78DBB243F03003DBB21370184A174B1B78DBB223F00F03DBB21370144A91
:401A8000134B1B78DBB243F00F03DBB21370012000F048F8002000F055F8002000F062F80C4A0C4B1B78DBB243F00103DBB21370094A094B1B78DBB243F00103DBB2137019
:401AC0000837BD4680BD00BF004F0040024F00400B4F0040A3430040014F004080B400AF0D4A0D4B1B78DBB243F00103DBB213700A4A0A4B1B78DBB243F00103DBB213702F
:401B0000074A074B1B78DBB243F00103DBB21370BD465DF8047B7047A3430040B3430040004F004080B483B000AF0346FB80044AFB8813800C37BD465DF8047B704700BF54
:401B4000044F004080B483B000AF0346FB80044AFB8813800C37BD465DF8047B704700BF064F004080B483B000AF0346FB71044AFB7913700C37BD465DF8047B704700BFCF
:401B8000034F004080B500AF054B1B78002B04D100F008F8024B01221A7000F02BF880BDC681FF1F80B582B000AF104B1B78DBB223F03F03FB710D4AFB7943F00A03DBB243
:401BC00013700B4A0A4B1B78DBB243F00103DBB21370012000F01EF8012000F02BF8002000F038F80837BD4680BD00BF756400409864004080B400AF054A054B1B78DBB281
:401C000063F07F03DBB21370BD465DF8047B70477564004080B483B000AF0346FB71044AFB7913700C37BD465DF8047B704700BF0864004080B483B000AF0346FB71044AB3
:401C4000FB7913700C37BD465DF8047B704700BF4864004080B483B000AF0346FB71044AFB7913700C37BD465DF8047B704700BF2864004080B500AF054B1B78002B04D1BE
:401C800000F008F8024B01221A7000F02BF880BDC781FF1F80B582B000AF104B1B78DBB223F03F03FB710D4AFB7943F00A03DBB213700B4A0A4B1B78DBB243F00103DBB289
:401CC0001370012000F01EF8012000F02BF8002000F038F80837BD4680BD00BF756500409665004080B400AF054A054B1B78DBB263F07F03DBB21370BD465DF8047B70471E
:401D00007565004080B483B000AF0346FB71044AFB7913700C37BD465DF8047B704700BF0665004080B483B000AF0346FB71044AFB7913700C37BD465DF8047B704700BF9E
:401D40004665004080B483B000AF0346FB71044AFB7913700C37BD465DF8047B704700BF2665004080B500AF054B1B78002B04D100F008F8024B01221A7000F02BF880BD0C
:401D8000C881FF1F80B582B000AF104B1B78DBB223F03F03FB710D4AFB7943F00C03DBB213700B4A0A4B1B78DBB243F00103DBB21370012000F01EF8012000F02BF80020C1
:401DC00000F038F80837BD4680BD00BF716400409E64004080B400AF054A054B1B78DBB263F07F03DBB21370BD465DF8047B70477164004080B483B000AF0346FB71044AEB
:401E0000FB7913700C37BD465DF8047B704700BF0E64004080B483B000AF0346FB71044AFB7913700C37BD465DF8047B704700BF4E64004080B483B000AF0346FB71044ABE
:401E4000FB7913700C37BD465DF8047B704700BF2E64004080B500AF054B1B78002B04D100F008F8024B01221A7000F02BF880BDC981FF1F80B582B000AF104B1B78DBB20F
:401E800023F03F03FB710D4AFB7943F00C03DBB213700B4A0A4B1B78DBB243F00103DBB21370012000F01EF8012000F02BF8002000F038F80837BD4680BD00BF7F64004037
:401EC0009F64004080B400AF054A054B1B78DBB263F07F03DBB21370BD465DF8047B70477F64004080B483B000AF0346FB71044AFB7913700C37BD465DF8047B704700BFC7
:401F00000F64004080B483B000AF0346FB71044AFB7913700C37BD465DF8047B704700BF4F64004080B483B000AF0346FB71044AFB7913700C37BD465DF8047B704700BFBB
:401F40002F64004080B500AF054B1B78002B04D100F008F8024B01221A7000F02BF880BDCA81FF1F80B582B000AF104B1B78DBB223F03F03FB710D4AFB7943F00A03DBB23A
:401F800013700B4A0A4B1B78DBB243F00103DBB21370012000F01EF8012000F02BF8002000F038F80837BD4680BD00BF796400409764004080B400AF054A054B1B78DBB2BA
:401FC00063F07F03DBB21370BD465DF8047B70477964004080B483B000AF0346FB71044AFB7913700C37BD465DF8047B704700BF0764004080B483B000AF0346FB71044AED
:40200000FB7913700C37BD465DF8047B704700BF4764004080B483B000AF0346FB71044AFB7913700C37BD465DF8047B704700BF2764004080B500AF054B1B78002B04D1FC
:4020400000F008F8024B01221A7000F02BF880BDCB81FF1F80B582B000AF104B1B78DBB223F03F03FB710D4AFB7943F00A03DBB213700B4A0A4B1B78DBB243F00103DBB2C1
:402080001370012000F01EF8012000F02BF8002000F038F80837BD4680BD00BF7E6400409C64004080B400AF054A054B1B78DBB263F07F03DBB21370BD465DF8047B70474D
:4020C0007E64004080B483B000AF0346FB71044AFB7913700C37BD465DF8047B704700BF0C64004080B483B000AF0346FB71044AFB7913700C37BD465DF8047B704700BFCE
:402100004C64004080B483B000AF0346FB71044AFB7913700C37BD465DF8047B704700BF2C64004080B500AF054B1B78002B04D100F008F8024B01221A7000F02BF880BD3E
:40214000CC81FF1F80B582B000AF104B1B78DBB223F03F03FB710D4AFB7943F00A03DBB213700B4A0A4B1B78DBB243F00103DBB21370012000F01EF8012000F02BF80020FB
:4021800000F038F80837BD4680BD00BF776500409765004080B400AF054A054B1B78DBB263F07F03DBB21370BD465DF8047B70477765004080B483B000AF0346FB71044A1F
:4021C000FB7913700C37BD465DF8047B704700BF0765004080B483B000AF0346FB71044AFB7913700C37BD465DF8047B704700BF4765004080B483B000AF0346FB71044A07
:40220000FB7913700C37BD465DF8047B704700BF2765004080B500AF054B1B78002B04D100F008F8024B01221A7000F02BF880BDCD81FF1F80B582B000AF104B1B78DBB24D
:4022400023F03F03FB710D4AFB7943F00A03DBB213700B4A0A4B1B78DBB243F00103DBB21370012000F01EF8012000F02BF8002000F038F80837BD4680BD00BF766400407E
:402280009464004080B400AF054A054B1B78DBB263F07F03DBB21370BD465DF8047B70477664004080B483B000AF0346FB71044AFB7913700C37BD465DF8047B704700BF17
:4022C0000464004080B483B000AF0346FB71044AFB7913700C37BD465DF8047B704700BF4464004080B483B000AF0346FB71044AFB7913700C37BD465DF8047B704700BF0E
:402300002464004080B500AF022001214FF4804241F6FF7300F01EFA03461A460A4B1A700820012141F6FF7241F6FF7300F046FA03461A46054B1A70054800F073FA012056
:4023400000F082FA80BD00BFD481FF1FD581FF1F0525000080B582B000AF444B1B781846FEF71AFD424B1B781846FEF715FD414B1B78FF2B05D1FEF71DFE03461A463D4B5D
:402380001A703C4B1A783B4B1B78104608211A460623FEF73DFE374B1A78374B9BB2104645F6A0311A46FEF773FE304B1A78314B1B7810461946FEF78FFD304B1B78FF2B94
:4023C00005D1FEF7F7FD03461A462C4B1A702B4B1A782A4B1B78104608211A460723FEF717FE264B1978244B9AB2254B9BB2084611461A46FEF74CFE1D4B1A781F4B1B789C
:4024000010461946FEF768FD184B1B7818460121FEF77CFC164B1B7818460121FEF776FC00F05AFA0346FB71164A164B1B78DBB243F02003DBB21370FB79184600F050FA83
:40244000114A114B1B78DBB243F00103DBB213700D4A0D4B1B78DBB243F00203DBB213700A4B02221A600837BD4680BDD481FF1FD581FF1F2481FF1FD881FF1F2581FF1FD0
:402480000482FF1F986400407264004080E200E080B500AF074B1B68002B04D1FFF732FF044B01221A60FFF755FF00F055F8024B1B7880BDD081FF1F6364004080B500AF1A
:4024C00000F0F8F880BD00BF80B483B000AF0346FB80FB88C3F10303084A32F813309AB2074B1B889BB29BB2D31A9BB29BB21BB218460C37BD465DF8047B70470482FF1F28
:402500001482FF1F98B500AF104B00221A7014E00E4B1B78C3F103040C4B1B789BB21846FFF7D2FF03469AB2094B23F81420074B1B780133DAB2054B1A70044B1B78032B26
:40254000E6D9044B01221A7098BD00BFE081FF1FF081FF1FE481FF1F80B500AF054B1B78002B04D100F008F8024B01221A7000F019F880BDE181FF1F80B500AF074A074B05
:402580001B78DBB243F00603DBB213700C2000F069F8034B00221A8080BD00BF015900400C82FF1F80B582B000AF00F095F90346FB71244A234B1B78DBB243F00103DBB2DD
:4025C0001370214A204B1B78DBB243F00103DBB213701E4B1B78BB71BB7943F00203BB71BB7943F00103BB71184ABB791370184B18221A70174A174B1B78DBB243F040032B
:40260000DBB21370134A134B1B78DBB223F00303DBB21370104BC8221A70104B02221A700F4A0F4B1B78DBB243F00803DBB213700A20FEF789FDFB79184600F051F908379D
:40264000BD4680BDAB430040BB4300400359004006590040055900400059004014460040275B004080B584B000AF0346FB71FB790A2B07D00C2B02D0082B06D008E0C223B4
:40268000FB730BE08223FB7308E04223FB7305E0C223FB730020FEF729FD00BF044AFB7B1370FB79184600F015F81037BD4680BD0259004080B400AF054A054B1B78DBB2E7
:4026C00043F00103DBB21370BD465DF8047B70470059004080B584B000AF0346FB71FB790A2B08D00C2B02D0082B08D00BE04FF48053FB600DE04FF48063FB6009E04FF414
:402700008073FB6005E00023FB600020FEF7EEFC00BF0C4B00221A80FB6842F2107202FB03F303F6C413084A82FB0312D212DB17D31A064A1360064B00221A801037BD467A
:4027400080BD00BF0E82FF1FAD8BDB681082FF1F1482FF1F90B585B002AF0446084611461A462346FB710346BB710B46BB8013467B80114B01221A700F4B1878F979BA7994
:4027800000230093002301930123FEF7C3FB0A4B1978BA887B88084611461A46FEF75EFB054B1B7818460221FEF728FB024B1B7818460C37BD4690BD2681FF1F90B585B0CB
:4027C00002AF0446084611461A462346FB710346BB710B46BB8013467B80114B00221A700F4B1878F979BA7900230093002301930023FEF78FFB0A4B1978BA887B88084690
:4028000011461A46FEF72AFB054B1B7818460221FEF7F4FA024B1B7818460C37BD4690BD2781FF1F80B485B000AF7860054B1B68FB60FB6844337A681A601437BD465DF8F2
:40284000047B704708ED00E080B483B000AF0346FB71054AFB795B01DBB213700C37BD465DF8047B704700BF01E400E080B400AF034B02221A60BD465DF8047B704700BFE2
:4028800000E100E080B483B000AF0346FB71044AFB7913700C37BD465DF8047B704700BF7464004080B483B000AF0346FB71044AFB7913700C37BD465DF8047B704700BFFF
:4028C00077640040000000000230800803D000BF01380046FCD17047EFF3108072B6704780F31088704700BF014B1868704700BF8881FF1F0E4B70B51E460E4C0025E41AD4
:40290000A410A54204D056F8253098470135F8E700F094FB084B094C1E46E41AA4100025A54204D056F8253098470135F8E770BD48300000483000004830000050300000C8
:4029400010B5431E0A44914204D011F8014B03F8014FF8E710BD03460244934202D003F8011BFAE7704700000000000041444331200000004144433220000000004F004049
:402980000C0010510040200060510040100000000140001000140140000800400140000A004C0140000210500140100000500140C40C004810000000000000000000000017
:4029C0001F000000000000001F1F0000000000001F1F1F00000000001F1F1F1F000000001F1F1F1F1F0000001F1F1F1F1F1F00001F1F1F1F1F1F1F002013002561178026FD
:402A0000010080260100802601008026E00E8026C20C8026020080066587186D2102187F6409183E000080260300802620138026C80C8026E60E8026AA0A8026611780266F
:402A4000920880267406806D7206802F2002106F008080262002806F008080262002806F2002806F211A40FE00008626022210660080106E01828026EC0E8026CE0C802662
:402A8000000080067187186D7009183E00008026012080262102187F000000000000000000000000000000000000000000000000000000000000000000000000000000001D
:402AC00000000000000000000000000000000000000000000000000000000000000000000000000000000000000000000000000000000000000000000000000000000000D6
:402B00000000000000000000000000000000000000000000000000000000000000000000000000000000000000000000000000000000000000000000000000000000000095
:402B40000000000000000000000000000000000000000000000000000000000000000000000000000000000000000000000000000000000000000000000000000000000055
:402B80000000000000000000000000000000000000000000000000000000000000000000000000000000000000000000000000000000000000000000000000000000000015
:402BC00000000000000000000000000000000000000000000000000000000000000000000000000000000000000000000000000000000000000000000000000000000000D5
:402C00000000000000000000000000000000000000000000000000000000000000000000000000000000000000000000000000000000000000000000000000000000000094
:402C40000000000000000000000000000000000000000000000000000000000000000000000000000000000000000000000000000000000000000000000000000000000054
:402C80000000000000000000000000000000000000000000000000000000000000000000000000000000000000000000000000000000000000000000000000000000000014
:402CC00000000000000000000000000000000000000000000000000000000000000000000000000000000000000000000000000000000000000800004FFEFF00FB00000085
:402D0000A5060000C4FEFF0045EAFF008CFCFF0076350000951700008393FF00F9B1FF0001BE0000D2C40000DCD9FE003354FE0059980100C2620300D9FEFD0091D9F80081
:402D40003A4B02000A151800FAF923000A1518003A4B020091D9F800D9FEFD00C2620300599801003354FE00DCD9FE00D2C4000001BE0000F9B1FF008393FF00951700007B
:402D8000763500008CFCFF0045EAFF00C4FEFF00A5060000FB0000004FFEFF00E1280700C2510E00E128070048140800C492ED0077181100EE3022007718110088DD06002D
:402DC00029F5F900499B0E0093361D00499B0E005E5906008739FF005C573000B8AE60005C573000A2810A0095CFD40000000000FFFFFF00F5FFFF00140000008A000000F7
:402E00001BFFFF007FFBFF007B050000681C000001ECFF002F68FF0009DEFF005FDA01007A51010086D6FA008805F800F07F0900D8B32A004B503C00D8B32A00F07F090082
:402E40008805F80086D6FA007A5101005FDA010009DEFF002F68FF0001ECFF00681C00007B0500007FFBFF001BFFFF008A00000014000000F5FFFF00FFFFFF0000000000E5
:402E80000000000000000000000000000000000000000000000000000000000000000000000000000000000000000000000000000000000000000000000000000000000012
:402EC000000000000000000000000000000000000000000000000000000000000000000000000000000000000000000000000000000000000008000028140000000000008E
:402F0000000000003C1E0000A914000002010000E1300000BD1E0000BD1E00007E3F0000FF3F0000000000000000000000000000000000000000000021F8050144F80B400F
:402F40006AF8418081F80501A5F8130126499421E7F81B0108F9250149DAB82042F907016CF94F0181F90501EB3CC921000000000000000000000000000000000000000034
:402F80000000000000000000000000000000000000000000000000000000000000000000000000000000000000000000000000000000000000000000000000000000000011
:402FC00000000000000000000000000000000000000000000000000000000000000000000000000000000000000000000000000000000000000000000000000000000000D1
:40300000000000000000000000000000000000000000000000000000000000000000000000000000000000000000000000000000000000000000000043000000F8B500BFE1
:40304000F8BC08BC9E4670474D0000002D030000F8B500BFF8BC08BC9E46704729000000703000000881FF1F880000008800000000000000807F000003000000006CDC0275
:4030800080BB0000300000000000C05DFFFFFFFF00000000000000000000000000000000000000000000000000000000000000003830000000000000000000000000000024
:4030C0000000000000000000000000000000000000000000000000000000000000000000000000000000000000000000000000002881FF1F00000000000000000000000009
:40310000000000000000000000000000000000000000000000000000000000000000000000000000000000000000000000000000000000000000000000000000000000008F
:40314000000000000000000000000000000000000000000000000000000000000000000000000000000000000000000000000000000000000000000000000000000000004F
:40318000000000000000000000000000000000000000000000000000000000000000000000000000000000000000000000000000000000000000000000000000000000000F
:4031C00000000000000000000000000000000000000000000000000000000000000000000000000000000000000000000000000000000000000000000000000000000000CF
:020000040003F7
:0200000480007A
:40000000024F004005520040025B0040026400403B0001403B0101403502014055030140470401404F050140460601404F0701403908014050090140530A0140550B0140AB
:400040003F0C0140530D0140540E0140370F014024140140561501404C1601404E1701400E1901400A1B0140104001400C41014006420140064301400444014004450140A8
:40008000074601400747014009480140024901400E4C0140044D0140045001400251014001100A4B0110200121026020614027842F84801F880301C10306040105980602D6
:4000C000072309090A020BC60DD4151017C419C41B101DC41F1021D425102A012DE72F1831073378359836033B0A3E4056025720580459045B045C025F0183038501870258
:4001000089038C018D0390019103940198019E01A001A103A601A903B001B502B701D280D804D904DB09DC22DD90DF01000801800308060209490B040C010D080F251001CE
:4001400011211501162019401C40201421012229232824082701280229042A012D012E203240331434013501389439023D823F256302684069046A806B1470407302740242
:400180007D2080408101880289408B018F20C087C2FFC43BCAABCC8ECEFFD808DE20E004E620030207020B020D02130115011B011D0225022902310133023F015203530235
:4001C000580459045B045C225D205F018104831A851B86018B408D1B951B99229B049D1A9F01A11BA504A768AB01AD04AE02AF70B001B301B402B560B71EBB80BF04D401F7
:40020000D804D904DB0FDC02DD20DF010084020105010630088009400A500B040E110F241046110212101405160219011A401B30211423012760280229082A012B042C04D1
:400240002F203260330434803508362B388039243B013D023E613F0459406E806F087A40800281108540864087708B089080910492829520970498049A209B1E9C029D056A
:400280009E03A040A101A228A404A550A711A804A980AA20AB01AD10B004B101B308C034C2EFC4CFCA6FCCFECEFFD608DE01E20DE402E802EA0500600484070108800920BF
:4002C0000A040C840F02100412801303140117081C041F10208421202407250826382710280A29202A102C562E092F0430803104327F331834803503372038083E113F4467
:40030000404041024621481C49FF4AFF4BFF4DA04F0450185804590A5A0A5B045C905D095F01604062C06440654066C068C06AC06CC06EC0BBC0D280D804D909DB0BDC92BC
:40034000DD90DF010080010103140420050106200A920C010D08121B131A1440160A1720180419021A1021032204230526802A59310232803308388039083B103E203F2067
:4003800041115040511468046A056B01768078047D207F488104821085018A018B018E808F14928293A0984099019B5E9C019D44A040A108A20AA310A404A540A705A80675
:4003C000AA01AD08AF04B104C07FC23DC49FCA0FCC0BCE0ED005DEA2E001E288E601EA06EE0114011B0121012A032F023202330336015280580E59045B095C925D905F011C
:400400008010822083018680880589018A0A8B028C098E0692409403960C9C029E0DA040A280A302A620AA10B00FB2C0B430B503BA02BB0CBE14BF10C010C102C621C81CD5
:40044000C9FFCAFFCBFFCDA0CF04D018D409D804D90BDA0ADB04DC90DD09DF01E040E2C0E440E540E6C0E8C0EAC0ECC0EEC0028A0320084109040C400E100F02100413065D
:40048000171018041B091D401E101F40210822102710289029042F41371039124002411050405114581059025B446301680169106A026B20700871107342764079017B10E2
:4004C0007F14820283808D018E4092089325942099079A209B409C049D409E429F20A104A20AA510A701A904AB08AE04B001B140B404C00FC22DC44ECA91CC20CE05D00C4F
:40050000D60FD808DE63E604E806EE04020104080A040C04101012201480164018011C0220402280260828202A102E0230FF3A0C3E014020410546024701481549FF4AFF91
:400540004BFF4DA04F04501856025735580959045A0B5B0C5C295D295F01604062C06440654066C068C06AC06CC06EC08301B101D280D804D908DB08DC92DD90DF010011DF
:400580000301049105100680071009080A400CA00D040E48138814021510161017891C801D0421012C082E80300831083510378938023E4045204D084F80560857405D20FC
:4005C00064046C566D106F12700174A07A017D017E017F088110880289048F089101924294A8980699309A049B019D089E98A128A4C0A604A702A804AA08AC01B028B2825B
:40060000B544C0FBC2FCC4F5CA30CCF0CE11D020D210D620D820DEB8E440EC40EE2439083F04405441024260440349FF4AFF4BFF4C024E704F085004580459045A045C22D7
:400640005F0162C0644065016610671168C069016B116C406D016E406F0180088210860187018A029101930296109A039B02A208A604AF04B203B404B503B618B704BE404B
:40068000BF10C054C106C230C401C5DFC6B0C7CEC83BC9FFCAFFCBFFCC23CEF0CF08D004D80BD904DA04DB04DC29DF01E2C0E440E501E610E711E8C0E901EB11EC40ED01D0
:4006C000EE40EF01021003090508064809080A400D200E2010081201150117041D201E222204270929102A812B082F0231083301340136203A103B023D0440A44480450485
:4007000046024A024B204D024E0A4F0A550156245D105E825F087D097F108101862088208A448C028D028F0491159242930294A89540988499309A019C029E809F01A1082E
:40074000A262A4E0A501A60CA705A890AA40AF01B310C077C26CC433CA1DCCA3CE45D0D7D23CD6F0DE80E011E2C0E4B0EC8003010601070213041B031F10250827102A021F
:400780002F08300133043402350337183F404020410345014620480B49FF4AFF4BFF4DA04F045018520F56105804590A5A0A5B045C925D995F01604062C06440654066C07A
:4007C00068C06AC06CC06EC08C7090049C249E48A819AA22AC2EAE51B007B678B880BA02D440D804D904DB04DC20DF010180040805100681088009010D080E40120A1410F2
:400800001604170119801A801C041D101E401F012660271028102A012C202F02311833013501368037103A803B023F05462047104F055620631A6D056F0E7D048080830405
:4008400085018601884089A08A088B208C408E04911094A4954496409702981499019A019C029E889F21A108A282A480A604A70AA908AA40B120B220C0F1C239C473CA53CF
:40088000CCB7CEC9D060D80EDE40E020E802EA20EE800A010C011A023202340136024010410245104620480A49FF4AFF4BFF4DA04F0450185280580959045A095B0A5C29B3
:4008C0005D995F01604062C06440654066C068C06AC06CC06EC080018302840485018A088E0497019A019E02A408A504AA10AC02AD04B21FB302B504B701B808B920BE04FA
:40090000BF10C030C106C501C620C809C9FFCAFFCBFFCDA0CF04D018D280D804D908DA08DB08DC92DD99DF01E040E2C0E440E540E6C0E8C0EAC0ECC0EEC0009004A406A05E
:4009400009200C800D080E4810041120141216011729181119201D082514268828102A012D402E0831083301360838043A803B023C023F0840014110450448404F28511083
:4009800057107101740179047B087F02830889308E02C0F3C2F2C4F0CA53CC43CECBD04CD220DE16E080E4900204060307010E100F02120816201E402201260228202A40ED
:4009C0002C082E102F03301831033260340436033E0552FF56105808590A5B045C995D905F01D280D804D904DB08DC22DD90DF010182032007A1090A0A020E401008110257
:400A00001220134014401628184019A41B20220128022C402E402F8037A1388039083D083E28428043024510471059415A2860446184640565106709680469816B10700412
:400A4000711A7280730175027B127F02800483108404850189808B88908491089268934095839708980299419A209B219C459D209F80A008A105A220A388A510A712A81086
:400A8000A904AF20C0BDC21DC47FCA98CCB0CE6AD60FD80FDE1AE403EA06EE020F0137014060410445014602482549FF4AFF4BFF4DA04F0450185608580459045A085B04F7
:400AC0005C225D995F01604062C06440654066C068C06AC06CC06EC0800882108A038E02920496409C209E40A220A610AA01AE08B060B204B403B618BB30BE41C030C10247
:400B0000C510C620C81AC9FFCAFFCBFFCDA0CF04D018D280D80BD908DA0BDB0BDC99DD99DF01E040E2C0E440E540E6C0E8C0EAC0ECC0EEC00092042007A1090A0A020E40C1
:400B400011011206130814401620181019411B202308254027012E402F8037A13D483E2040104110468048404D204E2051105204550156805C8067027102780179807A0206
:400B80007F028540888090849148926A934094209503970A98029A209C05A009A108A388A510A730A910AA80AB04AC02B480B540C0FBC21DC43FCA90CCB0CE70D086D220DE
:400BC000D610D810DE19E022E4C0EA01EC40EE02868092409B019E80A108A601A708AA04AD01B504B604E4C0EA50EC40820187088B019B01A601A708AA40AD08E620EE02F4
:400C000011041680301036803B023E80538056105B4083808A10C430CC30CE60D4E0E620630486808704910497029C10A680AB40D840E240E610EE8063028B01910497022F
:400C40009C10D640190191049C10AB01C610EE2073107680DC01DE048B109710AE80E40103201B0424408380C008C608C80146019B80AB04B320B440D004EA03231027102F
:400C800089048B108F1091049C10B501C8C0AC10EE401C08370838208B088E0190209B809E01B410C601CC01CE08E403EC0273809B80AC04DC01100411011A041B01000FB0
:400CC000100A00000501000000000000050105010501050140000000000000105000000000000070700070000000000010000000000000000000000000078700007F7F0030
:400D000000000000000100000000000000000000000000000000000000000000000000000000000000000000000000000000000000000000000000000000000000000000B2
:400D40000000000000000000000000000000000000000000000000000000000000000000000000000000000000000000000000000000000000000000000000000000000073
:400D80000000000000000000000000000000000000000000000000000000000000000000000000000000000000000000000000000000000000000000000000000000000033
:400DC00000000000000000000000000000000000000000000000000000000000000000000000000000000000000000000000000000000000000000000000000000000000F3
:400E000000000000000000000000000000000000000000000000000000000000000000000000000000000000000000000000000000000000000000000000000000000000B2
:0200000490006A
:040000000080400735
:0200000490105A
:04000000BC90ACAF55
:0200000490303A
:02000000920567
:0200000490402A
:4000000000000000000000000000000000000000000000000000000000000000000000000000000000000000000000000000000000000000000000000000000000000000C0
:400040000000000000000000000000000000000000000000000000000000000000000000000000000000000000000000000000000000000000000000000000000000000080
:400080000000000000000000000000000000000000000000000000000000000000000000000000000000000000000000000000000000000000000000000000000000000040
:4000C0000000000000000000000000000000000000000000000000000000000000000000000000000000000000000000000000000000000000000000000000000000000000
:0200000490501A
:0C00000000012E12306900012E27C26E94
:00000001FF